
PreCharge.elf:     file format elf32-littlearm

Sections:
Idx Name          Size      VMA       LMA       File off  Algn
  0 .text         000019a4  00000000  00000000  00010000  2**2
                  CONTENTS, ALLOC, LOAD, READONLY, CODE
  1 .relocate     0000000c  20000000  000019a4  00020000  2**2
                  CONTENTS, ALLOC, LOAD, DATA
  2 .bss          00000a08  2000000c  000019b0  0002000c  2**2
                  ALLOC
  3 .stack        00002004  20000a14  000023b8  0002000c  2**0
                  ALLOC
  4 .ARM.attributes 00000028  00000000  00000000  0002000c  2**0
                  CONTENTS, READONLY
  5 .comment      00000059  00000000  00000000  00020034  2**0
                  CONTENTS, READONLY
  6 .debug_info   000243cc  00000000  00000000  0002008d  2**0
                  CONTENTS, READONLY, DEBUGGING
  7 .debug_abbrev 00002fdc  00000000  00000000  00044459  2**0
                  CONTENTS, READONLY, DEBUGGING
  8 .debug_loc    000042f6  00000000  00000000  00047435  2**0
                  CONTENTS, READONLY, DEBUGGING
  9 .debug_aranges 00000478  00000000  00000000  0004b72b  2**0
                  CONTENTS, READONLY, DEBUGGING
 10 .debug_ranges 00000568  00000000  00000000  0004bba3  2**0
                  CONTENTS, READONLY, DEBUGGING
 11 .debug_macro  0001e518  00000000  00000000  0004c10b  2**0
                  CONTENTS, READONLY, DEBUGGING
 12 .debug_line   0000aed7  00000000  00000000  0006a623  2**0
                  CONTENTS, READONLY, DEBUGGING
 13 .debug_str    0009fc46  00000000  00000000  000754fa  2**0
                  CONTENTS, READONLY, DEBUGGING
 14 .debug_frame  00000a3c  00000000  00000000  00115140  2**2
                  CONTENTS, READONLY, DEBUGGING

Disassembly of section .text:

00000000 <exception_table>:
       0:	18 2a 00 20 19 12 00 00 15 12 00 00 15 12 00 00     .*. ............
	...
      2c:	15 12 00 00 00 00 00 00 00 00 00 00 15 12 00 00     ................
      3c:	15 12 00 00 15 12 00 00 15 12 00 00 15 12 00 00     ................
      4c:	c5 0a 00 00 15 12 00 00 15 12 00 00 15 12 00 00     ................
      5c:	15 12 00 00 15 12 00 00 15 12 00 00 15 12 00 00     ................
      6c:	15 12 00 00 15 12 00 00 15 12 00 00 15 12 00 00     ................
      7c:	15 12 00 00 15 12 00 00 15 12 00 00 15 12 00 00     ................
      8c:	15 12 00 00 15 12 00 00 15 12 00 00 15 12 00 00     ................
      9c:	15 12 00 00 15 12 00 00 15 12 00 00 15 12 00 00     ................
      ac:	15 12 00 00 15 12 00 00 15 12 00 00 15 12 00 00     ................

000000bc <__do_global_dtors_aux>:
      bc:	b510      	push	{r4, lr}
      be:	4c06      	ldr	r4, [pc, #24]	; (d8 <__do_global_dtors_aux+0x1c>)
      c0:	7823      	ldrb	r3, [r4, #0]
      c2:	2b00      	cmp	r3, #0
      c4:	d107      	bne.n	d6 <__do_global_dtors_aux+0x1a>
      c6:	4b05      	ldr	r3, [pc, #20]	; (dc <__do_global_dtors_aux+0x20>)
      c8:	2b00      	cmp	r3, #0
      ca:	d002      	beq.n	d2 <__do_global_dtors_aux+0x16>
      cc:	4804      	ldr	r0, [pc, #16]	; (e0 <__do_global_dtors_aux+0x24>)
      ce:	e000      	b.n	d2 <__do_global_dtors_aux+0x16>
      d0:	bf00      	nop
      d2:	2301      	movs	r3, #1
      d4:	7023      	strb	r3, [r4, #0]
      d6:	bd10      	pop	{r4, pc}
      d8:	2000000c 	.word	0x2000000c
      dc:	00000000 	.word	0x00000000
      e0:	000019a4 	.word	0x000019a4

000000e4 <frame_dummy>:
      e4:	4b08      	ldr	r3, [pc, #32]	; (108 <frame_dummy+0x24>)
      e6:	b510      	push	{r4, lr}
      e8:	2b00      	cmp	r3, #0
      ea:	d003      	beq.n	f4 <frame_dummy+0x10>
      ec:	4907      	ldr	r1, [pc, #28]	; (10c <frame_dummy+0x28>)
      ee:	4808      	ldr	r0, [pc, #32]	; (110 <frame_dummy+0x2c>)
      f0:	e000      	b.n	f4 <frame_dummy+0x10>
      f2:	bf00      	nop
      f4:	4807      	ldr	r0, [pc, #28]	; (114 <frame_dummy+0x30>)
      f6:	6803      	ldr	r3, [r0, #0]
      f8:	2b00      	cmp	r3, #0
      fa:	d100      	bne.n	fe <frame_dummy+0x1a>
      fc:	bd10      	pop	{r4, pc}
      fe:	4b06      	ldr	r3, [pc, #24]	; (118 <frame_dummy+0x34>)
     100:	2b00      	cmp	r3, #0
     102:	d0fb      	beq.n	fc <frame_dummy+0x18>
     104:	4798      	blx	r3
     106:	e7f9      	b.n	fc <frame_dummy+0x18>
     108:	00000000 	.word	0x00000000
     10c:	20000010 	.word	0x20000010
     110:	000019a4 	.word	0x000019a4
     114:	000019a4 	.word	0x000019a4
     118:	00000000 	.word	0x00000000

0000011c <delay_init>:
 *
 * This must be called during start up to initialize the delay routine with
 * the current used main clock. It must run any time the main CPU clock is changed.
 */
void delay_init(void)
{
     11c:	b570      	push	{r4, r5, r6, lr}
	cycles_per_ms = system_gclk_gen_get_hz(0);
     11e:	2000      	movs	r0, #0
     120:	4b08      	ldr	r3, [pc, #32]	; (144 <delay_init+0x28>)
     122:	4798      	blx	r3
     124:	0005      	movs	r5, r0
	cycles_per_ms /= 1000;
     126:	4c08      	ldr	r4, [pc, #32]	; (148 <delay_init+0x2c>)
     128:	21fa      	movs	r1, #250	; 0xfa
     12a:	0089      	lsls	r1, r1, #2
     12c:	47a0      	blx	r4
     12e:	4b07      	ldr	r3, [pc, #28]	; (14c <delay_init+0x30>)
     130:	6018      	str	r0, [r3, #0]
	cycles_per_us = cycles_per_ms / 1000;
     132:	4907      	ldr	r1, [pc, #28]	; (150 <delay_init+0x34>)
     134:	0028      	movs	r0, r5
     136:	47a0      	blx	r4
     138:	4b06      	ldr	r3, [pc, #24]	; (154 <delay_init+0x38>)
     13a:	6018      	str	r0, [r3, #0]

	SysTick->CTRL = SysTick_CTRL_CLKSOURCE_Msk | SysTick_CTRL_ENABLE_Msk;
     13c:	2205      	movs	r2, #5
     13e:	4b06      	ldr	r3, [pc, #24]	; (158 <delay_init+0x3c>)
     140:	601a      	str	r2, [r3, #0]
}
     142:	bd70      	pop	{r4, r5, r6, pc}
     144:	00001011 	.word	0x00001011
     148:	000016a5 	.word	0x000016a5
     14c:	20000000 	.word	0x20000000
     150:	000f4240 	.word	0x000f4240
     154:	20000004 	.word	0x20000004
     158:	e000e010 	.word	0xe000e010

0000015c <delay_cycles_ms>:
 *
 * \param n  Number of milliseconds to wait
 */
void delay_cycles_ms(
		uint32_t n)
{
     15c:	b530      	push	{r4, r5, lr}
	while (n--) {
		/* Devide up to blocks of 1ms */
		delay_cycles(cycles_per_ms);
     15e:	4b08      	ldr	r3, [pc, #32]	; (180 <delay_cycles_ms+0x24>)
     160:	681c      	ldr	r4, [r3, #0]
 */
static inline void delay_cycles(
		const uint32_t n)
{
	if (n > 0) {
		SysTick->LOAD = n;
     162:	4a08      	ldr	r2, [pc, #32]	; (184 <delay_cycles_ms+0x28>)
		SysTick->VAL = 0;
     164:	2500      	movs	r5, #0

		while (!(SysTick->CTRL & SysTick_CTRL_COUNTFLAG_Msk)) {
     166:	2180      	movs	r1, #128	; 0x80
     168:	0249      	lsls	r1, r1, #9
	while (n--) {
     16a:	3801      	subs	r0, #1
     16c:	d307      	bcc.n	17e <delay_cycles_ms+0x22>
	if (n > 0) {
     16e:	2c00      	cmp	r4, #0
     170:	d0fb      	beq.n	16a <delay_cycles_ms+0xe>
		SysTick->LOAD = n;
     172:	6054      	str	r4, [r2, #4]
		SysTick->VAL = 0;
     174:	6095      	str	r5, [r2, #8]
		while (!(SysTick->CTRL & SysTick_CTRL_COUNTFLAG_Msk)) {
     176:	6813      	ldr	r3, [r2, #0]
     178:	420b      	tst	r3, r1
     17a:	d0fc      	beq.n	176 <delay_cycles_ms+0x1a>
     17c:	e7f5      	b.n	16a <delay_cycles_ms+0xe>
	}
}
     17e:	bd30      	pop	{r4, r5, pc}
     180:	20000000 	.word	0x20000000
     184:	e000e010 	.word	0xe000e010

00000188 <_adc_get_inst_index>:
	/* List of available ADC modules. */
	Adc *const adc_modules[ADC_INST_NUM] = ADC_INSTS;

	/* Find index for ADC instance. */
	for (uint32_t i = 0; i < ADC_INST_NUM; i++) {
		if (hw == adc_modules[i]) {
     188:	4b06      	ldr	r3, [pc, #24]	; (1a4 <_adc_get_inst_index+0x1c>)
     18a:	4298      	cmp	r0, r3
     18c:	d008      	beq.n	1a0 <_adc_get_inst_index+0x18>
     18e:	4a06      	ldr	r2, [pc, #24]	; (1a8 <_adc_get_inst_index+0x20>)
		}
	}

	/* Invalid data given. */
	Assert(false);
	return 0;
     190:	2300      	movs	r3, #0
		if (hw == adc_modules[i]) {
     192:	4290      	cmp	r0, r2
     194:	d001      	beq.n	19a <_adc_get_inst_index+0x12>
}
     196:	0018      	movs	r0, r3
     198:	4770      	bx	lr
     19a:	3301      	adds	r3, #1
			return i;
     19c:	b2db      	uxtb	r3, r3
     19e:	e7fa      	b.n	196 <_adc_get_inst_index+0xe>
	for (uint32_t i = 0; i < ADC_INST_NUM; i++) {
     1a0:	2300      	movs	r3, #0
     1a2:	e7fb      	b.n	19c <_adc_get_inst_index+0x14>
     1a4:	42004400 	.word	0x42004400
     1a8:	42004800 	.word	0x42004800

000001ac <adc_get_config_defaults>:
 *
 * \param[out] config  Pointer to configuration struct to initialize to
 *                     default values
 */
void adc_get_config_defaults(struct adc_config *const config)
{
     1ac:	b510      	push	{r4, lr}
	Assert(config);
	config->clock_source                  = GCLK_GENERATOR_0;
     1ae:	2300      	movs	r3, #0
     1b0:	2200      	movs	r2, #0
     1b2:	7003      	strb	r3, [r0, #0]
	config->reference                     = ADC_REFERENCE_INTREF;
     1b4:	7043      	strb	r3, [r0, #1]
	config->clock_prescaler               = ADC_CLOCK_PRESCALER_DIV2;
     1b6:	7083      	strb	r3, [r0, #2]
	config->resolution                    = ADC_RESOLUTION_12BIT;
     1b8:	70c3      	strb	r3, [r0, #3]
	config->window.window_mode            = ADC_WINDOW_MODE_DISABLE;
     1ba:	2100      	movs	r1, #0
     1bc:	8303      	strh	r3, [r0, #24]
	config->window.window_upper_value     = 0;
     1be:	6203      	str	r3, [r0, #32]
	config->window.window_lower_value     = 0;
     1c0:	61c3      	str	r3, [r0, #28]
#if SAMR30
	config->positive_input                = ADC_POSITIVE_INPUT_PIN6;
#else
	config->positive_input                = ADC_POSITIVE_INPUT_PIN1;
     1c2:	2401      	movs	r4, #1
     1c4:	7104      	strb	r4, [r0, #4]
#endif
	config->negative_input                = ADC_NEGATIVE_INPUT_GND;
     1c6:	24c0      	movs	r4, #192	; 0xc0
     1c8:	0164      	lsls	r4, r4, #5
     1ca:	80c4      	strh	r4, [r0, #6]
	config->accumulate_samples            = ADC_ACCUMULATE_DISABLE;
     1cc:	7201      	strb	r1, [r0, #8]
	config->divide_result                 = ADC_DIVIDE_RESULT_DISABLE;
     1ce:	7242      	strb	r2, [r0, #9]
	config->left_adjust                   = false;
     1d0:	7282      	strb	r2, [r0, #10]
	config->differential_mode             = false;
     1d2:	72c2      	strb	r2, [r0, #11]
	config->freerunning                   = false;
     1d4:	7302      	strb	r2, [r0, #12]
	config->event_action                  = ADC_EVENT_ACTION_DISABLED;
     1d6:	242a      	movs	r4, #42	; 0x2a
     1d8:	5502      	strb	r2, [r0, r4]
	config->run_in_standby                = false;
     1da:	7342      	strb	r2, [r0, #13]
	config->on_demand                     = false;
     1dc:	7382      	strb	r2, [r0, #14]
	config->sampling_time_compensation_enable  = false;
     1de:	73c2      	strb	r2, [r0, #15]
	config->positive_input_sequence_mask_enable = 0;
     1e0:	6103      	str	r3, [r0, #16]
	config->reference_compensation_enable = false;
     1e2:	7502      	strb	r2, [r0, #20]
	config->correction.correction_enable  = false;
     1e4:	3c06      	subs	r4, #6
     1e6:	5502      	strb	r2, [r0, r4]
	config->correction.gain_correction    = ADC_GAINCORR_RESETVALUE;
     1e8:	84c3      	strh	r3, [r0, #38]	; 0x26
	config->correction.offset_correction  = ADC_OFFSETCORR_RESETVALUE;
     1ea:	8503      	strh	r3, [r0, #40]	; 0x28
	config->sample_length                 = 0;
     1ec:	7541      	strb	r1, [r0, #21]
}
     1ee:	bd10      	pop	{r4, pc}

000001f0 <adc_init>:
 */
enum status_code adc_init(
		struct adc_module *const module_inst,
		Adc *hw,
		struct adc_config *config)
{
     1f0:	b5f0      	push	{r4, r5, r6, r7, lr}
     1f2:	46de      	mov	lr, fp
     1f4:	4657      	mov	r7, sl
     1f6:	464e      	mov	r6, r9
     1f8:	4645      	mov	r5, r8
     1fa:	b5e0      	push	{r5, r6, r7, lr}
     1fc:	b09f      	sub	sp, #124	; 0x7c
     1fe:	0005      	movs	r5, r0
     200:	000e      	movs	r6, r1
     202:	0017      	movs	r7, r2
	Assert(module_inst);
	Assert(hw);
	Assert(config);

	/* Temporary variable to hold ADC instance number */
	uint8_t instance = _adc_get_inst_index(hw);
     204:	0008      	movs	r0, r1
     206:	4b8d      	ldr	r3, [pc, #564]	; (43c <adc_init+0x24c>)
     208:	4798      	blx	r3
     20a:	0004      	movs	r4, r0
     20c:	9001      	str	r0, [sp, #4]

	/* Associate the software module instance with the hardware module */
	module_inst->hw = hw;
     20e:	602e      	str	r6, [r5, #0]
		case SYSTEM_CLOCK_APB_APBB:
			MCLK->APBBMASK.reg |= mask;
			break;

		case SYSTEM_CLOCK_APB_APBC:
			MCLK->APBCMASK.reg |= mask;
     210:	4a8b      	ldr	r2, [pc, #556]	; (440 <adc_init+0x250>)
     212:	69d3      	ldr	r3, [r2, #28]
	system_apb_clock_set_mask(SYSTEM_CLOCK_APB_APBC, MCLK_APBCMASK_ADC);
#elif (SAML21) || (SAMR30)
	/* Turn on the digital interface clock */
	system_apb_clock_set_mask(SYSTEM_CLOCK_APB_APBD, MCLK_APBDMASK_ADC);
#else
	system_apb_clock_set_mask(SYSTEM_CLOCK_APB_APBC, _adc_apbcmasks[instance]);
     214:	0080      	lsls	r0, r0, #2
     216:	498b      	ldr	r1, [pc, #556]	; (444 <adc_init+0x254>)
     218:	5841      	ldr	r1, [r0, r1]
     21a:	430b      	orrs	r3, r1
     21c:	61d3      	str	r3, [r2, #28]
#endif

	if (hw->CTRLA.reg & ADC_CTRLA_SWRST) {
     21e:	7833      	ldrb	r3, [r6, #0]
		/* We are in the middle of a reset. Abort. */
		return STATUS_BUSY;
     220:	2005      	movs	r0, #5
	if (hw->CTRLA.reg & ADC_CTRLA_SWRST) {
     222:	07db      	lsls	r3, r3, #31
     224:	d506      	bpl.n	234 <adc_init+0x44>
	}
#endif

	/* Write configuration to module */
	return _adc_set_config(instance, module_inst, config);
}
     226:	b01f      	add	sp, #124	; 0x7c
     228:	bc3c      	pop	{r2, r3, r4, r5}
     22a:	4690      	mov	r8, r2
     22c:	4699      	mov	r9, r3
     22e:	46a2      	mov	sl, r4
     230:	46ab      	mov	fp, r5
     232:	bdf0      	pop	{r4, r5, r6, r7, pc}
	struct adc_module *const module_inst)
{
	/* Sanity check arguments */
	Assert(module_inst);

	Adc *const adc_module = module_inst->hw;
     234:	682a      	ldr	r2, [r5, #0]

	if (adc_module->SYNCBUSY.reg) {
     236:	8c13      	ldrh	r3, [r2, #32]
     238:	b29b      	uxth	r3, r3
	while (adc_is_syncing(module_inst)) {
     23a:	2b00      	cmp	r3, #0
     23c:	d1fb      	bne.n	236 <adc_init+0x46>
	if (hw->CTRLA.reg & ADC_CTRLA_ENABLE) {
     23e:	7833      	ldrb	r3, [r6, #0]
		return STATUS_ERR_DENIED;
     240:	201c      	movs	r0, #28
	if (hw->CTRLA.reg & ADC_CTRLA_ENABLE) {
     242:	079b      	lsls	r3, r3, #30
     244:	d4ef      	bmi.n	226 <adc_init+0x36>
	module_inst->reference = config->reference;
     246:	787b      	ldrb	r3, [r7, #1]
     248:	712b      	strb	r3, [r5, #4]
	if (module_inst->reference == ADC_REFERENCE_INTREF) {
     24a:	2b00      	cmp	r3, #0
     24c:	d104      	bne.n	258 <adc_init+0x68>
	switch (vref) {
		case SYSTEM_VOLTAGE_REFERENCE_TEMPSENSE:
			SUPC->VREF.reg |= SUPC_VREF_TSEN;
			break;
		case SYSTEM_VOLTAGE_REFERENCE_OUTPUT:
			SUPC->VREF.reg |= SUPC_VREF_VREFOE;
     24e:	4a7e      	ldr	r2, [pc, #504]	; (448 <adc_init+0x258>)
     250:	69d3      	ldr	r3, [r2, #28]
     252:	2104      	movs	r1, #4
     254:	430b      	orrs	r3, r1
     256:	61d3      	str	r3, [r2, #28]
	Adc *const adc_module = module_inst->hw;
     258:	682b      	ldr	r3, [r5, #0]
     25a:	469a      	mov	sl, r3
	gclk_chan_conf.source_generator = config->clock_source;
     25c:	783b      	ldrb	r3, [r7, #0]
     25e:	aa04      	add	r2, sp, #16
     260:	7013      	strb	r3, [r2, #0]
	system_gclk_chan_set_config(_adc_gclk_ids[index], &gclk_chan_conf);
     262:	4b7a      	ldr	r3, [pc, #488]	; (44c <adc_init+0x25c>)
     264:	5d1e      	ldrb	r6, [r3, r4]
     266:	0011      	movs	r1, r2
     268:	0030      	movs	r0, r6
     26a:	4b79      	ldr	r3, [pc, #484]	; (450 <adc_init+0x260>)
     26c:	4798      	blx	r3
	system_gclk_chan_enable(_adc_gclk_ids[index]);
     26e:	0030      	movs	r0, r6
     270:	4b78      	ldr	r3, [pc, #480]	; (454 <adc_init+0x264>)
     272:	4798      	blx	r3
	_adc_configure_ain_pin(index, config->positive_input);
     274:	793b      	ldrb	r3, [r7, #4]
     276:	4698      	mov	r8, r3
	const uint32_t pinmapping0[] = {
     278:	ae06      	add	r6, sp, #24
     27a:	4b77      	ldr	r3, [pc, #476]	; (458 <adc_init+0x268>)
     27c:	469c      	mov	ip, r3
     27e:	0032      	movs	r2, r6
     280:	0019      	movs	r1, r3
     282:	c949      	ldmia	r1!, {r0, r3, r6}
     284:	c249      	stmia	r2!, {r0, r3, r6}
     286:	c949      	ldmia	r1!, {r0, r3, r6}
     288:	c249      	stmia	r2!, {r0, r3, r6}
     28a:	c949      	ldmia	r1!, {r0, r3, r6}
     28c:	c249      	stmia	r2!, {r0, r3, r6}
     28e:	c949      	ldmia	r1!, {r0, r3, r6}
     290:	c249      	stmia	r2!, {r0, r3, r6}
	const uint32_t pinmapping1[] = {
     292:	a912      	add	r1, sp, #72	; 0x48
     294:	4663      	mov	r3, ip
     296:	3330      	adds	r3, #48	; 0x30
     298:	000a      	movs	r2, r1
     29a:	cb43      	ldmia	r3!, {r0, r1, r6}
     29c:	c243      	stmia	r2!, {r0, r1, r6}
     29e:	cb43      	ldmia	r3!, {r0, r1, r6}
     2a0:	c243      	stmia	r2!, {r0, r1, r6}
     2a2:	cb43      	ldmia	r3!, {r0, r1, r6}
     2a4:	c243      	stmia	r2!, {r0, r1, r6}
     2a6:	cb43      	ldmia	r3!, {r0, r1, r6}
     2a8:	c243      	stmia	r2!, {r0, r1, r6}
	switch(index) {
     2aa:	9b01      	ldr	r3, [sp, #4]
     2ac:	2b00      	cmp	r3, #0
     2ae:	d004      	beq.n	2ba <adc_init+0xca>
		pinmapping = pinmapping1;
     2b0:	a912      	add	r1, sp, #72	; 0x48
	switch(index) {
     2b2:	2b01      	cmp	r3, #1
     2b4:	d002      	beq.n	2bc <adc_init+0xcc>
	const uint32_t *pinmapping = NULL;;
     2b6:	2100      	movs	r1, #0
     2b8:	e000      	b.n	2bc <adc_init+0xcc>
		pinmapping = pinmapping0;
     2ba:	a906      	add	r1, sp, #24
	if (pin <= _adc_extchannel_msb[index]) {
     2bc:	00a3      	lsls	r3, r4, #2
     2be:	4a67      	ldr	r2, [pc, #412]	; (45c <adc_init+0x26c>)
     2c0:	589b      	ldr	r3, [r3, r2]
     2c2:	469b      	mov	fp, r3
     2c4:	4598      	cmp	r8, r3
     2c6:	d922      	bls.n	30e <adc_init+0x11e>
	_adc_configure_ain_pin(index, config->negative_input);
     2c8:	88fb      	ldrh	r3, [r7, #6]
     2ca:	4698      	mov	r8, r3
	const uint32_t pinmapping0[] = {
     2cc:	ae06      	add	r6, sp, #24
     2ce:	4b62      	ldr	r3, [pc, #392]	; (458 <adc_init+0x268>)
     2d0:	469c      	mov	ip, r3
     2d2:	0032      	movs	r2, r6
     2d4:	0019      	movs	r1, r3
     2d6:	c949      	ldmia	r1!, {r0, r3, r6}
     2d8:	c249      	stmia	r2!, {r0, r3, r6}
     2da:	c949      	ldmia	r1!, {r0, r3, r6}
     2dc:	c249      	stmia	r2!, {r0, r3, r6}
     2de:	c949      	ldmia	r1!, {r0, r3, r6}
     2e0:	c249      	stmia	r2!, {r0, r3, r6}
     2e2:	c949      	ldmia	r1!, {r0, r3, r6}
     2e4:	c249      	stmia	r2!, {r0, r3, r6}
	const uint32_t pinmapping1[] = {
     2e6:	a912      	add	r1, sp, #72	; 0x48
     2e8:	4663      	mov	r3, ip
     2ea:	3330      	adds	r3, #48	; 0x30
     2ec:	000a      	movs	r2, r1
     2ee:	cb43      	ldmia	r3!, {r0, r1, r6}
     2f0:	c243      	stmia	r2!, {r0, r1, r6}
     2f2:	cb43      	ldmia	r3!, {r0, r1, r6}
     2f4:	c243      	stmia	r2!, {r0, r1, r6}
     2f6:	cb43      	ldmia	r3!, {r0, r1, r6}
     2f8:	c243      	stmia	r2!, {r0, r1, r6}
     2fa:	cb43      	ldmia	r3!, {r0, r1, r6}
     2fc:	c243      	stmia	r2!, {r0, r1, r6}
	switch(index) {
     2fe:	9a01      	ldr	r2, [sp, #4]
     300:	2a00      	cmp	r2, #0
     302:	d012      	beq.n	32a <adc_init+0x13a>
		pinmapping = pinmapping1;
     304:	ab12      	add	r3, sp, #72	; 0x48
	switch(index) {
     306:	2a01      	cmp	r2, #1
     308:	d010      	beq.n	32c <adc_init+0x13c>
	const uint32_t *pinmapping = NULL;;
     30a:	2300      	movs	r3, #0
     30c:	e00e      	b.n	32c <adc_init+0x13c>
		pin_map_result = pinmapping[pin >> ADC_INPUTCTRL_MUXPOS_Pos];
     30e:	4643      	mov	r3, r8
     310:	0098      	lsls	r0, r3, #2
     312:	5840      	ldr	r0, [r0, r1]
	/* Sanity check arguments */
	Assert(config);

	/* Default configuration values */
	config->mux_position = SYSTEM_PINMUX_GPIO;
	config->direction    = SYSTEM_PINMUX_PIN_DIR_INPUT;
     314:	a905      	add	r1, sp, #20
     316:	2300      	movs	r3, #0
     318:	704b      	strb	r3, [r1, #1]
	config->input_pull   = SYSTEM_PINMUX_PIN_PULL_UP;
	config->powersave    = false;
     31a:	70cb      	strb	r3, [r1, #3]
		config.input_pull   = SYSTEM_PINMUX_PIN_PULL_NONE;
     31c:	708b      	strb	r3, [r1, #2]
		config.mux_position = 1;
     31e:	3301      	adds	r3, #1
     320:	700b      	strb	r3, [r1, #0]
		system_pinmux_pin_set_config(pin_map_result, &config);
     322:	b2c0      	uxtb	r0, r0
     324:	4b4e      	ldr	r3, [pc, #312]	; (460 <adc_init+0x270>)
     326:	4798      	blx	r3
     328:	e7ce      	b.n	2c8 <adc_init+0xd8>
		pinmapping = pinmapping0;
     32a:	ab06      	add	r3, sp, #24
	if (pin <= _adc_extchannel_msb[index]) {
     32c:	45d8      	cmp	r8, fp
     32e:	d90a      	bls.n	346 <adc_init+0x156>
     330:	2100      	movs	r1, #0
     332:	2600      	movs	r6, #0
		if(config->positive_input_sequence_mask_enable & (1 << i)){
     334:	2301      	movs	r3, #1
     336:	4699      	mov	r9, r3
	const uint32_t pinmapping0[] = {
     338:	4b47      	ldr	r3, [pc, #284]	; (458 <adc_init+0x268>)
     33a:	4698      	mov	r8, r3
		system_pinmux_pin_set_config(pin_map_result, &config);
     33c:	9403      	str	r4, [sp, #12]
     33e:	465b      	mov	r3, fp
     340:	9302      	str	r3, [sp, #8]
     342:	46ab      	mov	fp, r5
     344:	e020      	b.n	388 <adc_init+0x198>
		pin_map_result = pinmapping[pin >> ADC_INPUTCTRL_MUXPOS_Pos];
     346:	4642      	mov	r2, r8
     348:	0090      	lsls	r0, r2, #2
     34a:	58c0      	ldr	r0, [r0, r3]
	config->direction    = SYSTEM_PINMUX_PIN_DIR_INPUT;
     34c:	a905      	add	r1, sp, #20
     34e:	2300      	movs	r3, #0
     350:	704b      	strb	r3, [r1, #1]
	config->powersave    = false;
     352:	70cb      	strb	r3, [r1, #3]
		config.input_pull   = SYSTEM_PINMUX_PIN_PULL_NONE;
     354:	708b      	strb	r3, [r1, #2]
		config.mux_position = 1;
     356:	3301      	adds	r3, #1
     358:	700b      	strb	r3, [r1, #0]
		system_pinmux_pin_set_config(pin_map_result, &config);
     35a:	b2c0      	uxtb	r0, r0
     35c:	4b40      	ldr	r3, [pc, #256]	; (460 <adc_init+0x270>)
     35e:	4798      	blx	r3
     360:	e7e6      	b.n	330 <adc_init+0x140>
		pinmapping = pinmapping0;
     362:	ab06      	add	r3, sp, #24
		pin_map_result = pinmapping[pin >> ADC_INPUTCTRL_MUXPOS_Pos];
     364:	0089      	lsls	r1, r1, #2
     366:	58c8      	ldr	r0, [r1, r3]
	config->direction    = SYSTEM_PINMUX_PIN_DIR_INPUT;
     368:	a905      	add	r1, sp, #20
     36a:	2300      	movs	r3, #0
     36c:	704b      	strb	r3, [r1, #1]
	config->powersave    = false;
     36e:	70cb      	strb	r3, [r1, #3]
		config.input_pull   = SYSTEM_PINMUX_PIN_PULL_NONE;
     370:	708b      	strb	r3, [r1, #2]
		config.mux_position = 1;
     372:	464b      	mov	r3, r9
     374:	700b      	strb	r3, [r1, #0]
		system_pinmux_pin_set_config(pin_map_result, &config);
     376:	b2c0      	uxtb	r0, r0
     378:	4b39      	ldr	r3, [pc, #228]	; (460 <adc_init+0x270>)
     37a:	4798      	blx	r3
	for(uint8_t i=0;i <= _adc_extchannel_msb[index];i++){
     37c:	3601      	adds	r6, #1
     37e:	b2f6      	uxtb	r6, r6
     380:	0031      	movs	r1, r6
     382:	9b02      	ldr	r3, [sp, #8]
     384:	429e      	cmp	r6, r3
     386:	d823      	bhi.n	3d0 <adc_init+0x1e0>
		if(config->positive_input_sequence_mask_enable & (1 << i)){
     388:	464b      	mov	r3, r9
     38a:	40b3      	lsls	r3, r6
     38c:	693a      	ldr	r2, [r7, #16]
     38e:	421a      	tst	r2, r3
     390:	d0f4      	beq.n	37c <adc_init+0x18c>
	const uint32_t pinmapping0[] = {
     392:	a806      	add	r0, sp, #24
     394:	0003      	movs	r3, r0
     396:	4642      	mov	r2, r8
     398:	ca31      	ldmia	r2!, {r0, r4, r5}
     39a:	c331      	stmia	r3!, {r0, r4, r5}
     39c:	ca31      	ldmia	r2!, {r0, r4, r5}
     39e:	c331      	stmia	r3!, {r0, r4, r5}
     3a0:	ca31      	ldmia	r2!, {r0, r4, r5}
     3a2:	c331      	stmia	r3!, {r0, r4, r5}
     3a4:	ca31      	ldmia	r2!, {r0, r4, r5}
     3a6:	c331      	stmia	r3!, {r0, r4, r5}
	const uint32_t pinmapping1[] = {
     3a8:	a812      	add	r0, sp, #72	; 0x48
     3aa:	4643      	mov	r3, r8
     3ac:	3330      	adds	r3, #48	; 0x30
     3ae:	0002      	movs	r2, r0
     3b0:	cb31      	ldmia	r3!, {r0, r4, r5}
     3b2:	c231      	stmia	r2!, {r0, r4, r5}
     3b4:	cb31      	ldmia	r3!, {r0, r4, r5}
     3b6:	c231      	stmia	r2!, {r0, r4, r5}
     3b8:	cb31      	ldmia	r3!, {r0, r4, r5}
     3ba:	c231      	stmia	r2!, {r0, r4, r5}
     3bc:	cb31      	ldmia	r3!, {r0, r4, r5}
     3be:	c231      	stmia	r2!, {r0, r4, r5}
	switch(index) {
     3c0:	9a01      	ldr	r2, [sp, #4]
     3c2:	2a00      	cmp	r2, #0
     3c4:	d0cd      	beq.n	362 <adc_init+0x172>
		pinmapping = pinmapping1;
     3c6:	ab12      	add	r3, sp, #72	; 0x48
	switch(index) {
     3c8:	2a01      	cmp	r2, #1
     3ca:	d0cb      	beq.n	364 <adc_init+0x174>
	const uint32_t *pinmapping = NULL;;
     3cc:	2300      	movs	r3, #0
     3ce:	e7c9      	b.n	364 <adc_init+0x174>
     3d0:	465d      	mov	r5, fp
     3d2:	9c03      	ldr	r4, [sp, #12]
	adc_module->CTRLA.reg = ((config->run_in_standby << ADC_CTRLA_RUNSTDBY_Pos)
     3d4:	7b7b      	ldrb	r3, [r7, #13]
     3d6:	019b      	lsls	r3, r3, #6
						    | (config->on_demand << ADC_CTRLA_ONDEMAND_Pos)) ;
     3d8:	7bba      	ldrb	r2, [r7, #14]
     3da:	01d2      	lsls	r2, r2, #7
     3dc:	4313      	orrs	r3, r2
     3de:	b2db      	uxtb	r3, r3
	adc_module->CTRLA.reg = ((config->run_in_standby << ADC_CTRLA_RUNSTDBY_Pos)
     3e0:	4652      	mov	r2, sl
     3e2:	7013      	strb	r3, [r2, #0]
			(config->reference_compensation_enable << ADC_REFCTRL_REFCOMP_Pos)
     3e4:	7d3b      	ldrb	r3, [r7, #20]
     3e6:	01db      	lsls	r3, r3, #7
			| (config->reference);
     3e8:	787a      	ldrb	r2, [r7, #1]
     3ea:	4313      	orrs	r3, r2
     3ec:	b2db      	uxtb	r3, r3
	adc_module->REFCTRL.reg =
     3ee:	4652      	mov	r2, sl
     3f0:	7093      	strb	r3, [r2, #2]
	switch (config->resolution) {
     3f2:	78fb      	ldrb	r3, [r7, #3]
     3f4:	2b34      	cmp	r3, #52	; 0x34
     3f6:	d900      	bls.n	3fa <adc_init+0x20a>
     3f8:	e14e      	b.n	698 <adc_init+0x4a8>
     3fa:	009b      	lsls	r3, r3, #2
     3fc:	4a19      	ldr	r2, [pc, #100]	; (464 <adc_init+0x274>)
     3fe:	58d3      	ldr	r3, [r2, r3]
     400:	469f      	mov	pc, r3
		accumulate = ADC_ACCUMULATE_SAMPLES_16;
     402:	2204      	movs	r2, #4
		resolution = ADC_RESOLUTION_16BIT;
     404:	2610      	movs	r6, #16
		adjres = ADC_DIVIDE_RESULT_4;
     406:	2102      	movs	r1, #2
     408:	e031      	b.n	46e <adc_init+0x27e>
		adjres = config->divide_result;
     40a:	7a79      	ldrb	r1, [r7, #9]
		accumulate = config->accumulate_samples;
     40c:	7a3a      	ldrb	r2, [r7, #8]
		resolution = ADC_RESOLUTION_16BIT;
     40e:	2610      	movs	r6, #16
     410:	e02d      	b.n	46e <adc_init+0x27e>
		accumulate = ADC_ACCUMULATE_SAMPLES_64;
     412:	2206      	movs	r2, #6
		resolution = ADC_RESOLUTION_16BIT;
     414:	2610      	movs	r6, #16
		adjres = ADC_DIVIDE_RESULT_2;
     416:	2101      	movs	r1, #1
     418:	e029      	b.n	46e <adc_init+0x27e>
		accumulate = ADC_ACCUMULATE_SAMPLES_256;
     41a:	2208      	movs	r2, #8
		resolution = ADC_RESOLUTION_16BIT;
     41c:	2610      	movs	r6, #16
		adjres = ADC_DIVIDE_RESULT_DISABLE;
     41e:	2100      	movs	r1, #0
     420:	e025      	b.n	46e <adc_init+0x27e>
	enum adc_accumulate_samples accumulate = ADC_ACCUMULATE_DISABLE;
     422:	2200      	movs	r2, #0
		resolution = ADC_RESOLUTION_8BIT;
     424:	2630      	movs	r6, #48	; 0x30
	uint8_t adjres = 0;
     426:	2100      	movs	r1, #0
     428:	e021      	b.n	46e <adc_init+0x27e>
	enum adc_accumulate_samples accumulate = ADC_ACCUMULATE_DISABLE;
     42a:	2200      	movs	r2, #0
		resolution = ADC_RESOLUTION_10BIT;
     42c:	2620      	movs	r6, #32
	uint8_t adjres = 0;
     42e:	2100      	movs	r1, #0
     430:	e01d      	b.n	46e <adc_init+0x27e>
	enum adc_accumulate_samples accumulate = ADC_ACCUMULATE_DISABLE;
     432:	2200      	movs	r2, #0
		resolution = ADC_RESOLUTION_12BIT;
     434:	2600      	movs	r6, #0
	uint8_t adjres = 0;
     436:	2100      	movs	r1, #0
     438:	e019      	b.n	46e <adc_init+0x27e>
     43a:	46c0      	nop			; (mov r8, r8)
     43c:	00000189 	.word	0x00000189
     440:	40000800 	.word	0x40000800
     444:	00001938 	.word	0x00001938
     448:	40001800 	.word	0x40001800
     44c:	00001960 	.word	0x00001960
     450:	000010ed 	.word	0x000010ed
     454:	0000107d 	.word	0x0000107d
     458:	000018d8 	.word	0x000018d8
     45c:	00001958 	.word	0x00001958
     460:	000011b9 	.word	0x000011b9
     464:	00001804 	.word	0x00001804
		accumulate = ADC_ACCUMULATE_SAMPLES_4;
     468:	2202      	movs	r2, #2
		resolution = ADC_RESOLUTION_16BIT;
     46a:	2610      	movs	r6, #16
		adjres = ADC_DIVIDE_RESULT_2;
     46c:	2101      	movs	r1, #1
	adc_module->AVGCTRL.reg = ADC_AVGCTRL_ADJRES(adjres) | accumulate;
     46e:	0109      	lsls	r1, r1, #4
     470:	2370      	movs	r3, #112	; 0x70
     472:	400b      	ands	r3, r1
     474:	4313      	orrs	r3, r2
     476:	4652      	mov	r2, sl
     478:	7313      	strb	r3, [r2, #12]
	Adc *const adc_module = module_inst->hw;
     47a:	682a      	ldr	r2, [r5, #0]
	if (adc_module->SYNCBUSY.reg) {
     47c:	8c13      	ldrh	r3, [r2, #32]
     47e:	b29b      	uxth	r3, r3
	while (adc_is_syncing(module_inst)) {
     480:	2b00      	cmp	r3, #0
     482:	d1fb      	bne.n	47c <adc_init+0x28c>
	if (config->sample_length > 63) {
     484:	7d7b      	ldrb	r3, [r7, #21]
		return STATUS_ERR_INVALID_ARG;
     486:	2017      	movs	r0, #23
	if (config->sample_length > 63) {
     488:	2b3f      	cmp	r3, #63	; 0x3f
     48a:	d900      	bls.n	48e <adc_init+0x29e>
     48c:	e6cb      	b.n	226 <adc_init+0x36>
				| (config->sampling_time_compensation_enable << ADC_SAMPCTRL_OFFCOMP_Pos);
     48e:	7bfa      	ldrb	r2, [r7, #15]
     490:	01d2      	lsls	r2, r2, #7
     492:	4313      	orrs	r3, r2
     494:	b2db      	uxtb	r3, r3
		adc_module->SAMPCTRL.reg =
     496:	4652      	mov	r2, sl
     498:	7353      	strb	r3, [r2, #13]
	Adc *const adc_module = module_inst->hw;
     49a:	682a      	ldr	r2, [r5, #0]
	if (adc_module->SYNCBUSY.reg) {
     49c:	8c13      	ldrh	r3, [r2, #32]
     49e:	b29b      	uxth	r3, r3
	while (adc_is_syncing(module_inst)) {
     4a0:	2b00      	cmp	r3, #0
     4a2:	d1fb      	bne.n	49c <adc_init+0x2ac>
			config->clock_prescaler;
     4a4:	78bb      	ldrb	r3, [r7, #2]
	adc_module->CTRLB.reg =
     4a6:	4652      	mov	r2, sl
     4a8:	7053      	strb	r3, [r2, #1]
			(config->correction.correction_enable << ADC_CTRLC_CORREN_Pos) |
     4aa:	2324      	movs	r3, #36	; 0x24
     4ac:	5cfb      	ldrb	r3, [r7, r3]
     4ae:	00db      	lsls	r3, r3, #3
			(config->freerunning << ADC_CTRLC_FREERUN_Pos) |
     4b0:	7b3a      	ldrb	r2, [r7, #12]
     4b2:	0092      	lsls	r2, r2, #2
			(config->left_adjust << ADC_CTRLC_LEFTADJ_Pos) |
     4b4:	431a      	orrs	r2, r3
			(config->differential_mode << ADC_CTRLC_DIFFMODE_Pos);
     4b6:	7afb      	ldrb	r3, [r7, #11]
			(config->left_adjust << ADC_CTRLC_LEFTADJ_Pos) |
     4b8:	4313      	orrs	r3, r2
     4ba:	7aba      	ldrb	r2, [r7, #10]
     4bc:	0052      	lsls	r2, r2, #1
     4be:	4313      	orrs	r3, r2
     4c0:	4333      	orrs	r3, r6
	adc_module->CTRLC.reg =
     4c2:	4652      	mov	r2, sl
     4c4:	8153      	strh	r3, [r2, #10]
	Adc *const adc_module = module_inst->hw;
     4c6:	682a      	ldr	r2, [r5, #0]
	if (adc_module->SYNCBUSY.reg) {
     4c8:	8c13      	ldrh	r3, [r2, #32]
     4ca:	b29b      	uxth	r3, r3
	while (adc_is_syncing(module_inst)) {
     4cc:	2b00      	cmp	r3, #0
     4ce:	d1fb      	bne.n	4c8 <adc_init+0x2d8>
	if (config->window.window_mode != ADC_WINDOW_MODE_DISABLE) {
     4d0:	8b3b      	ldrh	r3, [r7, #24]
     4d2:	2b00      	cmp	r3, #0
     4d4:	d020      	beq.n	518 <adc_init+0x328>
		switch (resolution) {
     4d6:	2e10      	cmp	r6, #16
     4d8:	d100      	bne.n	4dc <adc_init+0x2ec>
     4da:	e0bf      	b.n	65c <adc_init+0x46c>
     4dc:	d800      	bhi.n	4e0 <adc_init+0x2f0>
     4de:	e07f      	b.n	5e0 <adc_init+0x3f0>
     4e0:	2e20      	cmp	r6, #32
     4e2:	d100      	bne.n	4e6 <adc_init+0x2f6>
     4e4:	e09c      	b.n	620 <adc_init+0x430>
     4e6:	2e30      	cmp	r6, #48	; 0x30
     4e8:	d116      	bne.n	518 <adc_init+0x328>
			if (config->differential_mode &&
     4ea:	7afa      	ldrb	r2, [r7, #11]
     4ec:	2a00      	cmp	r2, #0
     4ee:	d00a      	beq.n	506 <adc_init+0x316>
					(config->window.window_lower_value > 127 ||
     4f0:	69fa      	ldr	r2, [r7, #28]
     4f2:	3280      	adds	r2, #128	; 0x80
				return STATUS_ERR_INVALID_ARG;
     4f4:	2017      	movs	r0, #23
			if (config->differential_mode &&
     4f6:	2aff      	cmp	r2, #255	; 0xff
     4f8:	d900      	bls.n	4fc <adc_init+0x30c>
     4fa:	e694      	b.n	226 <adc_init+0x36>
					config->window.window_lower_value < -128 ||
     4fc:	6a3a      	ldr	r2, [r7, #32]
     4fe:	3280      	adds	r2, #128	; 0x80
     500:	2aff      	cmp	r2, #255	; 0xff
     502:	d900      	bls.n	506 <adc_init+0x316>
     504:	e68f      	b.n	226 <adc_init+0x36>
				return STATUS_ERR_INVALID_ARG;
     506:	2017      	movs	r0, #23
			} else if (config->window.window_lower_value > 255 ||
     508:	69fa      	ldr	r2, [r7, #28]
     50a:	2aff      	cmp	r2, #255	; 0xff
     50c:	dd00      	ble.n	510 <adc_init+0x320>
     50e:	e68a      	b.n	226 <adc_init+0x36>
     510:	6a3a      	ldr	r2, [r7, #32]
     512:	2aff      	cmp	r2, #255	; 0xff
     514:	dd00      	ble.n	518 <adc_init+0x328>
     516:	e686      	b.n	226 <adc_init+0x36>
	adc_module->CTRLC.reg |= config->window.window_mode;
     518:	4652      	mov	r2, sl
     51a:	8952      	ldrh	r2, [r2, #10]
     51c:	4313      	orrs	r3, r2
     51e:	4652      	mov	r2, sl
     520:	8153      	strh	r3, [r2, #10]
	Adc *const adc_module = module_inst->hw;
     522:	682a      	ldr	r2, [r5, #0]
	if (adc_module->SYNCBUSY.reg) {
     524:	8c13      	ldrh	r3, [r2, #32]
     526:	b29b      	uxth	r3, r3
	while (adc_is_syncing(module_inst)) {
     528:	2b00      	cmp	r3, #0
     52a:	d1fb      	bne.n	524 <adc_init+0x334>
	adc_module->WINLT.reg =
     52c:	8bbb      	ldrh	r3, [r7, #28]
     52e:	4652      	mov	r2, sl
     530:	81d3      	strh	r3, [r2, #14]
	Adc *const adc_module = module_inst->hw;
     532:	682a      	ldr	r2, [r5, #0]
	if (adc_module->SYNCBUSY.reg) {
     534:	8c13      	ldrh	r3, [r2, #32]
     536:	b29b      	uxth	r3, r3
	while (adc_is_syncing(module_inst)) {
     538:	2b00      	cmp	r3, #0
     53a:	d1fb      	bne.n	534 <adc_init+0x344>
	adc_module->WINUT.reg = config->window.window_upper_value <<
     53c:	8c3b      	ldrh	r3, [r7, #32]
     53e:	4652      	mov	r2, sl
     540:	8213      	strh	r3, [r2, #16]
	Adc *const adc_module = module_inst->hw;
     542:	682a      	ldr	r2, [r5, #0]
	if (adc_module->SYNCBUSY.reg) {
     544:	8c13      	ldrh	r3, [r2, #32]
     546:	b29b      	uxth	r3, r3
	while (adc_is_syncing(module_inst)) {
     548:	2b00      	cmp	r3, #0
     54a:	d1fb      	bne.n	544 <adc_init+0x354>
			config->positive_input;
     54c:	793b      	ldrb	r3, [r7, #4]
			config->negative_input |
     54e:	88fa      	ldrh	r2, [r7, #6]
     550:	4313      	orrs	r3, r2
	adc_module->INPUTCTRL.reg =
     552:	4652      	mov	r2, sl
     554:	8113      	strh	r3, [r2, #8]
	Adc *const adc_module = module_inst->hw;
     556:	682a      	ldr	r2, [r5, #0]
	if (adc_module->SYNCBUSY.reg) {
     558:	8c13      	ldrh	r3, [r2, #32]
     55a:	b29b      	uxth	r3, r3
	while (adc_is_syncing(module_inst)) {
     55c:	2b00      	cmp	r3, #0
     55e:	d1fb      	bne.n	558 <adc_init+0x368>
	adc_module->EVCTRL.reg = config->event_action;
     560:	332a      	adds	r3, #42	; 0x2a
     562:	5cfb      	ldrb	r3, [r7, r3]
     564:	4652      	mov	r2, sl
     566:	70d3      	strb	r3, [r2, #3]
	adc_module->INTENCLR.reg =
     568:	2307      	movs	r3, #7
     56a:	7113      	strb	r3, [r2, #4]
	if (config->correction.correction_enable){
     56c:	331d      	adds	r3, #29
     56e:	5cfb      	ldrb	r3, [r7, r3]
     570:	2b00      	cmp	r3, #0
     572:	d01d      	beq.n	5b0 <adc_init+0x3c0>
		if (config->correction.gain_correction > ADC_GAINCORR_GAINCORR_Msk) {
     574:	8cfb      	ldrh	r3, [r7, #38]	; 0x26
     576:	4a49      	ldr	r2, [pc, #292]	; (69c <adc_init+0x4ac>)
			return STATUS_ERR_INVALID_ARG;
     578:	2017      	movs	r0, #23
		if (config->correction.gain_correction > ADC_GAINCORR_GAINCORR_Msk) {
     57a:	4293      	cmp	r3, r2
     57c:	d900      	bls.n	580 <adc_init+0x390>
     57e:	e652      	b.n	226 <adc_init+0x36>
			adc_module->GAINCORR.reg = config->correction.gain_correction <<
     580:	4652      	mov	r2, sl
     582:	8253      	strh	r3, [r2, #18]
	Adc *const adc_module = module_inst->hw;
     584:	682a      	ldr	r2, [r5, #0]
	if (adc_module->SYNCBUSY.reg) {
     586:	8c13      	ldrh	r3, [r2, #32]
     588:	b29b      	uxth	r3, r3
		while (adc_is_syncing(module_inst)) {
     58a:	2b00      	cmp	r3, #0
     58c:	d1fb      	bne.n	586 <adc_init+0x396>
		if (config->correction.offset_correction > 2047 ||
     58e:	8d3a      	ldrh	r2, [r7, #40]	; 0x28
     590:	2380      	movs	r3, #128	; 0x80
     592:	011b      	lsls	r3, r3, #4
     594:	18d3      	adds	r3, r2, r3
     596:	4941      	ldr	r1, [pc, #260]	; (69c <adc_init+0x4ac>)
     598:	b29b      	uxth	r3, r3
			return STATUS_ERR_INVALID_ARG;
     59a:	2017      	movs	r0, #23
		if (config->correction.offset_correction > 2047 ||
     59c:	428b      	cmp	r3, r1
     59e:	d900      	bls.n	5a2 <adc_init+0x3b2>
     5a0:	e641      	b.n	226 <adc_init+0x36>
			adc_module->OFFSETCORR.reg = config->correction.offset_correction <<
     5a2:	4653      	mov	r3, sl
     5a4:	829a      	strh	r2, [r3, #20]
	Adc *const adc_module = module_inst->hw;
     5a6:	682a      	ldr	r2, [r5, #0]
	if (adc_module->SYNCBUSY.reg) {
     5a8:	8c13      	ldrh	r3, [r2, #32]
     5aa:	b29b      	uxth	r3, r3
		while (adc_is_syncing(module_inst)) {
     5ac:	2b00      	cmp	r3, #0
     5ae:	d1fb      	bne.n	5a8 <adc_init+0x3b8>
			ADC_CALIB_BIASREFBUF(
     5b0:	00a2      	lsls	r2, r4, #2
     5b2:	4b3b      	ldr	r3, [pc, #236]	; (6a0 <adc_init+0x4b0>)
     5b4:	58d3      	ldr	r3, [r2, r3]
     5b6:	493b      	ldr	r1, [pc, #236]	; (6a4 <adc_init+0x4b4>)
     5b8:	5d09      	ldrb	r1, [r1, r4]
     5ba:	681b      	ldr	r3, [r3, #0]
     5bc:	40cb      	lsrs	r3, r1
     5be:	021b      	lsls	r3, r3, #8
     5c0:	21e0      	movs	r1, #224	; 0xe0
     5c2:	00c9      	lsls	r1, r1, #3
     5c4:	400b      	ands	r3, r1
			ADC_CALIB_BIASCOMP(
     5c6:	4938      	ldr	r1, [pc, #224]	; (6a8 <adc_init+0x4b8>)
     5c8:	5852      	ldr	r2, [r2, r1]
     5ca:	4938      	ldr	r1, [pc, #224]	; (6ac <adc_init+0x4bc>)
     5cc:	5d09      	ldrb	r1, [r1, r4]
     5ce:	6812      	ldr	r2, [r2, #0]
     5d0:	40ca      	lsrs	r2, r1
     5d2:	2107      	movs	r1, #7
     5d4:	400a      	ands	r2, r1
			) |
     5d6:	4313      	orrs	r3, r2
	adc_module->CALIB.reg =
     5d8:	4652      	mov	r2, sl
     5da:	8593      	strh	r3, [r2, #44]	; 0x2c
	return STATUS_OK;
     5dc:	2000      	movs	r0, #0
     5de:	e622      	b.n	226 <adc_init+0x36>
		switch (resolution) {
     5e0:	2e00      	cmp	r6, #0
     5e2:	d199      	bne.n	518 <adc_init+0x328>
			if (config->differential_mode &&
     5e4:	7afa      	ldrb	r2, [r7, #11]
     5e6:	2a00      	cmp	r2, #0
     5e8:	d00f      	beq.n	60a <adc_init+0x41a>
					(config->window.window_lower_value > 2047 ||
     5ea:	69fa      	ldr	r2, [r7, #28]
     5ec:	2180      	movs	r1, #128	; 0x80
     5ee:	0109      	lsls	r1, r1, #4
     5f0:	468c      	mov	ip, r1
     5f2:	4462      	add	r2, ip
			if (config->differential_mode &&
     5f4:	4929      	ldr	r1, [pc, #164]	; (69c <adc_init+0x4ac>)
				return STATUS_ERR_INVALID_ARG;
     5f6:	2017      	movs	r0, #23
			if (config->differential_mode &&
     5f8:	428a      	cmp	r2, r1
     5fa:	d900      	bls.n	5fe <adc_init+0x40e>
     5fc:	e613      	b.n	226 <adc_init+0x36>
					config->window.window_lower_value < -2048 ||
     5fe:	6a3a      	ldr	r2, [r7, #32]
     600:	4462      	add	r2, ip
     602:	4926      	ldr	r1, [pc, #152]	; (69c <adc_init+0x4ac>)
     604:	428a      	cmp	r2, r1
     606:	d900      	bls.n	60a <adc_init+0x41a>
     608:	e60d      	b.n	226 <adc_init+0x36>
			} else if (config->window.window_lower_value > 4095 ||
     60a:	4a24      	ldr	r2, [pc, #144]	; (69c <adc_init+0x4ac>)
				return STATUS_ERR_INVALID_ARG;
     60c:	2017      	movs	r0, #23
			} else if (config->window.window_lower_value > 4095 ||
     60e:	69f9      	ldr	r1, [r7, #28]
     610:	4291      	cmp	r1, r2
     612:	dd00      	ble.n	616 <adc_init+0x426>
     614:	e607      	b.n	226 <adc_init+0x36>
     616:	6a39      	ldr	r1, [r7, #32]
     618:	4291      	cmp	r1, r2
     61a:	dd00      	ble.n	61e <adc_init+0x42e>
     61c:	e603      	b.n	226 <adc_init+0x36>
     61e:	e77b      	b.n	518 <adc_init+0x328>
			if (config->differential_mode &&
     620:	7afa      	ldrb	r2, [r7, #11]
     622:	2a00      	cmp	r2, #0
     624:	d00f      	beq.n	646 <adc_init+0x456>
					(config->window.window_lower_value > 511 ||
     626:	69fa      	ldr	r2, [r7, #28]
     628:	2180      	movs	r1, #128	; 0x80
     62a:	0089      	lsls	r1, r1, #2
     62c:	468c      	mov	ip, r1
     62e:	4462      	add	r2, ip
			if (config->differential_mode &&
     630:	491f      	ldr	r1, [pc, #124]	; (6b0 <adc_init+0x4c0>)
				return STATUS_ERR_INVALID_ARG;
     632:	2017      	movs	r0, #23
			if (config->differential_mode &&
     634:	428a      	cmp	r2, r1
     636:	d900      	bls.n	63a <adc_init+0x44a>
     638:	e5f5      	b.n	226 <adc_init+0x36>
					config->window.window_lower_value < -512 ||
     63a:	6a3a      	ldr	r2, [r7, #32]
     63c:	4462      	add	r2, ip
     63e:	491c      	ldr	r1, [pc, #112]	; (6b0 <adc_init+0x4c0>)
     640:	428a      	cmp	r2, r1
     642:	d900      	bls.n	646 <adc_init+0x456>
     644:	e5ef      	b.n	226 <adc_init+0x36>
			} else if (config->window.window_lower_value > 1023 ||
     646:	4a1a      	ldr	r2, [pc, #104]	; (6b0 <adc_init+0x4c0>)
				return STATUS_ERR_INVALID_ARG;
     648:	2017      	movs	r0, #23
			} else if (config->window.window_lower_value > 1023 ||
     64a:	69f9      	ldr	r1, [r7, #28]
     64c:	4291      	cmp	r1, r2
     64e:	dd00      	ble.n	652 <adc_init+0x462>
     650:	e5e9      	b.n	226 <adc_init+0x36>
     652:	6a39      	ldr	r1, [r7, #32]
     654:	4291      	cmp	r1, r2
     656:	dd00      	ble.n	65a <adc_init+0x46a>
     658:	e5e5      	b.n	226 <adc_init+0x36>
     65a:	e75d      	b.n	518 <adc_init+0x328>
			if (config->differential_mode &&
     65c:	7afa      	ldrb	r2, [r7, #11]
     65e:	2a00      	cmp	r2, #0
     660:	d00f      	beq.n	682 <adc_init+0x492>
					(config->window.window_lower_value > 32767 ||
     662:	69fa      	ldr	r2, [r7, #28]
     664:	2180      	movs	r1, #128	; 0x80
     666:	0209      	lsls	r1, r1, #8
     668:	468c      	mov	ip, r1
     66a:	4462      	add	r2, ip
			if (config->differential_mode &&
     66c:	4911      	ldr	r1, [pc, #68]	; (6b4 <adc_init+0x4c4>)
				return STATUS_ERR_INVALID_ARG;
     66e:	2017      	movs	r0, #23
			if (config->differential_mode &&
     670:	428a      	cmp	r2, r1
     672:	d900      	bls.n	676 <adc_init+0x486>
     674:	e5d7      	b.n	226 <adc_init+0x36>
					config->window.window_lower_value < -32768 ||
     676:	6a3a      	ldr	r2, [r7, #32]
     678:	4462      	add	r2, ip
     67a:	490e      	ldr	r1, [pc, #56]	; (6b4 <adc_init+0x4c4>)
     67c:	428a      	cmp	r2, r1
     67e:	d900      	bls.n	682 <adc_init+0x492>
     680:	e5d1      	b.n	226 <adc_init+0x36>
			} else if (config->window.window_lower_value > 65535 ||
     682:	4a0c      	ldr	r2, [pc, #48]	; (6b4 <adc_init+0x4c4>)
				return STATUS_ERR_INVALID_ARG;
     684:	2017      	movs	r0, #23
			} else if (config->window.window_lower_value > 65535 ||
     686:	69f9      	ldr	r1, [r7, #28]
     688:	4291      	cmp	r1, r2
     68a:	dd00      	ble.n	68e <adc_init+0x49e>
     68c:	e5cb      	b.n	226 <adc_init+0x36>
     68e:	6a39      	ldr	r1, [r7, #32]
     690:	4291      	cmp	r1, r2
     692:	dd00      	ble.n	696 <adc_init+0x4a6>
     694:	e5c7      	b.n	226 <adc_init+0x36>
     696:	e73f      	b.n	518 <adc_init+0x328>
		return STATUS_ERR_INVALID_ARG;
     698:	2017      	movs	r0, #23
     69a:	e5c4      	b.n	226 <adc_init+0x36>
     69c:	00000fff 	.word	0x00000fff
     6a0:	0000194c 	.word	0x0000194c
     6a4:	00001954 	.word	0x00001954
     6a8:	00001940 	.word	0x00001940
     6ac:	00001948 	.word	0x00001948
     6b0:	000003ff 	.word	0x000003ff
     6b4:	0000ffff 	.word	0x0000ffff

000006b8 <_can_enable_peripheral_clock>:
	hw->TXEFC.reg |= CAN_TXEFC_EFWM(config->tx_event_fifo_watermark);
}

static void _can_enable_peripheral_clock(struct can_module *const module_inst)
{
	if (module_inst->hw == CAN0) {
     6b8:	6803      	ldr	r3, [r0, #0]
     6ba:	4a0a      	ldr	r2, [pc, #40]	; (6e4 <_can_enable_peripheral_clock+0x2c>)
     6bc:	4293      	cmp	r3, r2
     6be:	d003      	beq.n	6c8 <_can_enable_peripheral_clock+0x10>
		/* Turn on the digital interface clock. */
		system_ahb_clock_set_mask(MCLK_AHBMASK_CAN0);
	} else if (module_inst->hw == CAN1) {
     6c0:	4a09      	ldr	r2, [pc, #36]	; (6e8 <_can_enable_peripheral_clock+0x30>)
     6c2:	4293      	cmp	r3, r2
     6c4:	d007      	beq.n	6d6 <_can_enable_peripheral_clock+0x1e>
		/* Turn on the digital interface clock. */
		system_ahb_clock_set_mask(MCLK_AHBMASK_CAN1);
	}
}
     6c6:	4770      	bx	lr
	MCLK->AHBMASK.reg |= ahb_mask;
     6c8:	4a08      	ldr	r2, [pc, #32]	; (6ec <_can_enable_peripheral_clock+0x34>)
     6ca:	6911      	ldr	r1, [r2, #16]
     6cc:	2380      	movs	r3, #128	; 0x80
     6ce:	005b      	lsls	r3, r3, #1
     6d0:	430b      	orrs	r3, r1
     6d2:	6113      	str	r3, [r2, #16]
     6d4:	e7f7      	b.n	6c6 <_can_enable_peripheral_clock+0xe>
     6d6:	4a05      	ldr	r2, [pc, #20]	; (6ec <_can_enable_peripheral_clock+0x34>)
     6d8:	6911      	ldr	r1, [r2, #16]
     6da:	2380      	movs	r3, #128	; 0x80
     6dc:	009b      	lsls	r3, r3, #2
     6de:	430b      	orrs	r3, r1
     6e0:	6113      	str	r3, [r2, #16]
     6e2:	e7f0      	b.n	6c6 <_can_enable_peripheral_clock+0xe>
     6e4:	42001c00 	.word	0x42001c00
     6e8:	42002000 	.word	0x42002000
     6ec:	40000800 	.word	0x40000800

000006f0 <can_init>:

void can_init(struct can_module *const module_inst, Can *hw,
		struct can_config *config)
{
     6f0:	b570      	push	{r4, r5, r6, lr}
     6f2:	000c      	movs	r4, r1
     6f4:	0015      	movs	r5, r2
	Assert(module_inst);
	Assert(hw);
	Assert(config);

	/* Associate the software module instance with the hardware module */
	module_inst->hw = hw;
     6f6:	6001      	str	r1, [r0, #0]

	/* Enable peripheral clock */
	_can_enable_peripheral_clock(module_inst);
     6f8:	4ba5      	ldr	r3, [pc, #660]	; (990 <can_init+0x2a0>)
     6fa:	4798      	blx	r3
{
	/* Sanity check arguments */
	Assert(config);

	/* Default configuration values */
	config->source_generator = GCLK_GENERATOR_0;
     6fc:	4ba5      	ldr	r3, [pc, #660]	; (994 <can_init+0x2a4>)
     6fe:	2200      	movs	r2, #0
     700:	701a      	strb	r2, [r3, #0]

	/* Configure GCLK channel */
	system_gclk_chan_get_config_defaults(&gclk_chan_conf);
	gclk_chan_conf.source_generator = config->clock_source;
     702:	782a      	ldrb	r2, [r5, #0]
     704:	701a      	strb	r2, [r3, #0]

	if (hw == CAN0) {
     706:	4ba4      	ldr	r3, [pc, #656]	; (998 <can_init+0x2a8>)
     708:	429c      	cmp	r4, r3
     70a:	d100      	bne.n	70e <can_init+0x1e>
     70c:	e0c6      	b.n	89c <can_init+0x1ac>
		system_gclk_chan_set_config(CAN0_GCLK_ID, &gclk_chan_conf);
		system_gclk_chan_enable(CAN0_GCLK_ID);
	} else if (hw == CAN1) {
     70e:	4ba3      	ldr	r3, [pc, #652]	; (99c <can_init+0x2ac>)
     710:	429c      	cmp	r4, r3
     712:	d100      	bne.n	716 <can_init+0x26>
     714:	e0ff      	b.n	916 <can_init+0x226>
		system_gclk_chan_enable(CAN1_GCLK_ID);
	}


	/* Configuration Change Enable. */
	hw->CCCR.reg |= CAN_CCCR_CCE;
     716:	69a3      	ldr	r3, [r4, #24]
     718:	2202      	movs	r2, #2
     71a:	4313      	orrs	r3, r2
     71c:	61a3      	str	r3, [r4, #24]
		hw->RXESC.reg = CAN_RXESC_RBDS((CONF_CAN_ELEMENT_DATA_SIZE - 8) / 4) |
     71e:	2300      	movs	r3, #0
     720:	22bc      	movs	r2, #188	; 0xbc
     722:	50a3      	str	r3, [r4, r2]
		hw->TXESC.reg = CAN_TXESC_TBDS((CONF_CAN_ELEMENT_DATA_SIZE - 8) / 4);
     724:	320c      	adds	r2, #12
     726:	50a3      	str	r3, [r4, r2]
	hw->NBTP.reg = CAN_NBTP_NBRP(CONF_CAN_NBTP_NBRP_VALUE) |
     728:	4b9d      	ldr	r3, [pc, #628]	; (9a0 <can_init+0x2b0>)
     72a:	61e3      	str	r3, [r4, #28]
	hw->DBTP.reg = CAN_DBTP_DBRP(CONF_CAN_DBTP_DBRP_VALUE) |
     72c:	4b9d      	ldr	r3, [pc, #628]	; (9a4 <can_init+0x2b4>)
     72e:	60e3      	str	r3, [r4, #12]
	if (config->tdc_enable) {
     730:	7bab      	ldrb	r3, [r5, #14]
     732:	2b00      	cmp	r3, #0
     734:	d004      	beq.n	740 <can_init+0x50>
		hw->DBTP.reg |= CAN_DBTP_TDC;
     736:	68e2      	ldr	r2, [r4, #12]
     738:	2380      	movs	r3, #128	; 0x80
     73a:	041b      	lsls	r3, r3, #16
     73c:	4313      	orrs	r3, r2
     73e:	60e3      	str	r3, [r4, #12]
	if (config->run_in_standby) {
     740:	786b      	ldrb	r3, [r5, #1]
     742:	2b00      	cmp	r3, #0
     744:	d003      	beq.n	74e <can_init+0x5e>
		hw->MRCFG.reg |= 0x01<<6;
     746:	68a3      	ldr	r3, [r4, #8]
     748:	2240      	movs	r2, #64	; 0x40
     74a:	4313      	orrs	r3, r2
     74c:	60a3      	str	r3, [r4, #8]
	hw->RWD.reg |= CAN_RWD_WDC(config->watchdog_configuration);
     74e:	6962      	ldr	r2, [r4, #20]
     750:	78ab      	ldrb	r3, [r5, #2]
     752:	4313      	orrs	r3, r2
     754:	6163      	str	r3, [r4, #20]
	if (config->transmit_pause) {
     756:	78eb      	ldrb	r3, [r5, #3]
     758:	2b00      	cmp	r3, #0
     75a:	d004      	beq.n	766 <can_init+0x76>
		hw->CCCR.reg |= CAN_CCCR_TXP;
     75c:	69a2      	ldr	r2, [r4, #24]
     75e:	2380      	movs	r3, #128	; 0x80
     760:	01db      	lsls	r3, r3, #7
     762:	4313      	orrs	r3, r2
     764:	61a3      	str	r3, [r4, #24]
	if (config->edge_filtering) {
     766:	792b      	ldrb	r3, [r5, #4]
     768:	2b00      	cmp	r3, #0
     76a:	d004      	beq.n	776 <can_init+0x86>
		hw->CCCR.reg |= CAN_CCCR_EFBI;
     76c:	69a2      	ldr	r2, [r4, #24]
     76e:	2380      	movs	r3, #128	; 0x80
     770:	019b      	lsls	r3, r3, #6
     772:	4313      	orrs	r3, r2
     774:	61a3      	str	r3, [r4, #24]
	if (config->protocol_exception_handling) {
     776:	796b      	ldrb	r3, [r5, #5]
     778:	2b00      	cmp	r3, #0
     77a:	d004      	beq.n	786 <can_init+0x96>
		hw->CCCR.reg |= CAN_CCCR_PXHD;
     77c:	69a2      	ldr	r2, [r4, #24]
     77e:	2380      	movs	r3, #128	; 0x80
     780:	015b      	lsls	r3, r3, #5
     782:	4313      	orrs	r3, r2
     784:	61a3      	str	r3, [r4, #24]
	if (!config->automatic_retransmission) {
     786:	79ab      	ldrb	r3, [r5, #6]
     788:	2b00      	cmp	r3, #0
     78a:	d103      	bne.n	794 <can_init+0xa4>
		hw->CCCR.reg |= CAN_CCCR_DAR;
     78c:	69a3      	ldr	r3, [r4, #24]
     78e:	2240      	movs	r2, #64	; 0x40
     790:	4313      	orrs	r3, r2
     792:	61a3      	str	r3, [r4, #24]
	if (config->clock_stop_request) {
     794:	79eb      	ldrb	r3, [r5, #7]
     796:	2b00      	cmp	r3, #0
     798:	d003      	beq.n	7a2 <can_init+0xb2>
		hw->CCCR.reg |= CAN_CCCR_CSR;
     79a:	69a3      	ldr	r3, [r4, #24]
     79c:	2210      	movs	r2, #16
     79e:	4313      	orrs	r3, r2
     7a0:	61a3      	str	r3, [r4, #24]
	if (config->clock_stop_acknowledge) {
     7a2:	7a2b      	ldrb	r3, [r5, #8]
     7a4:	2b00      	cmp	r3, #0
     7a6:	d003      	beq.n	7b0 <can_init+0xc0>
		hw->CCCR.reg |= CAN_CCCR_CSA;
     7a8:	69a3      	ldr	r3, [r4, #24]
     7aa:	2208      	movs	r2, #8
     7ac:	4313      	orrs	r3, r2
     7ae:	61a3      	str	r3, [r4, #24]
	hw->TSCC.reg = CAN_TSCC_TCP(config->timestamp_prescaler) |
     7b0:	7a6b      	ldrb	r3, [r5, #9]
     7b2:	041b      	lsls	r3, r3, #16
     7b4:	22f0      	movs	r2, #240	; 0xf0
     7b6:	0312      	lsls	r2, r2, #12
     7b8:	4013      	ands	r3, r2
     7ba:	2201      	movs	r2, #1
     7bc:	4313      	orrs	r3, r2
     7be:	6223      	str	r3, [r4, #32]
			config->timeout_mode | config->timeout_enable;
     7c0:	7b2b      	ldrb	r3, [r5, #12]
     7c2:	7b6a      	ldrb	r2, [r5, #13]
     7c4:	4313      	orrs	r3, r2
	hw->TOCC.reg = CAN_TOCC_TOP(config->timeout_period) |
     7c6:	896a      	ldrh	r2, [r5, #10]
     7c8:	0412      	lsls	r2, r2, #16
			config->timeout_mode | config->timeout_enable;
     7ca:	4313      	orrs	r3, r2
	hw->TOCC.reg = CAN_TOCC_TOP(config->timeout_period) |
     7cc:	62a3      	str	r3, [r4, #40]	; 0x28
	hw->TDCR.reg = CAN_TDCR_TDCO(config->delay_compensation_offset) |
     7ce:	7beb      	ldrb	r3, [r5, #15]
     7d0:	021b      	lsls	r3, r3, #8
     7d2:	22fe      	movs	r2, #254	; 0xfe
     7d4:	01d2      	lsls	r2, r2, #7
     7d6:	4013      	ands	r3, r2
			CAN_TDCR_TDCF(config->delay_compensation_filter_window_length);
     7d8:	7c29      	ldrb	r1, [r5, #16]
     7da:	227f      	movs	r2, #127	; 0x7f
     7dc:	400a      	ands	r2, r1
	hw->TDCR.reg = CAN_TDCR_TDCO(config->delay_compensation_offset) |
     7de:	4313      	orrs	r3, r2
     7e0:	64a3      	str	r3, [r4, #72]	; 0x48
	hw->GFC.reg = CAN_GFC_ANFS(config->nonmatching_frames_action_standard) |
     7e2:	7c6a      	ldrb	r2, [r5, #17]
     7e4:	0112      	lsls	r2, r2, #4
     7e6:	2330      	movs	r3, #48	; 0x30
     7e8:	4013      	ands	r3, r2
			CAN_GFC_ANFE(config->nonmatching_frames_action_extended);
     7ea:	7ca9      	ldrb	r1, [r5, #18]
     7ec:	0089      	lsls	r1, r1, #2
     7ee:	220c      	movs	r2, #12
     7f0:	400a      	ands	r2, r1
	hw->GFC.reg = CAN_GFC_ANFS(config->nonmatching_frames_action_standard) |
     7f2:	4313      	orrs	r3, r2
     7f4:	2280      	movs	r2, #128	; 0x80
     7f6:	50a3      	str	r3, [r4, r2]
	if (config->remote_frames_standard_reject) {
     7f8:	7ceb      	ldrb	r3, [r5, #19]
     7fa:	2b00      	cmp	r3, #0
     7fc:	d003      	beq.n	806 <can_init+0x116>
		hw->GFC.reg |= CAN_GFC_RRFS;
     7fe:	58a3      	ldr	r3, [r4, r2]
     800:	2102      	movs	r1, #2
     802:	430b      	orrs	r3, r1
     804:	50a3      	str	r3, [r4, r2]
	if (config->remote_frames_extended_reject) {
     806:	7d2b      	ldrb	r3, [r5, #20]
     808:	2b00      	cmp	r3, #0
     80a:	d004      	beq.n	816 <can_init+0x126>
		hw->GFC.reg |= CAN_GFC_RRFE;
     80c:	2280      	movs	r2, #128	; 0x80
     80e:	58a3      	ldr	r3, [r4, r2]
     810:	2101      	movs	r1, #1
     812:	430b      	orrs	r3, r1
     814:	50a3      	str	r3, [r4, r2]
	hw->XIDAM.reg = config->extended_id_mask;
     816:	2390      	movs	r3, #144	; 0x90
     818:	69aa      	ldr	r2, [r5, #24]
     81a:	50e2      	str	r2, [r4, r3]
	if (config->rx_fifo_0_overwrite) {
     81c:	7f2b      	ldrb	r3, [r5, #28]
     81e:	2b00      	cmp	r3, #0
     820:	d005      	beq.n	82e <can_init+0x13e>
		hw->RXF0C.reg |= CAN_RXF0C_F0OM;
     822:	22a0      	movs	r2, #160	; 0xa0
     824:	58a1      	ldr	r1, [r4, r2]
     826:	2380      	movs	r3, #128	; 0x80
     828:	061b      	lsls	r3, r3, #24
     82a:	430b      	orrs	r3, r1
     82c:	50a3      	str	r3, [r4, r2]
	hw->RXF0C.reg |= CAN_RXF0C_F0WM(config->rx_fifo_0_watermark);
     82e:	22a0      	movs	r2, #160	; 0xa0
     830:	58a1      	ldr	r1, [r4, r2]
     832:	7f6b      	ldrb	r3, [r5, #29]
     834:	061b      	lsls	r3, r3, #24
     836:	20fe      	movs	r0, #254	; 0xfe
     838:	05c0      	lsls	r0, r0, #23
     83a:	4003      	ands	r3, r0
     83c:	430b      	orrs	r3, r1
     83e:	50a3      	str	r3, [r4, r2]
	if (config->rx_fifo_1_overwrite) {
     840:	7fab      	ldrb	r3, [r5, #30]
     842:	2b00      	cmp	r3, #0
     844:	d005      	beq.n	852 <can_init+0x162>
		hw->RXF1C.reg |= CAN_RXF1C_F1OM;
     846:	3210      	adds	r2, #16
     848:	58a1      	ldr	r1, [r4, r2]
     84a:	2380      	movs	r3, #128	; 0x80
     84c:	061b      	lsls	r3, r3, #24
     84e:	430b      	orrs	r3, r1
     850:	50a3      	str	r3, [r4, r2]
	hw->RXF1C.reg |= CAN_RXF1C_F1WM(config->rx_fifo_1_watermark);
     852:	22b0      	movs	r2, #176	; 0xb0
     854:	58a1      	ldr	r1, [r4, r2]
     856:	7feb      	ldrb	r3, [r5, #31]
     858:	061b      	lsls	r3, r3, #24
     85a:	20fe      	movs	r0, #254	; 0xfe
     85c:	05c0      	lsls	r0, r0, #23
     85e:	4003      	ands	r3, r0
     860:	430b      	orrs	r3, r1
     862:	50a3      	str	r3, [r4, r2]
	if (config->tx_queue_mode) {
     864:	2320      	movs	r3, #32
     866:	5ceb      	ldrb	r3, [r5, r3]
     868:	2b00      	cmp	r3, #0
     86a:	d005      	beq.n	878 <can_init+0x188>
		hw->TXBC.reg |= CAN_TXBC_TFQM;
     86c:	3210      	adds	r2, #16
     86e:	58a1      	ldr	r1, [r4, r2]
     870:	2380      	movs	r3, #128	; 0x80
     872:	05db      	lsls	r3, r3, #23
     874:	430b      	orrs	r3, r1
     876:	50a3      	str	r3, [r4, r2]
	hw->TXEFC.reg |= CAN_TXEFC_EFWM(config->tx_event_fifo_watermark);
     878:	22f0      	movs	r2, #240	; 0xf0
     87a:	58a1      	ldr	r1, [r4, r2]
     87c:	2321      	movs	r3, #33	; 0x21
     87e:	5ceb      	ldrb	r3, [r5, r3]
     880:	061b      	lsls	r3, r3, #24
     882:	20fc      	movs	r0, #252	; 0xfc
     884:	0580      	lsls	r0, r0, #22
     886:	4003      	ands	r3, r0
     888:	430b      	orrs	r3, r1
     88a:	50a3      	str	r3, [r4, r2]

	/* Set the configuration. */
	_can_set_configuration(hw, config);

	/* Enable the interrupt setting which no need change. */
	hw->ILE.reg = CAN_ILE_EINT0 | CAN_ILE_EINT1;
     88c:	2303      	movs	r3, #3
     88e:	65e3      	str	r3, [r4, #92]	; 0x5c
	hw->TXBTIE.reg = CAN_TXBTIE_MASK;
     890:	3b04      	subs	r3, #4
     892:	3a10      	subs	r2, #16
     894:	50a3      	str	r3, [r4, r2]
	hw->TXBCIE.reg = CAN_TXBCIE_MASK;
     896:	3204      	adds	r2, #4
     898:	50a3      	str	r3, [r4, r2]
}
     89a:	bd70      	pop	{r4, r5, r6, pc}
		system_gclk_chan_set_config(CAN0_GCLK_ID, &gclk_chan_conf);
     89c:	493d      	ldr	r1, [pc, #244]	; (994 <can_init+0x2a4>)
     89e:	201a      	movs	r0, #26
     8a0:	4b41      	ldr	r3, [pc, #260]	; (9a8 <can_init+0x2b8>)
     8a2:	4798      	blx	r3
		system_gclk_chan_enable(CAN0_GCLK_ID);
     8a4:	201a      	movs	r0, #26
     8a6:	4b41      	ldr	r3, [pc, #260]	; (9ac <can_init+0x2bc>)
     8a8:	4798      	blx	r3
	hw->CCCR.reg |= CAN_CCCR_CCE;
     8aa:	4b3b      	ldr	r3, [pc, #236]	; (998 <can_init+0x2a8>)
     8ac:	699a      	ldr	r2, [r3, #24]
     8ae:	2102      	movs	r1, #2
     8b0:	430a      	orrs	r2, r1
     8b2:	619a      	str	r2, [r3, #24]
		hw->SIDFC.reg = CAN_SIDFC_FLSSA((uint32_t)can0_rx_standard_filter) |
     8b4:	4a3e      	ldr	r2, [pc, #248]	; (9b0 <can_init+0x2c0>)
     8b6:	0412      	lsls	r2, r2, #16
     8b8:	0c12      	lsrs	r2, r2, #16
     8ba:	2180      	movs	r1, #128	; 0x80
     8bc:	0389      	lsls	r1, r1, #14
     8be:	430a      	orrs	r2, r1
     8c0:	2184      	movs	r1, #132	; 0x84
     8c2:	505a      	str	r2, [r3, r1]
		hw->XIDFC.reg = CAN_XIDFC_FLESA((uint32_t)can0_rx_extended_filter) |
     8c4:	4a3b      	ldr	r2, [pc, #236]	; (9b4 <can_init+0x2c4>)
     8c6:	0412      	lsls	r2, r2, #16
     8c8:	0c12      	lsrs	r2, r2, #16
     8ca:	2180      	movs	r1, #128	; 0x80
     8cc:	0349      	lsls	r1, r1, #13
     8ce:	430a      	orrs	r2, r1
     8d0:	2088      	movs	r0, #136	; 0x88
     8d2:	501a      	str	r2, [r3, r0]
		hw->RXF0C.reg = CAN_RXF0C_F0SA((uint32_t)can0_rx_fifo_0) |
     8d4:	4a38      	ldr	r2, [pc, #224]	; (9b8 <can_init+0x2c8>)
     8d6:	0412      	lsls	r2, r2, #16
     8d8:	0c12      	lsrs	r2, r2, #16
     8da:	430a      	orrs	r2, r1
     8dc:	3018      	adds	r0, #24
     8de:	501a      	str	r2, [r3, r0]
		hw->RXF1C.reg = CAN_RXF1C_F1SA((uint32_t)can0_rx_fifo_1) |
     8e0:	4a36      	ldr	r2, [pc, #216]	; (9bc <can_init+0x2cc>)
     8e2:	0412      	lsls	r2, r2, #16
     8e4:	0c12      	lsrs	r2, r2, #16
     8e6:	4311      	orrs	r1, r2
     8e8:	22b0      	movs	r2, #176	; 0xb0
     8ea:	5099      	str	r1, [r3, r2]
		hw->RXBC.reg = CAN_RXBC_RBSA((uint32_t)can0_rx_buffer);
     8ec:	4a34      	ldr	r2, [pc, #208]	; (9c0 <can_init+0x2d0>)
     8ee:	0412      	lsls	r2, r2, #16
     8f0:	0c12      	lsrs	r2, r2, #16
     8f2:	21ac      	movs	r1, #172	; 0xac
     8f4:	505a      	str	r2, [r3, r1]
		hw->TXBC.reg = CAN_TXBC_TBSA((uint32_t)can0_tx_buffer) |
     8f6:	4a33      	ldr	r2, [pc, #204]	; (9c4 <can_init+0x2d4>)
     8f8:	0412      	lsls	r2, r2, #16
     8fa:	0c12      	lsrs	r2, r2, #16
				CAN_TXBC_NDTB(CONF_CAN0_TX_BUFFER_NUM) |
     8fc:	4932      	ldr	r1, [pc, #200]	; (9c8 <can_init+0x2d8>)
     8fe:	430a      	orrs	r2, r1
		hw->TXBC.reg = CAN_TXBC_TBSA((uint32_t)can0_tx_buffer) |
     900:	21c0      	movs	r1, #192	; 0xc0
     902:	505a      	str	r2, [r3, r1]
		hw->TXEFC.reg = CAN_TXEFC_EFSA((uint32_t)can0_tx_event_fifo) |
     904:	4a31      	ldr	r2, [pc, #196]	; (9cc <can_init+0x2dc>)
     906:	0412      	lsls	r2, r2, #16
     908:	0c12      	lsrs	r2, r2, #16
     90a:	2180      	movs	r1, #128	; 0x80
     90c:	0309      	lsls	r1, r1, #12
     90e:	430a      	orrs	r2, r1
     910:	21f0      	movs	r1, #240	; 0xf0
     912:	505a      	str	r2, [r3, r1]
     914:	e703      	b.n	71e <can_init+0x2e>
		system_gclk_chan_set_config(CAN1_GCLK_ID, &gclk_chan_conf);
     916:	491f      	ldr	r1, [pc, #124]	; (994 <can_init+0x2a4>)
     918:	201b      	movs	r0, #27
     91a:	4b23      	ldr	r3, [pc, #140]	; (9a8 <can_init+0x2b8>)
     91c:	4798      	blx	r3
		system_gclk_chan_enable(CAN1_GCLK_ID);
     91e:	201b      	movs	r0, #27
     920:	4b22      	ldr	r3, [pc, #136]	; (9ac <can_init+0x2bc>)
     922:	4798      	blx	r3
	hw->CCCR.reg |= CAN_CCCR_CCE;
     924:	4b1d      	ldr	r3, [pc, #116]	; (99c <can_init+0x2ac>)
     926:	699a      	ldr	r2, [r3, #24]
     928:	2102      	movs	r1, #2
     92a:	430a      	orrs	r2, r1
     92c:	619a      	str	r2, [r3, #24]
		hw->SIDFC.reg = CAN_SIDFC_FLSSA((uint32_t)can1_rx_standard_filter) |
     92e:	4a28      	ldr	r2, [pc, #160]	; (9d0 <can_init+0x2e0>)
     930:	0412      	lsls	r2, r2, #16
     932:	0c12      	lsrs	r2, r2, #16
     934:	2180      	movs	r1, #128	; 0x80
     936:	0389      	lsls	r1, r1, #14
     938:	430a      	orrs	r2, r1
     93a:	2184      	movs	r1, #132	; 0x84
     93c:	505a      	str	r2, [r3, r1]
		hw->XIDFC.reg = CAN_XIDFC_FLESA((uint32_t)can1_rx_extended_filter) |
     93e:	4a25      	ldr	r2, [pc, #148]	; (9d4 <can_init+0x2e4>)
     940:	0412      	lsls	r2, r2, #16
     942:	0c12      	lsrs	r2, r2, #16
     944:	2180      	movs	r1, #128	; 0x80
     946:	0349      	lsls	r1, r1, #13
     948:	430a      	orrs	r2, r1
     94a:	2088      	movs	r0, #136	; 0x88
     94c:	501a      	str	r2, [r3, r0]
		hw->RXF0C.reg = CAN_RXF0C_F0SA((uint32_t)can1_rx_fifo_0) |
     94e:	4a22      	ldr	r2, [pc, #136]	; (9d8 <can_init+0x2e8>)
     950:	0412      	lsls	r2, r2, #16
     952:	0c12      	lsrs	r2, r2, #16
     954:	430a      	orrs	r2, r1
     956:	3018      	adds	r0, #24
     958:	501a      	str	r2, [r3, r0]
		hw->RXF1C.reg = CAN_RXF1C_F1SA((uint32_t)can1_rx_fifo_1) |
     95a:	4a20      	ldr	r2, [pc, #128]	; (9dc <can_init+0x2ec>)
     95c:	0412      	lsls	r2, r2, #16
     95e:	0c12      	lsrs	r2, r2, #16
     960:	4311      	orrs	r1, r2
     962:	22b0      	movs	r2, #176	; 0xb0
     964:	5099      	str	r1, [r3, r2]
		hw->RXBC.reg = CAN_RXBC_RBSA((uint32_t)can1_rx_buffer);
     966:	4a1e      	ldr	r2, [pc, #120]	; (9e0 <can_init+0x2f0>)
     968:	0412      	lsls	r2, r2, #16
     96a:	0c12      	lsrs	r2, r2, #16
     96c:	21ac      	movs	r1, #172	; 0xac
     96e:	505a      	str	r2, [r3, r1]
		hw->TXBC.reg = CAN_TXBC_TBSA((uint32_t)can1_tx_buffer) |
     970:	4a1c      	ldr	r2, [pc, #112]	; (9e4 <can_init+0x2f4>)
     972:	0412      	lsls	r2, r2, #16
     974:	0c12      	lsrs	r2, r2, #16
				CAN_TXBC_NDTB(CONF_CAN1_TX_BUFFER_NUM) |
     976:	4914      	ldr	r1, [pc, #80]	; (9c8 <can_init+0x2d8>)
     978:	430a      	orrs	r2, r1
		hw->TXBC.reg = CAN_TXBC_TBSA((uint32_t)can1_tx_buffer) |
     97a:	21c0      	movs	r1, #192	; 0xc0
     97c:	505a      	str	r2, [r3, r1]
		hw->TXEFC.reg = CAN_TXEFC_EFSA((uint32_t)can1_tx_event_fifo) |
     97e:	4a1a      	ldr	r2, [pc, #104]	; (9e8 <can_init+0x2f8>)
     980:	0412      	lsls	r2, r2, #16
     982:	0c12      	lsrs	r2, r2, #16
     984:	2180      	movs	r1, #128	; 0x80
     986:	0309      	lsls	r1, r1, #12
     988:	430a      	orrs	r2, r1
     98a:	21f0      	movs	r1, #240	; 0xf0
     98c:	505a      	str	r2, [r3, r1]
     98e:	e6c6      	b.n	71e <can_init+0x2e>
     990:	000006b9 	.word	0x000006b9
     994:	200009bc 	.word	0x200009bc
     998:	42001c00 	.word	0x42001c00
     99c:	42002000 	.word	0x42002000
     9a0:	06050a03 	.word	0x06050a03
     9a4:	00050a33 	.word	0x00050a33
     9a8:	000010ed 	.word	0x000010ed
     9ac:	0000107d 	.word	0x0000107d
     9b0:	200003a8 	.word	0x200003a8
     9b4:	20000128 	.word	0x20000128
     9b8:	200001a8 	.word	0x200001a8
     9bc:	200002a8 	.word	0x200002a8
     9c0:	20000028 	.word	0x20000028
     9c4:	20000428 	.word	0x20000428
     9c8:	04040000 	.word	0x04040000
     9cc:	200004a8 	.word	0x200004a8
     9d0:	20000868 	.word	0x20000868
     9d4:	200005e8 	.word	0x200005e8
     9d8:	20000668 	.word	0x20000668
     9dc:	20000768 	.word	0x20000768
     9e0:	200004e8 	.word	0x200004e8
     9e4:	200008e8 	.word	0x200008e8
     9e8:	20000968 	.word	0x20000968

000009ec <can_start>:
			CAN_DBTP_DTSEG2(can_fd_dbtp_dtseg2_value);
}

void can_start(struct can_module *const module_inst)
{
	module_inst->hw->CCCR.reg &= ~CAN_CCCR_INIT;
     9ec:	6802      	ldr	r2, [r0, #0]
     9ee:	6993      	ldr	r3, [r2, #24]
     9f0:	2101      	movs	r1, #1
     9f2:	438b      	bics	r3, r1
     9f4:	6193      	str	r3, [r2, #24]
	/* Wait for the sync. */
	while (module_inst->hw->CCCR.reg & CAN_CCCR_INIT);
     9f6:	6801      	ldr	r1, [r0, #0]
     9f8:	2201      	movs	r2, #1
     9fa:	698b      	ldr	r3, [r1, #24]
     9fc:	421a      	tst	r2, r3
     9fe:	d1fc      	bne.n	9fa <can_start+0xe>
}
     a00:	4770      	bx	lr
	...

00000a04 <can_set_tx_buffer_element>:
}

enum status_code can_set_tx_buffer_element(
		struct can_module *const module_inst,
		struct can_tx_element *tx_element, uint32_t index)
{
     a04:	b510      	push	{r4, lr}
	uint32_t i;
	if (module_inst->hw == CAN0) {
     a06:	6803      	ldr	r3, [r0, #0]
     a08:	4817      	ldr	r0, [pc, #92]	; (a68 <can_set_tx_buffer_element+0x64>)
     a0a:	4283      	cmp	r3, r0
     a0c:	d004      	beq.n	a18 <can_set_tx_buffer_element+0x14>
		can0_tx_buffer[index].T1.reg = tx_element->T1.reg;
		for (i = 0; i < CONF_CAN_ELEMENT_DATA_SIZE; i++) {
			can0_tx_buffer[index].data[i] = tx_element->data[i];
		}
		return STATUS_OK;
	} else if (module_inst->hw == CAN1) {
     a0e:	4c17      	ldr	r4, [pc, #92]	; (a6c <can_set_tx_buffer_element+0x68>)
		for (i = 0; i < CONF_CAN_ELEMENT_DATA_SIZE; i++) {
			can1_tx_buffer[index].data[i] = tx_element->data[i];
		}
		return STATUS_OK;
	}
	return STATUS_ERR_INVALID_ARG;
     a10:	2017      	movs	r0, #23
	} else if (module_inst->hw == CAN1) {
     a12:	42a3      	cmp	r3, r4
     a14:	d014      	beq.n	a40 <can_set_tx_buffer_element+0x3c>
}
     a16:	bd10      	pop	{r4, pc}
		can0_tx_buffer[index].T0.reg = tx_element->T0.reg;
     a18:	680b      	ldr	r3, [r1, #0]
     a1a:	4815      	ldr	r0, [pc, #84]	; (a70 <can_set_tx_buffer_element+0x6c>)
     a1c:	0112      	lsls	r2, r2, #4
     a1e:	5013      	str	r3, [r2, r0]
		can0_tx_buffer[index].T1.reg = tx_element->T1.reg;
     a20:	684c      	ldr	r4, [r1, #4]
     a22:	1883      	adds	r3, r0, r2
     a24:	605c      	str	r4, [r3, #4]
     a26:	000b      	movs	r3, r1
     a28:	3308      	adds	r3, #8
     a2a:	3208      	adds	r2, #8
     a2c:	1882      	adds	r2, r0, r2
     a2e:	3110      	adds	r1, #16
			can0_tx_buffer[index].data[i] = tx_element->data[i];
     a30:	7818      	ldrb	r0, [r3, #0]
     a32:	7010      	strb	r0, [r2, #0]
     a34:	3301      	adds	r3, #1
     a36:	3201      	adds	r2, #1
		for (i = 0; i < CONF_CAN_ELEMENT_DATA_SIZE; i++) {
     a38:	428b      	cmp	r3, r1
     a3a:	d1f9      	bne.n	a30 <can_set_tx_buffer_element+0x2c>
		return STATUS_OK;
     a3c:	2000      	movs	r0, #0
     a3e:	e7ea      	b.n	a16 <can_set_tx_buffer_element+0x12>
		can1_tx_buffer[index].T0.reg = tx_element->T0.reg;
     a40:	680b      	ldr	r3, [r1, #0]
     a42:	480c      	ldr	r0, [pc, #48]	; (a74 <can_set_tx_buffer_element+0x70>)
     a44:	0112      	lsls	r2, r2, #4
     a46:	5013      	str	r3, [r2, r0]
		can1_tx_buffer[index].T1.reg = tx_element->T1.reg;
     a48:	684c      	ldr	r4, [r1, #4]
     a4a:	1883      	adds	r3, r0, r2
     a4c:	605c      	str	r4, [r3, #4]
     a4e:	000b      	movs	r3, r1
     a50:	3308      	adds	r3, #8
     a52:	3208      	adds	r2, #8
     a54:	1882      	adds	r2, r0, r2
     a56:	3110      	adds	r1, #16
			can1_tx_buffer[index].data[i] = tx_element->data[i];
     a58:	7818      	ldrb	r0, [r3, #0]
     a5a:	7010      	strb	r0, [r2, #0]
     a5c:	3301      	adds	r3, #1
     a5e:	3201      	adds	r2, #1
		for (i = 0; i < CONF_CAN_ELEMENT_DATA_SIZE; i++) {
     a60:	428b      	cmp	r3, r1
     a62:	d1f9      	bne.n	a58 <can_set_tx_buffer_element+0x54>
		return STATUS_OK;
     a64:	2000      	movs	r0, #0
     a66:	e7d6      	b.n	a16 <can_set_tx_buffer_element+0x12>
     a68:	42001c00 	.word	0x42001c00
     a6c:	42002000 	.word	0x42002000
     a70:	20000428 	.word	0x20000428
     a74:	200008e8 	.word	0x200008e8

00000a78 <extint_register_callback>:
	/* Sanity check arguments */
	Assert(callback);

	if (type != EXTINT_CALLBACK_TYPE_DETECT) {
		Assert(false);
		return STATUS_ERR_INVALID_ARG;
     a78:	2317      	movs	r3, #23
	if (type != EXTINT_CALLBACK_TYPE_DETECT) {
     a7a:	2a00      	cmp	r2, #0
     a7c:	d001      	beq.n	a82 <extint_register_callback+0xa>
	} else if (_extint_dev.callbacks[channel] == callback) {
		return STATUS_OK;
	}

	return STATUS_ERR_ALREADY_INITIALIZED;
}
     a7e:	0018      	movs	r0, r3
     a80:	4770      	bx	lr
	if (_extint_dev.callbacks[channel] == NULL) {
     a82:	008b      	lsls	r3, r1, #2
     a84:	4a06      	ldr	r2, [pc, #24]	; (aa0 <extint_register_callback+0x28>)
     a86:	589b      	ldr	r3, [r3, r2]
     a88:	2b00      	cmp	r3, #0
     a8a:	d003      	beq.n	a94 <extint_register_callback+0x1c>
	} else if (_extint_dev.callbacks[channel] == callback) {
     a8c:	4283      	cmp	r3, r0
     a8e:	d005      	beq.n	a9c <extint_register_callback+0x24>
	return STATUS_ERR_ALREADY_INITIALIZED;
     a90:	231d      	movs	r3, #29
     a92:	e7f4      	b.n	a7e <extint_register_callback+0x6>
		_extint_dev.callbacks[channel] = callback;
     a94:	0089      	lsls	r1, r1, #2
     a96:	5088      	str	r0, [r1, r2]
		return STATUS_OK;
     a98:	2300      	movs	r3, #0
     a9a:	e7f0      	b.n	a7e <extint_register_callback+0x6>
		return STATUS_OK;
     a9c:	2300      	movs	r3, #0
     a9e:	e7ee      	b.n	a7e <extint_register_callback+0x6>
     aa0:	200009c0 	.word	0x200009c0

00000aa4 <extint_chan_enable_callback>:

		eic->INTENSET.reg = (1UL << channel);
	}
	else {
		Assert(false);
		return STATUS_ERR_INVALID_ARG;
     aa4:	2317      	movs	r3, #23
	if (type == EXTINT_CALLBACK_TYPE_DETECT) {
     aa6:	2900      	cmp	r1, #0
     aa8:	d001      	beq.n	aae <extint_chan_enable_callback+0xa>
	}

	return STATUS_OK;
}
     aaa:	0018      	movs	r0, r3
     aac:	4770      	bx	lr
		Eic *const eics[EIC_INST_NUM] = EIC_INSTS;

		return eics[eic_index];
	} else {
		Assert(false);
		return NULL;
     aae:	2200      	movs	r2, #0
	if (eic_index < EIC_INST_NUM) {
     ab0:	281f      	cmp	r0, #31
     ab2:	d800      	bhi.n	ab6 <extint_chan_enable_callback+0x12>
		return eics[eic_index];
     ab4:	4a02      	ldr	r2, [pc, #8]	; (ac0 <extint_chan_enable_callback+0x1c>)
		eic->INTENSET.reg = (1UL << channel);
     ab6:	2301      	movs	r3, #1
     ab8:	4083      	lsls	r3, r0
     aba:	6113      	str	r3, [r2, #16]
	return STATUS_OK;
     abc:	2300      	movs	r3, #0
     abe:	e7f4      	b.n	aaa <extint_chan_enable_callback+0x6>
     ac0:	40002800 	.word	0x40002800

00000ac4 <EIC_Handler>:
	return _current_channel;
}

/** Handler for the EXTINT hardware module interrupt. */
void EIC_Handler(void)
{
     ac4:	b570      	push	{r4, r5, r6, lr}
	/* Find any triggered channels, run associated callback handlers */
	for (_current_channel = 0; _current_channel < EIC_NUMBER_OF_INTERRUPTS ; _current_channel++) {
     ac6:	2200      	movs	r2, #0
     ac8:	4b10      	ldr	r3, [pc, #64]	; (b0c <EIC_Handler+0x48>)
     aca:	701a      	strb	r2, [r3, #0]
     acc:	2300      	movs	r3, #0
     ace:	4910      	ldr	r1, [pc, #64]	; (b10 <EIC_Handler+0x4c>)
 */
static inline bool extint_chan_is_detected(
		const uint8_t channel)
{
	Eic *const eic_module = _extint_get_eic_from_channel(channel);
	uint32_t eic_mask   = (1UL << (channel % 32));
     ad0:	251f      	movs	r5, #31
		if (extint_chan_is_detected(_current_channel)) {
			/* Clear flag */
			extint_chan_clear_detected(_current_channel);
			/* Find any associated callback entries in the callback table */
			if (_extint_dev.callbacks[_current_channel] != NULL) {
     ad2:	4e10      	ldr	r6, [pc, #64]	; (b14 <EIC_Handler+0x50>)
	for (_current_channel = 0; _current_channel < EIC_NUMBER_OF_INTERRUPTS ; _current_channel++) {
     ad4:	4c0d      	ldr	r4, [pc, #52]	; (b0c <EIC_Handler+0x48>)
     ad6:	e00a      	b.n	aee <EIC_Handler+0x2a>
		return eics[eic_index];
     ad8:	490d      	ldr	r1, [pc, #52]	; (b10 <EIC_Handler+0x4c>)
     ada:	e008      	b.n	aee <EIC_Handler+0x2a>
     adc:	7823      	ldrb	r3, [r4, #0]
     ade:	3301      	adds	r3, #1
     ae0:	b2db      	uxtb	r3, r3
     ae2:	7023      	strb	r3, [r4, #0]
     ae4:	2b0f      	cmp	r3, #15
     ae6:	d810      	bhi.n	b0a <EIC_Handler+0x46>
		return NULL;
     ae8:	2100      	movs	r1, #0
	if (eic_index < EIC_INST_NUM) {
     aea:	2b1f      	cmp	r3, #31
     aec:	d9f4      	bls.n	ad8 <EIC_Handler+0x14>
	uint32_t eic_mask   = (1UL << (channel % 32));
     aee:	0028      	movs	r0, r5
     af0:	4018      	ands	r0, r3
     af2:	2201      	movs	r2, #1
     af4:	4082      	lsls	r2, r0

	return (eic_module->INTFLAG.reg & eic_mask);
     af6:	6948      	ldr	r0, [r1, #20]
		if (extint_chan_is_detected(_current_channel)) {
     af8:	4210      	tst	r0, r2
     afa:	d0ef      	beq.n	adc <EIC_Handler+0x18>
		const uint8_t channel)
{
	Eic *const eic_module = _extint_get_eic_from_channel(channel);
	uint32_t eic_mask   = (1UL << (channel % 32));

	eic_module->INTFLAG.reg = eic_mask;
     afc:	614a      	str	r2, [r1, #20]
			if (_extint_dev.callbacks[_current_channel] != NULL) {
     afe:	009b      	lsls	r3, r3, #2
     b00:	599b      	ldr	r3, [r3, r6]
     b02:	2b00      	cmp	r3, #0
     b04:	d0ea      	beq.n	adc <EIC_Handler+0x18>
				/* Run the registered callback */
				_extint_dev.callbacks[_current_channel]();
     b06:	4798      	blx	r3
     b08:	e7e8      	b.n	adc <EIC_Handler+0x18>
			}
		}
	}
}
     b0a:	bd70      	pop	{r4, r5, r6, pc}
     b0c:	200009bd 	.word	0x200009bd
     b10:	40002800 	.word	0x40002800
     b14:	200009c0 	.word	0x200009c0

00000b18 <_extint_enable>:
{
	Eic *const eics[EIC_INST_NUM] = EIC_INSTS;

	/* Enable all EIC hardware modules. */
	for (uint32_t i = 0; i < EIC_INST_NUM; i++) {
		eics[i]->CTRLA.reg |= EIC_CTRLA_ENABLE;
     b18:	4a06      	ldr	r2, [pc, #24]	; (b34 <_extint_enable+0x1c>)
     b1a:	7813      	ldrb	r3, [r2, #0]
     b1c:	2102      	movs	r1, #2
     b1e:	430b      	orrs	r3, r1
     b20:	7013      	strb	r3, [r2, #0]
		 || (eics[i]->SYNCBUSY.reg & EIC_SYNCBUSY_SWRST)){
     b22:	2001      	movs	r0, #1
		if((eics[i]->SYNCBUSY.reg & EIC_SYNCBUSY_ENABLE)
     b24:	6853      	ldr	r3, [r2, #4]
     b26:	4219      	tst	r1, r3
     b28:	d1fc      	bne.n	b24 <_extint_enable+0xc>
		 || (eics[i]->SYNCBUSY.reg & EIC_SYNCBUSY_SWRST)){
     b2a:	6853      	ldr	r3, [r2, #4]
     b2c:	4218      	tst	r0, r3
     b2e:	d1f9      	bne.n	b24 <_extint_enable+0xc>
	}

	while (extint_is_syncing()) {
		/* Wait for all hardware modules to complete synchronization */
	}
}
     b30:	4770      	bx	lr
     b32:	46c0      	nop			; (mov r8, r8)
     b34:	40002800 	.word	0x40002800

00000b38 <_extint_disable>:
{
	Eic *const eics[EIC_INST_NUM] = EIC_INSTS;

	/* Disable all EIC hardware modules. */
	for (uint32_t i = 0; i < EIC_INST_NUM; i++) {
		eics[i]->CTRLA.reg &= ~EIC_CTRLA_ENABLE;
     b38:	4a06      	ldr	r2, [pc, #24]	; (b54 <_extint_disable+0x1c>)
     b3a:	7813      	ldrb	r3, [r2, #0]
     b3c:	2102      	movs	r1, #2
     b3e:	438b      	bics	r3, r1
     b40:	7013      	strb	r3, [r2, #0]
		 || (eics[i]->SYNCBUSY.reg & EIC_SYNCBUSY_SWRST)){
     b42:	2001      	movs	r0, #1
		if((eics[i]->SYNCBUSY.reg & EIC_SYNCBUSY_ENABLE)
     b44:	6853      	ldr	r3, [r2, #4]
     b46:	4219      	tst	r1, r3
     b48:	d1fc      	bne.n	b44 <_extint_disable+0xc>
		 || (eics[i]->SYNCBUSY.reg & EIC_SYNCBUSY_SWRST)){
     b4a:	6853      	ldr	r3, [r2, #4]
     b4c:	4218      	tst	r0, r3
     b4e:	d1f9      	bne.n	b44 <_extint_disable+0xc>
	}

	while (extint_is_syncing()) {
		/* Wait for all hardware modules to complete synchronization */
	}
}
     b50:	4770      	bx	lr
     b52:	46c0      	nop			; (mov r8, r8)
     b54:	40002800 	.word	0x40002800

00000b58 <_system_extint_init>:
{
     b58:	b500      	push	{lr}
     b5a:	b083      	sub	sp, #12
			MCLK->APBAMASK.reg |= mask;
     b5c:	4a17      	ldr	r2, [pc, #92]	; (bbc <_system_extint_init+0x64>)
     b5e:	6951      	ldr	r1, [r2, #20]
     b60:	2380      	movs	r3, #128	; 0x80
     b62:	00db      	lsls	r3, r3, #3
     b64:	430b      	orrs	r3, r1
     b66:	6153      	str	r3, [r2, #20]
     b68:	a901      	add	r1, sp, #4
     b6a:	2300      	movs	r3, #0
     b6c:	700b      	strb	r3, [r1, #0]
	system_gclk_chan_set_config(EIC_GCLK_ID, &gclk_chan_conf);
     b6e:	2002      	movs	r0, #2
     b70:	4b13      	ldr	r3, [pc, #76]	; (bc0 <_system_extint_init+0x68>)
     b72:	4798      	blx	r3
	system_gclk_chan_enable(EIC_GCLK_ID);
     b74:	2002      	movs	r0, #2
     b76:	4b13      	ldr	r3, [pc, #76]	; (bc4 <_system_extint_init+0x6c>)
     b78:	4798      	blx	r3
		eics[i]->CTRLA.reg |= EIC_CTRLA_SWRST;
     b7a:	4a13      	ldr	r2, [pc, #76]	; (bc8 <_system_extint_init+0x70>)
     b7c:	7813      	ldrb	r3, [r2, #0]
     b7e:	2101      	movs	r1, #1
     b80:	430b      	orrs	r3, r1
     b82:	7013      	strb	r3, [r2, #0]
		if((eics[i]->SYNCBUSY.reg & EIC_SYNCBUSY_ENABLE)
     b84:	3101      	adds	r1, #1
		 || (eics[i]->SYNCBUSY.reg & EIC_SYNCBUSY_SWRST)){
     b86:	2001      	movs	r0, #1
		if((eics[i]->SYNCBUSY.reg & EIC_SYNCBUSY_ENABLE)
     b88:	6853      	ldr	r3, [r2, #4]
     b8a:	4219      	tst	r1, r3
     b8c:	d1fc      	bne.n	b88 <_system_extint_init+0x30>
		 || (eics[i]->SYNCBUSY.reg & EIC_SYNCBUSY_SWRST)){
     b8e:	6853      	ldr	r3, [r2, #4]
     b90:	4218      	tst	r0, r3
     b92:	d1f9      	bne.n	b88 <_system_extint_init+0x30>
		eics[i]->CTRLA.bit.CKSEL = EXTINT_CLK_GCLK;
     b94:	4a0c      	ldr	r2, [pc, #48]	; (bc8 <_system_extint_init+0x70>)
     b96:	7813      	ldrb	r3, [r2, #0]
     b98:	2110      	movs	r1, #16
     b9a:	438b      	bics	r3, r1
     b9c:	7013      	strb	r3, [r2, #0]
     b9e:	4b0b      	ldr	r3, [pc, #44]	; (bcc <_system_extint_init+0x74>)
     ba0:	0019      	movs	r1, r3
     ba2:	3140      	adds	r1, #64	; 0x40
		_extint_dev.callbacks[j] = NULL;
     ba4:	2200      	movs	r2, #0
     ba6:	c304      	stmia	r3!, {r2}
	for (uint8_t j = 0; j < EIC_NUMBER_OF_INTERRUPTS; j++) {
     ba8:	428b      	cmp	r3, r1
     baa:	d1fc      	bne.n	ba6 <_system_extint_init+0x4e>
 * \param[in] vector Interrupt vector to enable
 */
static inline void system_interrupt_enable(
		const enum system_interrupt_vector vector)
{
	NVIC->ISER[0] = (uint32_t)(1 << ((uint32_t)vector & 0x0000001f));
     bac:	2208      	movs	r2, #8
     bae:	4b08      	ldr	r3, [pc, #32]	; (bd0 <_system_extint_init+0x78>)
     bb0:	601a      	str	r2, [r3, #0]
	_extint_enable();
     bb2:	4b08      	ldr	r3, [pc, #32]	; (bd4 <_system_extint_init+0x7c>)
     bb4:	4798      	blx	r3
}
     bb6:	b003      	add	sp, #12
     bb8:	bd00      	pop	{pc}
     bba:	46c0      	nop			; (mov r8, r8)
     bbc:	40000800 	.word	0x40000800
     bc0:	000010ed 	.word	0x000010ed
     bc4:	0000107d 	.word	0x0000107d
     bc8:	40002800 	.word	0x40002800
     bcc:	200009c0 	.word	0x200009c0
     bd0:	e000e100 	.word	0xe000e100
     bd4:	00000b19 	.word	0x00000b19

00000bd8 <extint_chan_get_config_defaults>:
{
	/* Sanity check arguments */
	Assert(config);

	/* Default configuration values */
	config->gpio_pin            = 0;
     bd8:	2300      	movs	r3, #0
     bda:	6003      	str	r3, [r0, #0]
	config->gpio_pin_mux        = 0;
     bdc:	6043      	str	r3, [r0, #4]
	config->gpio_pin_pull       = EXTINT_PULL_UP;
     bde:	2201      	movs	r2, #1
     be0:	7202      	strb	r2, [r0, #8]
	config->filter_input_signal = false;
     be2:	7283      	strb	r3, [r0, #10]
	config->detection_criteria  = EXTINT_DETECT_FALLING;
     be4:	3201      	adds	r2, #1
     be6:	72c2      	strb	r2, [r0, #11]
	config->enable_async_edge_detection = false;
     be8:	7243      	strb	r3, [r0, #9]
}
     bea:	4770      	bx	lr

00000bec <extint_chan_set_config>:

 */
void extint_chan_set_config(
		const uint8_t channel,
		const struct extint_chan_conf *const config)
{
     bec:	b5f0      	push	{r4, r5, r6, r7, lr}
     bee:	b083      	sub	sp, #12
     bf0:	0005      	movs	r5, r0
     bf2:	000c      	movs	r4, r1
	/* Sanity check arguments */
	Assert(config);
	_extint_disable();
     bf4:	4b1c      	ldr	r3, [pc, #112]	; (c68 <extint_chan_set_config+0x7c>)
     bf6:	4798      	blx	r3
	config->direction    = SYSTEM_PINMUX_PIN_DIR_INPUT;
     bf8:	a901      	add	r1, sp, #4
     bfa:	2300      	movs	r3, #0
     bfc:	704b      	strb	r3, [r1, #1]
	config->powersave    = false;
     bfe:	70cb      	strb	r3, [r1, #3]
			config->detection_criteria)));
#endif
	struct system_pinmux_config pinmux_config;
	system_pinmux_get_config_defaults(&pinmux_config);

	pinmux_config.mux_position = config->gpio_pin_mux;
     c00:	7923      	ldrb	r3, [r4, #4]
     c02:	700b      	strb	r3, [r1, #0]
	pinmux_config.direction    = SYSTEM_PINMUX_PIN_DIR_INPUT;
	pinmux_config.input_pull   = (enum system_pinmux_pin_pull)config->gpio_pin_pull;
     c04:	7a23      	ldrb	r3, [r4, #8]
     c06:	708b      	strb	r3, [r1, #2]
	system_pinmux_pin_set_config(config->gpio_pin, &pinmux_config);
     c08:	7820      	ldrb	r0, [r4, #0]
     c0a:	4b18      	ldr	r3, [pc, #96]	; (c6c <extint_chan_set_config+0x80>)
     c0c:	4798      	blx	r3
		return NULL;
     c0e:	2100      	movs	r1, #0
	if (eic_index < EIC_INST_NUM) {
     c10:	2d1f      	cmp	r5, #31
     c12:	d800      	bhi.n	c16 <extint_chan_set_config+0x2a>
		return eics[eic_index];
     c14:	4916      	ldr	r1, [pc, #88]	; (c70 <extint_chan_set_config+0x84>)

	/* Get a pointer to the module hardware instance */
	Eic *const EIC_module = _extint_get_eic_from_channel(channel);

	uint32_t config_pos = (4 * (channel % 8));
     c16:	2207      	movs	r2, #7
     c18:	402a      	ands	r2, r5
     c1a:	0092      	lsls	r2, r2, #2
	uint32_t new_config;

	/* Determine the channel's new edge detection configuration */
	new_config = (config->detection_criteria << EIC_CONFIG_SENSE0_Pos);
     c1c:	7ae7      	ldrb	r7, [r4, #11]

	/* Enable the hardware signal filter if requested in the config */
	if (config->filter_input_signal) {
     c1e:	7aa3      	ldrb	r3, [r4, #10]
     c20:	2b00      	cmp	r3, #0
     c22:	d001      	beq.n	c28 <extint_chan_set_config+0x3c>
     c24:	2308      	movs	r3, #8
     c26:	431f      	orrs	r7, r3
     c28:	08eb      	lsrs	r3, r5, #3
     c2a:	009b      	lsls	r3, r3, #2
     c2c:	18cb      	adds	r3, r1, r3
		new_config |= EIC_CONFIG_FILTEN0;
	}

	/* Clear the existing and set the new channel configuration */
	EIC_module->CONFIG[channel / 8].reg
		= (EIC_module->CONFIG[channel / 8].reg &
     c2e:	69d8      	ldr	r0, [r3, #28]
			~((EIC_CONFIG_SENSE0_Msk | EIC_CONFIG_FILTEN0) << config_pos)) |
     c30:	260f      	movs	r6, #15
     c32:	4096      	lsls	r6, r2
		= (EIC_module->CONFIG[channel / 8].reg &
     c34:	43b0      	bics	r0, r6
			(new_config << config_pos);
     c36:	4097      	lsls	r7, r2
     c38:	003a      	movs	r2, r7
			~((EIC_CONFIG_SENSE0_Msk | EIC_CONFIG_FILTEN0) << config_pos)) |
     c3a:	4302      	orrs	r2, r0
		= (EIC_module->CONFIG[channel / 8].reg &
     c3c:	61da      	str	r2, [r3, #28]
		EIC_module->ASYNCH.reg &= (EIC_ASYNCH_MASK & (~(1UL << channel)));
	}
#endif
#if (SAMC21)
	/* Config asynchronous edge detection */
	if (config->enable_async_edge_detection) {
     c3e:	7a63      	ldrb	r3, [r4, #9]
     c40:	2b00      	cmp	r3, #0
     c42:	d10b      	bne.n	c5c <extint_chan_set_config+0x70>
		EIC_module->EIC_ASYNCH.reg |= (1UL << channel);
	} else {
		EIC_module->EIC_ASYNCH.reg &= (EIC_EIC_ASYNCH_MASK & (~(1UL << channel)));
     c44:	698a      	ldr	r2, [r1, #24]
     c46:	2301      	movs	r3, #1
     c48:	40ab      	lsls	r3, r5
     c4a:	43db      	mvns	r3, r3
     c4c:	041b      	lsls	r3, r3, #16
     c4e:	0c1b      	lsrs	r3, r3, #16
     c50:	4013      	ands	r3, r2
     c52:	618b      	str	r3, [r1, #24]
	}
#endif
	_extint_enable();
     c54:	4b07      	ldr	r3, [pc, #28]	; (c74 <extint_chan_set_config+0x88>)
     c56:	4798      	blx	r3
}
     c58:	b003      	add	sp, #12
     c5a:	bdf0      	pop	{r4, r5, r6, r7, pc}
		EIC_module->EIC_ASYNCH.reg |= (1UL << channel);
     c5c:	698a      	ldr	r2, [r1, #24]
     c5e:	2301      	movs	r3, #1
     c60:	40ab      	lsls	r3, r5
     c62:	4313      	orrs	r3, r2
     c64:	618b      	str	r3, [r1, #24]
     c66:	e7f5      	b.n	c54 <extint_chan_set_config+0x68>
     c68:	00000b39 	.word	0x00000b39
     c6c:	000011b9 	.word	0x000011b9
     c70:	40002800 	.word	0x40002800
     c74:	00000b19 	.word	0x00000b19

00000c78 <port_pin_set_config>:
 *  \param[in] config    Configuration settings for the pin
 */
void port_pin_set_config(
		const uint8_t gpio_pin,
		const struct port_config *const config)
{
     c78:	b500      	push	{lr}
     c7a:	b083      	sub	sp, #12
	config->mux_position = SYSTEM_PINMUX_GPIO;
     c7c:	ab01      	add	r3, sp, #4
     c7e:	2280      	movs	r2, #128	; 0x80
     c80:	701a      	strb	r2, [r3, #0]

	struct system_pinmux_config pinmux_config;
	system_pinmux_get_config_defaults(&pinmux_config);

	pinmux_config.mux_position = SYSTEM_PINMUX_GPIO;
	pinmux_config.direction    = (enum system_pinmux_pin_dir)config->direction;
     c82:	780a      	ldrb	r2, [r1, #0]
     c84:	705a      	strb	r2, [r3, #1]
	pinmux_config.input_pull   = (enum system_pinmux_pin_pull)config->input_pull;
     c86:	784a      	ldrb	r2, [r1, #1]
     c88:	709a      	strb	r2, [r3, #2]
	pinmux_config.powersave    = config->powersave;
     c8a:	788a      	ldrb	r2, [r1, #2]
     c8c:	70da      	strb	r2, [r3, #3]

	system_pinmux_pin_set_config(gpio_pin, &pinmux_config);
     c8e:	0019      	movs	r1, r3
     c90:	4b01      	ldr	r3, [pc, #4]	; (c98 <port_pin_set_config+0x20>)
     c92:	4798      	blx	r3
}
     c94:	b003      	add	sp, #12
     c96:	bd00      	pop	{pc}
     c98:	000011b9 	.word	0x000011b9

00000c9c <can_send_standard_message>:
#include "pins.h"


/*http://asf.atmel.com/docs/latest/samc21/html/asfdoc_sam0_can_basic_use_case.html */
void can_send_standard_message(Can_Message_t * m)
{
     c9c:	b510      	push	{r4, lr}
     c9e:	b084      	sub	sp, #16
 * \param[out] tx_element  Pointer to transfer element struct to initialize to default values
 */
static inline void can_get_tx_buffer_element_defaults(
		struct can_tx_element *tx_element)
{
	tx_element->T0.reg = 0;
     ca0:	2300      	movs	r3, #0
     ca2:	9300      	str	r3, [sp, #0]
	tx_element->T1.reg = CAN_TX_ELEMENT_T1_EFC |
     ca4:	2388      	movs	r3, #136	; 0x88
     ca6:	041b      	lsls	r3, r3, #16
     ca8:	9301      	str	r3, [sp, #4]
	uint32_t i;
	struct can_tx_element tx_element;
	can_get_tx_buffer_element_defaults(&tx_element);
	tx_element.T0.reg |= CAN_TX_ELEMENT_T0_STANDARD_ID(m->address);
     caa:	9a00      	ldr	r2, [sp, #0]
     cac:	6803      	ldr	r3, [r0, #0]
     cae:	049b      	lsls	r3, r3, #18
     cb0:	4913      	ldr	r1, [pc, #76]	; (d00 <can_send_standard_message+0x64>)
     cb2:	400b      	ands	r3, r1
     cb4:	4313      	orrs	r3, r2
     cb6:	9300      	str	r3, [sp, #0]
	tx_element.T1.bit.DLC = m->length;
     cb8:	6844      	ldr	r4, [r0, #4]
     cba:	9b01      	ldr	r3, [sp, #4]
     cbc:	220f      	movs	r2, #15
     cbe:	4022      	ands	r2, r4
     cc0:	0412      	lsls	r2, r2, #16
     cc2:	4910      	ldr	r1, [pc, #64]	; (d04 <can_send_standard_message+0x68>)
     cc4:	400b      	ands	r3, r1
     cc6:	4313      	orrs	r3, r2
     cc8:	9301      	str	r3, [sp, #4]
	for (i = 0; i < m->length; i++) {
     cca:	2c00      	cmp	r4, #0
     ccc:	d008      	beq.n	ce0 <can_send_standard_message+0x44>
		tx_element.data[i] = m->data[i];
     cce:	6880      	ldr	r0, [r0, #8]
     cd0:	2300      	movs	r3, #0
     cd2:	5cc1      	ldrb	r1, [r0, r3]
     cd4:	001a      	movs	r2, r3
     cd6:	446a      	add	r2, sp
     cd8:	7211      	strb	r1, [r2, #8]
	for (i = 0; i < m->length; i++) {
     cda:	3301      	adds	r3, #1
     cdc:	429c      	cmp	r4, r3
     cde:	d1f8      	bne.n	cd2 <can_send_standard_message+0x36>
		
	}
	can_set_tx_buffer_element(&can_instance, &tx_element,CAN_TX_BUFFER_INDEX);
     ce0:	4c09      	ldr	r4, [pc, #36]	; (d08 <can_send_standard_message+0x6c>)
     ce2:	2200      	movs	r2, #0
     ce4:	4669      	mov	r1, sp
     ce6:	0020      	movs	r0, r4
     ce8:	4b08      	ldr	r3, [pc, #32]	; (d0c <can_send_standard_message+0x70>)
     cea:	4798      	blx	r3
	if (module_inst->hw->CCCR.reg & CAN_CCCR_CCE) {
     cec:	6823      	ldr	r3, [r4, #0]
     cee:	699a      	ldr	r2, [r3, #24]
     cf0:	0792      	lsls	r2, r2, #30
     cf2:	d402      	bmi.n	cfa <can_send_standard_message+0x5e>
	module_inst->hw->TXBAR.reg = trig_mask;
     cf4:	2101      	movs	r1, #1
     cf6:	22d0      	movs	r2, #208	; 0xd0
     cf8:	5099      	str	r1, [r3, r2]
	can_tx_transfer_request(&can_instance, 1 << CAN_TX_BUFFER_INDEX);
}
     cfa:	b004      	add	sp, #16
     cfc:	bd10      	pop	{r4, pc}
     cfe:	46c0      	nop			; (mov r8, r8)
     d00:	1ffc0000 	.word	0x1ffc0000
     d04:	fff0ffff 	.word	0xfff0ffff
     d08:	20000a00 	.word	0x20000a00
     d0c:	00000a05 	.word	0x00000a05

00000d10 <configure_can>:

void configure_can(void)
{
     d10:	b5f0      	push	{r4, r5, r6, r7, lr}
     d12:	46c6      	mov	lr, r8
     d14:	b500      	push	{lr}
     d16:	b08a      	sub	sp, #40	; 0x28
	config->direction    = SYSTEM_PINMUX_PIN_DIR_INPUT;
     d18:	ae09      	add	r6, sp, #36	; 0x24
     d1a:	2400      	movs	r4, #0
     d1c:	7074      	strb	r4, [r6, #1]
	config->input_pull   = SYSTEM_PINMUX_PIN_PULL_UP;
     d1e:	2501      	movs	r5, #1
     d20:	70b5      	strb	r5, [r6, #2]
	config->powersave    = false;
     d22:	70f4      	strb	r4, [r6, #3]
	/* Initialize the memory. */

	/* Set up the CAN TX/RX pins */
	struct system_pinmux_config pin_config;
	system_pinmux_get_config_defaults(&pin_config);
	pin_config.mux_position = MUX_PA24G_CAN0_TX ;
     d24:	2306      	movs	r3, #6
     d26:	4698      	mov	r8, r3
     d28:	7033      	strb	r3, [r6, #0]
	system_pinmux_pin_set_config(PIN_PA24G_CAN0_TX, &pin_config);
     d2a:	0031      	movs	r1, r6
     d2c:	2018      	movs	r0, #24
     d2e:	4f20      	ldr	r7, [pc, #128]	; (db0 <configure_can+0xa0>)
     d30:	47b8      	blx	r7
	pin_config.mux_position = MUX_PA25G_CAN0_RX;
     d32:	4643      	mov	r3, r8
     d34:	7033      	strb	r3, [r6, #0]
	system_pinmux_pin_set_config(PIN_PA25G_CAN0_RX, &pin_config);
     d36:	0031      	movs	r1, r6
     d38:	2019      	movs	r0, #25
     d3a:	47b8      	blx	r7
	config->clock_source = GCLK_GENERATOR_8;
     d3c:	2308      	movs	r3, #8
     d3e:	466a      	mov	r2, sp
     d40:	7013      	strb	r3, [r2, #0]
	config->run_in_standby = false;
     d42:	7054      	strb	r4, [r2, #1]
	config->watchdog_configuration = 0x00;
     d44:	7094      	strb	r4, [r2, #2]
	config->transmit_pause = true;
     d46:	70d5      	strb	r5, [r2, #3]
	config->edge_filtering = true;
     d48:	7115      	strb	r5, [r2, #4]
	config->protocol_exception_handling = true;
     d4a:	7155      	strb	r5, [r2, #5]
	config->automatic_retransmission = true;
     d4c:	7195      	strb	r5, [r2, #6]
	config->clock_stop_request = false;
     d4e:	71d4      	strb	r4, [r2, #7]
	config->clock_stop_acknowledge = false;
     d50:	7214      	strb	r4, [r2, #8]
	config->timestamp_prescaler = 0;
     d52:	7254      	strb	r4, [r2, #9]
	config->timeout_period = 0xFFFF;
     d54:	2301      	movs	r3, #1
     d56:	425b      	negs	r3, r3
     d58:	8153      	strh	r3, [r2, #10]
	config->timeout_mode = CAN_TIMEOUT_CONTINUES;
     d5a:	7314      	strb	r4, [r2, #12]
	config->timeout_enable = false;
     d5c:	7354      	strb	r4, [r2, #13]
	config->tdc_enable = false;
     d5e:	7394      	strb	r4, [r2, #14]
	config->delay_compensation_offset = 0;
     d60:	73d4      	strb	r4, [r2, #15]
	config->delay_compensation_filter_window_length = 0;
     d62:	7414      	strb	r4, [r2, #16]
	config->nonmatching_frames_action_standard = CAN_NONMATCHING_FRAMES_REJECT;
     d64:	2302      	movs	r3, #2
     d66:	7453      	strb	r3, [r2, #17]
	config->nonmatching_frames_action_extended = CAN_NONMATCHING_FRAMES_REJECT;
     d68:	7493      	strb	r3, [r2, #18]
	config->remote_frames_standard_reject = true;
     d6a:	74d5      	strb	r5, [r2, #19]
	config->remote_frames_extended_reject = true;
     d6c:	7515      	strb	r5, [r2, #20]
	config->extended_id_mask = 0x1FFFFFFF;
     d6e:	4b11      	ldr	r3, [pc, #68]	; (db4 <configure_can+0xa4>)
     d70:	9306      	str	r3, [sp, #24]
	config->rx_fifo_0_overwrite = true;
     d72:	7715      	strb	r5, [r2, #28]
	config->rx_fifo_0_watermark = 0;
     d74:	7754      	strb	r4, [r2, #29]
	config->rx_fifo_1_overwrite = true;
     d76:	7795      	strb	r5, [r2, #30]
	config->rx_fifo_1_watermark = 0;
     d78:	77d4      	strb	r4, [r2, #31]
	config->tx_queue_mode = false;
     d7a:	2320      	movs	r3, #32
     d7c:	54d4      	strb	r4, [r2, r3]
	config->tx_event_fifo_watermark = 0;
     d7e:	3301      	adds	r3, #1
     d80:	54d4      	strb	r4, [r2, r3]
	/* Initialize the module. */
	struct can_config config_can;
	can_get_config_defaults(&config_can);
	can_init(&can_instance, CAN0, &config_can);
     d82:	4c0d      	ldr	r4, [pc, #52]	; (db8 <configure_can+0xa8>)
     d84:	490d      	ldr	r1, [pc, #52]	; (dbc <configure_can+0xac>)
     d86:	0020      	movs	r0, r4
     d88:	4b0d      	ldr	r3, [pc, #52]	; (dc0 <configure_can+0xb0>)
     d8a:	4798      	blx	r3
	can_start(&can_instance);
     d8c:	0020      	movs	r0, r4
     d8e:	4b0d      	ldr	r3, [pc, #52]	; (dc4 <configure_can+0xb4>)
     d90:	4798      	blx	r3
     d92:	2280      	movs	r2, #128	; 0x80
     d94:	0212      	lsls	r2, r2, #8
     d96:	4b0c      	ldr	r3, [pc, #48]	; (dc8 <configure_can+0xb8>)
     d98:	601a      	str	r2, [r3, #0]
 * \param[in] source  Interrupt source type
 */
static inline void can_enable_interrupt(struct can_module *const module_inst,
		const enum can_interrupt_source source)
{
	module_inst->hw->IE.reg |= source;
     d9a:	6822      	ldr	r2, [r4, #0]
     d9c:	6d51      	ldr	r1, [r2, #84]	; 0x54
     d9e:	23c0      	movs	r3, #192	; 0xc0
     da0:	055b      	lsls	r3, r3, #21
     da2:	430b      	orrs	r3, r1
     da4:	6553      	str	r3, [r2, #84]	; 0x54
	/* Enable interrupts for this CAN module */
	system_interrupt_enable(SYSTEM_INTERRUPT_MODULE_CAN0);
	can_enable_interrupt(&can_instance, CAN_PROTOCOL_ERROR_ARBITRATION | CAN_PROTOCOL_ERROR_DATA);
}
     da6:	b00a      	add	sp, #40	; 0x28
     da8:	bc04      	pop	{r2}
     daa:	4690      	mov	r8, r2
     dac:	bdf0      	pop	{r4, r5, r6, r7, pc}
     dae:	46c0      	nop			; (mov r8, r8)
     db0:	000011b9 	.word	0x000011b9
     db4:	1fffffff 	.word	0x1fffffff
     db8:	20000a00 	.word	0x20000a00
     dbc:	42001c00 	.word	0x42001c00
     dc0:	000006f1 	.word	0x000006f1
     dc4:	000009ed 	.word	0x000009ed
     dc8:	e000e100 	.word	0xe000e100

00000dcc <system_board_init>:
{
	/* This function is meant to contain board-specific initialization code
	 * for, e.g., the I/O pins. The initialization can rely on application-
	 * specific board configuration, found in conf_board.h.
	 */
     dcc:	4770      	bx	lr
	...

00000dd0 <cpu_irq_enter_critical>:
volatile bool g_interrupt_enabled = true;
#endif

void cpu_irq_enter_critical(void)
{
	if (cpu_irq_critical_section_counter == 0) {
     dd0:	4b0c      	ldr	r3, [pc, #48]	; (e04 <cpu_irq_enter_critical+0x34>)
     dd2:	681b      	ldr	r3, [r3, #0]
     dd4:	2b00      	cmp	r3, #0
     dd6:	d106      	bne.n	de6 <cpu_irq_enter_critical+0x16>
 */
__attribute__( ( always_inline ) ) __STATIC_INLINE uint32_t __get_PRIMASK(void)
{
  uint32_t result;

  __ASM volatile ("MRS %0, primask" : "=r" (result) );
     dd8:	f3ef 8310 	mrs	r3, PRIMASK
		if (cpu_irq_is_enabled()) {
     ddc:	2b00      	cmp	r3, #0
     dde:	d007      	beq.n	df0 <cpu_irq_enter_critical+0x20>
			cpu_irq_disable();
			cpu_irq_prev_interrupt_state = true;
		} else {
			/* Make sure the to save the prev state as false */
			cpu_irq_prev_interrupt_state = false;
     de0:	2200      	movs	r2, #0
     de2:	4b09      	ldr	r3, [pc, #36]	; (e08 <cpu_irq_enter_critical+0x38>)
     de4:	701a      	strb	r2, [r3, #0]
		}

	}

	cpu_irq_critical_section_counter++;
     de6:	4a07      	ldr	r2, [pc, #28]	; (e04 <cpu_irq_enter_critical+0x34>)
     de8:	6813      	ldr	r3, [r2, #0]
     dea:	3301      	adds	r3, #1
     dec:	6013      	str	r3, [r2, #0]
}
     dee:	4770      	bx	lr
  __ASM volatile ("cpsid i" : : : "memory");
     df0:	b672      	cpsid	i
    This function ensures the apparent order of the explicit memory operations before
    and after the instruction, without ensuring their completion.
 */
__attribute__( ( always_inline ) ) __STATIC_INLINE void __DMB(void)
{
  __ASM volatile ("dmb");
     df2:	f3bf 8f5f 	dmb	sy
			cpu_irq_disable();
     df6:	2200      	movs	r2, #0
     df8:	4b04      	ldr	r3, [pc, #16]	; (e0c <cpu_irq_enter_critical+0x3c>)
     dfa:	701a      	strb	r2, [r3, #0]
			cpu_irq_prev_interrupt_state = true;
     dfc:	3201      	adds	r2, #1
     dfe:	4b02      	ldr	r3, [pc, #8]	; (e08 <cpu_irq_enter_critical+0x38>)
     e00:	701a      	strb	r2, [r3, #0]
     e02:	e7f0      	b.n	de6 <cpu_irq_enter_critical+0x16>
     e04:	200009a8 	.word	0x200009a8
     e08:	200009ac 	.word	0x200009ac
     e0c:	20000008 	.word	0x20000008

00000e10 <cpu_irq_leave_critical>:
void cpu_irq_leave_critical(void)
{
	/* Check if the user is trying to leave a critical section when not in a critical section */
	Assert(cpu_irq_critical_section_counter > 0);

	cpu_irq_critical_section_counter--;
     e10:	4b08      	ldr	r3, [pc, #32]	; (e34 <cpu_irq_leave_critical+0x24>)
     e12:	681a      	ldr	r2, [r3, #0]
     e14:	3a01      	subs	r2, #1
     e16:	601a      	str	r2, [r3, #0]

	/* Only enable global interrupts when the counter reaches 0 and the state of the global interrupt flag
	   was enabled when entering critical state */
	if ((cpu_irq_critical_section_counter == 0) && (cpu_irq_prev_interrupt_state)) {
     e18:	681b      	ldr	r3, [r3, #0]
     e1a:	2b00      	cmp	r3, #0
     e1c:	d109      	bne.n	e32 <cpu_irq_leave_critical+0x22>
     e1e:	4b06      	ldr	r3, [pc, #24]	; (e38 <cpu_irq_leave_critical+0x28>)
     e20:	781b      	ldrb	r3, [r3, #0]
     e22:	2b00      	cmp	r3, #0
     e24:	d005      	beq.n	e32 <cpu_irq_leave_critical+0x22>
		cpu_irq_enable();
     e26:	2201      	movs	r2, #1
     e28:	4b04      	ldr	r3, [pc, #16]	; (e3c <cpu_irq_leave_critical+0x2c>)
     e2a:	701a      	strb	r2, [r3, #0]
     e2c:	f3bf 8f5f 	dmb	sy
  __ASM volatile ("cpsie i" : : : "memory");
     e30:	b662      	cpsie	i
	}
}
     e32:	4770      	bx	lr
     e34:	200009a8 	.word	0x200009a8
     e38:	200009ac 	.word	0x200009ac
     e3c:	20000008 	.word	0x20000008

00000e40 <system_clock_source_get_hz>:
 *
 * \returns Frequency of the given clock source, in Hz.
 */
uint32_t system_clock_source_get_hz(
		const enum system_clock_source clock_source)
{
     e40:	b510      	push	{r4, lr}
	switch (clock_source) {
     e42:	2807      	cmp	r0, #7
     e44:	d803      	bhi.n	e4e <system_clock_source_get_hz+0xe>
     e46:	0080      	lsls	r0, r0, #2
     e48:	4b0f      	ldr	r3, [pc, #60]	; (e88 <system_clock_source_get_hz+0x48>)
     e4a:	581b      	ldr	r3, [r3, r0]
     e4c:	469f      	mov	pc, r3
		}

		return _system_clock_inst.dpll.frequency;

	default:
		return 0;
     e4e:	2000      	movs	r0, #0
     e50:	e018      	b.n	e84 <system_clock_source_get_hz+0x44>
		return _system_clock_inst.xosc.frequency;
     e52:	4b0e      	ldr	r3, [pc, #56]	; (e8c <system_clock_source_get_hz+0x4c>)
     e54:	6858      	ldr	r0, [r3, #4]
     e56:	e015      	b.n	e84 <system_clock_source_get_hz+0x44>
		return 48000000UL / (OSCCTRL->OSC48MDIV.bit.DIV + 1);
     e58:	4b0d      	ldr	r3, [pc, #52]	; (e90 <system_clock_source_get_hz+0x50>)
     e5a:	7d59      	ldrb	r1, [r3, #21]
     e5c:	0709      	lsls	r1, r1, #28
     e5e:	0f09      	lsrs	r1, r1, #28
     e60:	3101      	adds	r1, #1
     e62:	480c      	ldr	r0, [pc, #48]	; (e94 <system_clock_source_get_hz+0x54>)
     e64:	4b0c      	ldr	r3, [pc, #48]	; (e98 <system_clock_source_get_hz+0x58>)
     e66:	4798      	blx	r3
     e68:	e00c      	b.n	e84 <system_clock_source_get_hz+0x44>
		return _system_clock_inst.xosc32k.frequency;
     e6a:	4b08      	ldr	r3, [pc, #32]	; (e8c <system_clock_source_get_hz+0x4c>)
     e6c:	6898      	ldr	r0, [r3, #8]
     e6e:	e009      	b.n	e84 <system_clock_source_get_hz+0x44>
		if (!(OSCCTRL->DPLLCTRLA.reg & OSCCTRL_DPLLCTRLA_ENABLE)) {
     e70:	4b07      	ldr	r3, [pc, #28]	; (e90 <system_clock_source_get_hz+0x50>)
     e72:	7f1b      	ldrb	r3, [r3, #28]
			return 0;
     e74:	2000      	movs	r0, #0
		if (!(OSCCTRL->DPLLCTRLA.reg & OSCCTRL_DPLLCTRLA_ENABLE)) {
     e76:	079b      	lsls	r3, r3, #30
     e78:	d504      	bpl.n	e84 <system_clock_source_get_hz+0x44>
		return _system_clock_inst.dpll.frequency;
     e7a:	4b04      	ldr	r3, [pc, #16]	; (e8c <system_clock_source_get_hz+0x4c>)
     e7c:	6818      	ldr	r0, [r3, #0]
     e7e:	e001      	b.n	e84 <system_clock_source_get_hz+0x44>
		return 32768UL;
     e80:	2080      	movs	r0, #128	; 0x80
     e82:	0200      	lsls	r0, r0, #8
	}
}
     e84:	bd10      	pop	{r4, pc}
     e86:	46c0      	nop			; (mov r8, r8)
     e88:	00001964 	.word	0x00001964
     e8c:	200009b0 	.word	0x200009b0
     e90:	40001000 	.word	0x40001000
     e94:	02dc6c00 	.word	0x02dc6c00
     e98:	000016a5 	.word	0x000016a5

00000e9c <system_clock_init>:
 * \note OSC48M is always enabled and if the user selects other clocks for GCLK generators,
 * the OSC48M default enable can be disabled after system_clock_init. Make sure the
 * clock switches successfully before disabling OSC48M.
 */
void system_clock_init(void)
{
     e9c:	b500      	push	{lr}
     e9e:	b085      	sub	sp, #20
	/* Various bits in the INTFLAG register can be set to one at startup.
	   This will ensure that these bits are cleared */
	SUPC->INTFLAG.reg = SUPC_INTFLAG_BODVDDRDY | SUPC_INTFLAG_BODVDDDET;
     ea0:	2203      	movs	r2, #3
     ea2:	4b10      	ldr	r3, [pc, #64]	; (ee4 <system_clock_init+0x48>)
     ea4:	609a      	str	r2, [r3, #8]
static inline void system_flash_set_waitstates(uint8_t wait_states)
{
	Assert(NVMCTRL_CTRLB_RWS((uint32_t)wait_states) ==
			((uint32_t)wait_states << NVMCTRL_CTRLB_RWS_Pos));

	NVMCTRL->CTRLB.bit.RWS = wait_states;
     ea6:	4a10      	ldr	r2, [pc, #64]	; (ee8 <system_clock_init+0x4c>)
     ea8:	6853      	ldr	r3, [r2, #4]
     eaa:	211e      	movs	r1, #30
     eac:	438b      	bics	r3, r1
     eae:	6053      	str	r3, [r2, #4]
	system_clock_source_osc32k_set_config(&osc32k_conf);
	system_clock_source_enable(SYSTEM_CLOCK_SOURCE_OSC32K);
#endif

	/* OSC48M */
	OSCCTRL->OSC48MCTRL.reg |= (CONF_CLOCK_OSC48M_ON_DEMAND << OSCCTRL_OSC48MCTRL_ONDEMAND_Pos)
     eb0:	4a0e      	ldr	r2, [pc, #56]	; (eec <system_clock_init+0x50>)
     eb2:	7d13      	ldrb	r3, [r2, #20]
     eb4:	3162      	adds	r1, #98	; 0x62
     eb6:	430b      	orrs	r3, r1
     eb8:	7513      	strb	r3, [r2, #20]
		while(OSCCTRL->OSC48MSYNCBUSY.reg) ;
	}

	/* GCLK */
#if CONF_CLOCK_CONFIGURE_GCLK == true
	system_gclk_init();
     eba:	4b0d      	ldr	r3, [pc, #52]	; (ef0 <system_clock_init+0x54>)
     ebc:	4798      	blx	r3
	MCLK->CPUDIV.reg = MCLK_CPUDIV_CPUDIV(1 << divider);
     ebe:	2301      	movs	r3, #1
     ec0:	4a0c      	ldr	r2, [pc, #48]	; (ef4 <system_clock_init+0x58>)
     ec2:	7113      	strb	r3, [r2, #4]
	config->division_factor    = 1;
     ec4:	a901      	add	r1, sp, #4
     ec6:	604b      	str	r3, [r1, #4]
	config->high_when_disabled = false;
     ec8:	2300      	movs	r3, #0
     eca:	704b      	strb	r3, [r1, #1]
	config->source_clock       = GCLK_SOURCE_OSC48M;
     ecc:	2206      	movs	r2, #6
     ece:	700a      	strb	r2, [r1, #0]
	config->run_in_standby     = false;
     ed0:	720b      	strb	r3, [r1, #8]
	config->output_enable      = false;
     ed2:	724b      	strb	r3, [r1, #9]
	system_cpu_clock_set_divider(CONF_CLOCK_CPU_DIVIDER);

	/* GCLK 0 */
#if CONF_CLOCK_CONFIGURE_GCLK == true
	/* Configure the main GCLK last as it might depend on other generators */
	_CONF_CLOCK_GCLK_CONFIG(0, ~);
     ed4:	2000      	movs	r0, #0
     ed6:	4b08      	ldr	r3, [pc, #32]	; (ef8 <system_clock_init+0x5c>)
     ed8:	4798      	blx	r3
     eda:	2000      	movs	r0, #0
     edc:	4b07      	ldr	r3, [pc, #28]	; (efc <system_clock_init+0x60>)
     ede:	4798      	blx	r3
#endif

}
     ee0:	b005      	add	sp, #20
     ee2:	bd00      	pop	{pc}
     ee4:	40001800 	.word	0x40001800
     ee8:	41004000 	.word	0x41004000
     eec:	40001000 	.word	0x40001000
     ef0:	00000f01 	.word	0x00000f01
     ef4:	40000800 	.word	0x40000800
     ef8:	00000f25 	.word	0x00000f25
     efc:	00000fd1 	.word	0x00000fd1

00000f00 <system_gclk_init>:
			MCLK->APBAMASK.reg |= mask;
     f00:	4a06      	ldr	r2, [pc, #24]	; (f1c <system_gclk_init+0x1c>)
     f02:	6953      	ldr	r3, [r2, #20]
     f04:	2180      	movs	r1, #128	; 0x80
     f06:	430b      	orrs	r3, r1
     f08:	6153      	str	r3, [r2, #20]
{
	/* Turn on the digital interface clock */
	system_apb_clock_set_mask(SYSTEM_CLOCK_APB_APBA, MCLK_APBAMASK_GCLK);

	/* Software reset the module to ensure it is re-initialized correctly */
	GCLK->CTRLA.reg = GCLK_CTRLA_SWRST;
     f0a:	2201      	movs	r2, #1
     f0c:	4b04      	ldr	r3, [pc, #16]	; (f20 <system_gclk_init+0x20>)
     f0e:	701a      	strb	r2, [r3, #0]
	while (GCLK->CTRLA.reg & GCLK_CTRLA_SWRST) {
     f10:	0019      	movs	r1, r3
     f12:	780b      	ldrb	r3, [r1, #0]
     f14:	4213      	tst	r3, r2
     f16:	d1fc      	bne.n	f12 <system_gclk_init+0x12>
		/* Wait for reset to complete */
	}
}
     f18:	4770      	bx	lr
     f1a:	46c0      	nop			; (mov r8, r8)
     f1c:	40000800 	.word	0x40000800
     f20:	40001c00 	.word	0x40001c00

00000f24 <system_gclk_gen_set_config>:
 * \param[in] config     Configuration settings for the generator
 */
void system_gclk_gen_set_config(
		const uint8_t generator,
		struct system_gclk_gen_config *const config)
{
     f24:	b570      	push	{r4, r5, r6, lr}
     f26:	0004      	movs	r4, r0
	/* Cache new register configurations to minimize sync requirements. */
	uint32_t new_genctrl_config ;


	/* Select the requested source clock for the generator */
	new_genctrl_config = config->source_clock << GCLK_GENCTRL_SRC_Pos;
     f28:	780d      	ldrb	r5, [r1, #0]

	/* Configure the clock to be either high or low when disabled */
	if (config->high_when_disabled) {
     f2a:	784b      	ldrb	r3, [r1, #1]
     f2c:	2b00      	cmp	r3, #0
     f2e:	d002      	beq.n	f36 <system_gclk_gen_set_config+0x12>
		new_genctrl_config |= GCLK_GENCTRL_OOV;
     f30:	2380      	movs	r3, #128	; 0x80
     f32:	00db      	lsls	r3, r3, #3
     f34:	431d      	orrs	r5, r3
	}

	/* Configure if the clock output to I/O pin should be enabled. */
	if (config->output_enable) {
     f36:	7a4b      	ldrb	r3, [r1, #9]
     f38:	2b00      	cmp	r3, #0
     f3a:	d002      	beq.n	f42 <system_gclk_gen_set_config+0x1e>
		new_genctrl_config |= GCLK_GENCTRL_OE;
     f3c:	2380      	movs	r3, #128	; 0x80
     f3e:	011b      	lsls	r3, r3, #4
     f40:	431d      	orrs	r5, r3
	}

	/* Set division factor */
	if (config->division_factor > 1) {
     f42:	6848      	ldr	r0, [r1, #4]
     f44:	2801      	cmp	r0, #1
     f46:	d90f      	bls.n	f68 <system_gclk_gen_set_config+0x44>
		/* Check if division is a power of two */
		if (((config->division_factor & (config->division_factor - 1)) == 0)) {
     f48:	1e43      	subs	r3, r0, #1
     f4a:	4218      	tst	r0, r3
     f4c:	d131      	bne.n	fb2 <system_gclk_gen_set_config+0x8e>
			 * register */

			uint32_t div2_count = 0;

			uint32_t mask;
			for (mask = (1UL << 1); mask < config->division_factor;
     f4e:	2802      	cmp	r0, #2
     f50:	d92d      	bls.n	fae <system_gclk_gen_set_config+0x8a>
     f52:	2302      	movs	r3, #2
     f54:	2200      	movs	r2, #0
						mask <<= 1) {
				div2_count++;
     f56:	3201      	adds	r2, #1
						mask <<= 1) {
     f58:	005b      	lsls	r3, r3, #1
			for (mask = (1UL << 1); mask < config->division_factor;
     f5a:	4298      	cmp	r0, r3
     f5c:	d8fb      	bhi.n	f56 <system_gclk_gen_set_config+0x32>
     f5e:	2380      	movs	r3, #128	; 0x80
     f60:	015b      	lsls	r3, r3, #5
     f62:	431d      	orrs	r5, r3
			}

			/* Set binary divider power of 2 division factor */
			new_genctrl_config  |= div2_count << GCLK_GENCTRL_DIV_Pos;
     f64:	0412      	lsls	r2, r2, #16
			new_genctrl_config |= GCLK_GENCTRL_DIVSEL;
     f66:	4315      	orrs	r5, r2
		}

	}

	/* Enable or disable the clock in standby mode */
	if (config->run_in_standby) {
     f68:	7a0b      	ldrb	r3, [r1, #8]
     f6a:	2b00      	cmp	r3, #0
     f6c:	d002      	beq.n	f74 <system_gclk_gen_set_config+0x50>
		new_genctrl_config |= GCLK_GENCTRL_RUNSTDBY;
     f6e:	2380      	movs	r3, #128	; 0x80
     f70:	019b      	lsls	r3, r3, #6
     f72:	431d      	orrs	r5, r3
	 if (GCLK->SYNCBUSY.reg & GCLK_SYNCBUSY_GENCTRL(1 << generator )){
     f74:	2604      	movs	r6, #4
     f76:	40a6      	lsls	r6, r4
     f78:	4911      	ldr	r1, [pc, #68]	; (fc0 <system_gclk_gen_set_config+0x9c>)
     f7a:	4a12      	ldr	r2, [pc, #72]	; (fc4 <system_gclk_gen_set_config+0xa0>)
     f7c:	684b      	ldr	r3, [r1, #4]
     f7e:	4013      	ands	r3, r2
	}

	while (system_gclk_is_syncing(generator)) {
     f80:	421e      	tst	r6, r3
     f82:	d1fb      	bne.n	f7c <system_gclk_gen_set_config+0x58>
	cpu_irq_enter_critical();
     f84:	4b10      	ldr	r3, [pc, #64]	; (fc8 <system_gclk_gen_set_config+0xa4>)
     f86:	4798      	blx	r3
     f88:	00a4      	lsls	r4, r4, #2
     f8a:	4b0d      	ldr	r3, [pc, #52]	; (fc0 <system_gclk_gen_set_config+0x9c>)
     f8c:	469c      	mov	ip, r3
     f8e:	4464      	add	r4, ip
		/* Wait for synchronization */
	};

	system_interrupt_enter_critical_section();

	GCLK->GENCTRL[generator].reg = new_genctrl_config | (GCLK->GENCTRL[generator].reg & GCLK_GENCTRL_GENEN);
     f90:	6a22      	ldr	r2, [r4, #32]
     f92:	2380      	movs	r3, #128	; 0x80
     f94:	005b      	lsls	r3, r3, #1
     f96:	401a      	ands	r2, r3
     f98:	432a      	orrs	r2, r5
     f9a:	6222      	str	r2, [r4, #32]
	 if (GCLK->SYNCBUSY.reg & GCLK_SYNCBUSY_GENCTRL(1 << generator )){
     f9c:	4661      	mov	r1, ip
     f9e:	4a09      	ldr	r2, [pc, #36]	; (fc4 <system_gclk_gen_set_config+0xa0>)
     fa0:	684b      	ldr	r3, [r1, #4]
     fa2:	4013      	ands	r3, r2

	while (system_gclk_is_syncing(generator)) {
     fa4:	421e      	tst	r6, r3
     fa6:	d1fb      	bne.n	fa0 <system_gclk_gen_set_config+0x7c>
	cpu_irq_leave_critical();
     fa8:	4b08      	ldr	r3, [pc, #32]	; (fcc <system_gclk_gen_set_config+0xa8>)
     faa:	4798      	blx	r3
		/* Wait for synchronization */
	};

	system_interrupt_leave_critical_section();
}
     fac:	bd70      	pop	{r4, r5, r6, pc}
			for (mask = (1UL << 1); mask < config->division_factor;
     fae:	2200      	movs	r2, #0
     fb0:	e7d5      	b.n	f5e <system_gclk_gen_set_config+0x3a>
					(config->division_factor) << GCLK_GENCTRL_DIV_Pos;
     fb2:	0400      	lsls	r0, r0, #16
			new_genctrl_config |= GCLK_GENCTRL_IDC;
     fb4:	2380      	movs	r3, #128	; 0x80
     fb6:	009b      	lsls	r3, r3, #2
     fb8:	4318      	orrs	r0, r3
     fba:	4305      	orrs	r5, r0
     fbc:	e7d4      	b.n	f68 <system_gclk_gen_set_config+0x44>
     fbe:	46c0      	nop			; (mov r8, r8)
     fc0:	40001c00 	.word	0x40001c00
     fc4:	000007fc 	.word	0x000007fc
     fc8:	00000dd1 	.word	0x00000dd1
     fcc:	00000e11 	.word	0x00000e11

00000fd0 <system_gclk_gen_enable>:
 *
 * \param[in] generator  Generic Clock Generator index to enable
 */
void system_gclk_gen_enable(
		const uint8_t generator)
{
     fd0:	b510      	push	{r4, lr}
     fd2:	0004      	movs	r4, r0
	 if (GCLK->SYNCBUSY.reg & GCLK_SYNCBUSY_GENCTRL(1 << generator )){
     fd4:	2204      	movs	r2, #4
     fd6:	4082      	lsls	r2, r0
     fd8:	4809      	ldr	r0, [pc, #36]	; (1000 <system_gclk_gen_enable+0x30>)
     fda:	490a      	ldr	r1, [pc, #40]	; (1004 <system_gclk_gen_enable+0x34>)
     fdc:	6843      	ldr	r3, [r0, #4]
     fde:	400b      	ands	r3, r1
	while (system_gclk_is_syncing(generator)) {
     fe0:	421a      	tst	r2, r3
     fe2:	d1fb      	bne.n	fdc <system_gclk_gen_enable+0xc>
	cpu_irq_enter_critical();
     fe4:	4b08      	ldr	r3, [pc, #32]	; (1008 <system_gclk_gen_enable+0x38>)
     fe6:	4798      	blx	r3
     fe8:	00a4      	lsls	r4, r4, #2
     fea:	4b05      	ldr	r3, [pc, #20]	; (1000 <system_gclk_gen_enable+0x30>)
     fec:	469c      	mov	ip, r3
     fee:	4464      	add	r4, ip
	};

	system_interrupt_enter_critical_section();

	/* Enable generator */
	GCLK->GENCTRL[generator].reg |= GCLK_GENCTRL_GENEN;
     ff0:	6a22      	ldr	r2, [r4, #32]
     ff2:	2380      	movs	r3, #128	; 0x80
     ff4:	005b      	lsls	r3, r3, #1
     ff6:	4313      	orrs	r3, r2
     ff8:	6223      	str	r3, [r4, #32]
	cpu_irq_leave_critical();
     ffa:	4b04      	ldr	r3, [pc, #16]	; (100c <system_gclk_gen_enable+0x3c>)
     ffc:	4798      	blx	r3

	system_interrupt_leave_critical_section();
}
     ffe:	bd10      	pop	{r4, pc}
    1000:	40001c00 	.word	0x40001c00
    1004:	000007fc 	.word	0x000007fc
    1008:	00000dd1 	.word	0x00000dd1
    100c:	00000e11 	.word	0x00000e11

00001010 <system_gclk_gen_get_hz>:
 *
 * \return The frequency of the generic clock generator, in Hz.
 */
uint32_t system_gclk_gen_get_hz(
		const uint8_t generator)
{
    1010:	b5f8      	push	{r3, r4, r5, r6, r7, lr}
    1012:	0004      	movs	r4, r0
	 if (GCLK->SYNCBUSY.reg & GCLK_SYNCBUSY_GENCTRL(1 << generator )){
    1014:	2204      	movs	r2, #4
    1016:	4082      	lsls	r2, r0
    1018:	4812      	ldr	r0, [pc, #72]	; (1064 <system_gclk_gen_get_hz+0x54>)
    101a:	4913      	ldr	r1, [pc, #76]	; (1068 <system_gclk_gen_get_hz+0x58>)
    101c:	6843      	ldr	r3, [r0, #4]
    101e:	400b      	ands	r3, r1
	while (system_gclk_is_syncing(generator)) {
    1020:	421a      	tst	r2, r3
    1022:	d1fb      	bne.n	101c <system_gclk_gen_get_hz+0xc>
	cpu_irq_enter_critical();
    1024:	4b11      	ldr	r3, [pc, #68]	; (106c <system_gclk_gen_get_hz+0x5c>)
    1026:	4798      	blx	r3

	system_interrupt_enter_critical_section();

	/* Get the frequency of the source connected to the GCLK generator */
	uint32_t gen_input_hz = system_clock_source_get_hz(
			(enum system_clock_source)GCLK->GENCTRL[generator].bit.SRC);
    1028:	4f0e      	ldr	r7, [pc, #56]	; (1064 <system_gclk_gen_get_hz+0x54>)
    102a:	3408      	adds	r4, #8
    102c:	00a4      	lsls	r4, r4, #2
    102e:	59e0      	ldr	r0, [r4, r7]
    1030:	0740      	lsls	r0, r0, #29
    1032:	0f40      	lsrs	r0, r0, #29
	uint32_t gen_input_hz = system_clock_source_get_hz(
    1034:	4b0e      	ldr	r3, [pc, #56]	; (1070 <system_gclk_gen_get_hz+0x60>)
    1036:	4798      	blx	r3
    1038:	0006      	movs	r6, r0

	uint8_t divsel = GCLK->GENCTRL[generator].bit.DIVSEL;
    103a:	59e5      	ldr	r5, [r4, r7]
    103c:	04ed      	lsls	r5, r5, #19
    103e:	0fed      	lsrs	r5, r5, #31
	uint32_t divider = GCLK->GENCTRL[generator].bit.DIV;
    1040:	59e4      	ldr	r4, [r4, r7]
    1042:	0c24      	lsrs	r4, r4, #16
	cpu_irq_leave_critical();
    1044:	4b0b      	ldr	r3, [pc, #44]	; (1074 <system_gclk_gen_get_hz+0x64>)
    1046:	4798      	blx	r3

	system_interrupt_leave_critical_section();

	/* Check if the generator is using fractional or binary division */
	if (!divsel && divider > 1) {
    1048:	2d00      	cmp	r5, #0
    104a:	d107      	bne.n	105c <system_gclk_gen_get_hz+0x4c>
    104c:	2c01      	cmp	r4, #1
    104e:	d907      	bls.n	1060 <system_gclk_gen_get_hz+0x50>
		gen_input_hz /= divider;
    1050:	0021      	movs	r1, r4
    1052:	0030      	movs	r0, r6
    1054:	4b08      	ldr	r3, [pc, #32]	; (1078 <system_gclk_gen_get_hz+0x68>)
    1056:	4798      	blx	r3
    1058:	0006      	movs	r6, r0
    105a:	e001      	b.n	1060 <system_gclk_gen_get_hz+0x50>
	} else if (divsel) {
		gen_input_hz >>= (divider+1);
    105c:	3401      	adds	r4, #1
    105e:	40e6      	lsrs	r6, r4
	}

	return gen_input_hz;
}
    1060:	0030      	movs	r0, r6
    1062:	bdf8      	pop	{r3, r4, r5, r6, r7, pc}
    1064:	40001c00 	.word	0x40001c00
    1068:	000007fc 	.word	0x000007fc
    106c:	00000dd1 	.word	0x00000dd1
    1070:	00000e41 	.word	0x00000e41
    1074:	00000e11 	.word	0x00000e11
    1078:	000016a5 	.word	0x000016a5

0000107c <system_gclk_chan_enable>:
 *
 * \param[in] channel   Generic Clock channel to enable
 */
void system_gclk_chan_enable(
		const uint8_t channel)
{
    107c:	b510      	push	{r4, lr}
    107e:	0004      	movs	r4, r0
	cpu_irq_enter_critical();
    1080:	4b09      	ldr	r3, [pc, #36]	; (10a8 <system_gclk_chan_enable+0x2c>)
    1082:	4798      	blx	r3
    1084:	00a0      	lsls	r0, r4, #2
    1086:	4b09      	ldr	r3, [pc, #36]	; (10ac <system_gclk_chan_enable+0x30>)
    1088:	469c      	mov	ip, r3
    108a:	4460      	add	r0, ip
	system_interrupt_enter_critical_section();

	/* Enable the peripheral channel */
	GCLK->PCHCTRL[channel].reg |= GCLK_PCHCTRL_CHEN;
    108c:	2280      	movs	r2, #128	; 0x80
    108e:	5883      	ldr	r3, [r0, r2]
    1090:	2140      	movs	r1, #64	; 0x40
    1092:	430b      	orrs	r3, r1
    1094:	5083      	str	r3, [r0, r2]

	while (!(GCLK->PCHCTRL[channel].reg & GCLK_PCHCTRL_CHEN)) {
    1096:	3140      	adds	r1, #64	; 0x40
    1098:	3a40      	subs	r2, #64	; 0x40
    109a:	5843      	ldr	r3, [r0, r1]
    109c:	421a      	tst	r2, r3
    109e:	d0fc      	beq.n	109a <system_gclk_chan_enable+0x1e>
	cpu_irq_leave_critical();
    10a0:	4b03      	ldr	r3, [pc, #12]	; (10b0 <system_gclk_chan_enable+0x34>)
    10a2:	4798      	blx	r3
		/* Wait for clock synchronization */
	}

	system_interrupt_leave_critical_section();
}
    10a4:	bd10      	pop	{r4, pc}
    10a6:	46c0      	nop			; (mov r8, r8)
    10a8:	00000dd1 	.word	0x00000dd1
    10ac:	40001c00 	.word	0x40001c00
    10b0:	00000e11 	.word	0x00000e11

000010b4 <system_gclk_chan_disable>:
 *
 * \param[in] channel  Generic Clock channel to disable
 */
void system_gclk_chan_disable(
		const uint8_t channel)
{
    10b4:	b510      	push	{r4, lr}
    10b6:	0004      	movs	r4, r0
	cpu_irq_enter_critical();
    10b8:	4b09      	ldr	r3, [pc, #36]	; (10e0 <system_gclk_chan_disable+0x2c>)
    10ba:	4798      	blx	r3
    10bc:	00a0      	lsls	r0, r4, #2
    10be:	4b09      	ldr	r3, [pc, #36]	; (10e4 <system_gclk_chan_disable+0x30>)
    10c0:	469c      	mov	ip, r3
    10c2:	4460      	add	r0, ip

	/* Sanity check WRTLOCK */
	Assert(!GCLK->PCHCTRL[channel].bit.WRTLOCK);

	/* Disable the peripheral channel */
	GCLK->PCHCTRL[channel].reg &= ~GCLK_PCHCTRL_CHEN;
    10c4:	2280      	movs	r2, #128	; 0x80
    10c6:	5883      	ldr	r3, [r0, r2]
    10c8:	2140      	movs	r1, #64	; 0x40
    10ca:	438b      	bics	r3, r1
    10cc:	5083      	str	r3, [r0, r2]

	while (GCLK->PCHCTRL[channel].reg & GCLK_PCHCTRL_CHEN) {
    10ce:	3140      	adds	r1, #64	; 0x40
    10d0:	3a40      	subs	r2, #64	; 0x40
    10d2:	5843      	ldr	r3, [r0, r1]
    10d4:	421a      	tst	r2, r3
    10d6:	d1fc      	bne.n	10d2 <system_gclk_chan_disable+0x1e>
	cpu_irq_leave_critical();
    10d8:	4b03      	ldr	r3, [pc, #12]	; (10e8 <system_gclk_chan_disable+0x34>)
    10da:	4798      	blx	r3
		/* Wait for clock synchronization */
	}

	system_interrupt_leave_critical_section();
}
    10dc:	bd10      	pop	{r4, pc}
    10de:	46c0      	nop			; (mov r8, r8)
    10e0:	00000dd1 	.word	0x00000dd1
    10e4:	40001c00 	.word	0x40001c00
    10e8:	00000e11 	.word	0x00000e11

000010ec <system_gclk_chan_set_config>:
{
    10ec:	b570      	push	{r4, r5, r6, lr}
    10ee:	0004      	movs	r4, r0
    10f0:	000d      	movs	r5, r1
	system_gclk_chan_disable(channel);
    10f2:	4b05      	ldr	r3, [pc, #20]	; (1108 <system_gclk_chan_set_config+0x1c>)
    10f4:	4798      	blx	r3
	GCLK->PCHCTRL[channel].reg = GCLK_PCHCTRL_GEN(config->source_generator);
    10f6:	782a      	ldrb	r2, [r5, #0]
    10f8:	230f      	movs	r3, #15
    10fa:	4013      	ands	r3, r2
    10fc:	3420      	adds	r4, #32
    10fe:	00a4      	lsls	r4, r4, #2
    1100:	4a02      	ldr	r2, [pc, #8]	; (110c <system_gclk_chan_set_config+0x20>)
    1102:	50a3      	str	r3, [r4, r2]
}
    1104:	bd70      	pop	{r4, r5, r6, pc}
    1106:	46c0      	nop			; (mov r8, r8)
    1108:	000010b5 	.word	0x000010b5
    110c:	40001c00 	.word	0x40001c00

00001110 <_system_pinmux_config>:
 */
static void _system_pinmux_config(
		PortGroup *const port,
		const uint32_t pin_mask,
		const struct system_pinmux_config *const config)
{
    1110:	b530      	push	{r4, r5, lr}

	/* Track the configuration bits into a temporary variable before writing */
	uint32_t pin_cfg = 0;

	/* Enabled powersave mode, don't create configuration */
	if (!config->powersave) {
    1112:	78d3      	ldrb	r3, [r2, #3]
    1114:	2b00      	cmp	r3, #0
    1116:	d135      	bne.n	1184 <_system_pinmux_config+0x74>
		/* Enable the pin peripheral MUX flag if non-GPIO selected (pinmux will
		 * be written later) and store the new MUX mask */
		if (config->mux_position != SYSTEM_PINMUX_GPIO) {
    1118:	7813      	ldrb	r3, [r2, #0]
    111a:	2b80      	cmp	r3, #128	; 0x80
    111c:	d029      	beq.n	1172 <_system_pinmux_config+0x62>
			pin_cfg |= PORT_WRCONFIG_PMUXEN;
			pin_cfg |= (config->mux_position << PORT_WRCONFIG_PMUX_Pos);
    111e:	061b      	lsls	r3, r3, #24
    1120:	2480      	movs	r4, #128	; 0x80
    1122:	0264      	lsls	r4, r4, #9
    1124:	4323      	orrs	r3, r4
		}

		/* Check if the user has requested that the input buffer be enabled */
		if ((config->direction == SYSTEM_PINMUX_PIN_DIR_INPUT) ||
    1126:	7854      	ldrb	r4, [r2, #1]
    1128:	2502      	movs	r5, #2
    112a:	43ac      	bics	r4, r5
    112c:	d106      	bne.n	113c <_system_pinmux_config+0x2c>
				(config->direction == SYSTEM_PINMUX_PIN_DIR_OUTPUT_WITH_READBACK)) {
			/* Enable input buffer flag */
			pin_cfg |= PORT_WRCONFIG_INEN;

			/* Enable pull-up/pull-down control flag if requested */
			if (config->input_pull != SYSTEM_PINMUX_PIN_PULL_NONE) {
    112e:	7894      	ldrb	r4, [r2, #2]
    1130:	2c00      	cmp	r4, #0
    1132:	d120      	bne.n	1176 <_system_pinmux_config+0x66>
			pin_cfg |= PORT_WRCONFIG_INEN;
    1134:	2480      	movs	r4, #128	; 0x80
    1136:	02a4      	lsls	r4, r4, #10
    1138:	4323      	orrs	r3, r4
				pin_cfg |= PORT_WRCONFIG_PULLEN;
			}

			/* Clear the port DIR bits to disable the output buffer */
			port->DIRCLR.reg = pin_mask;
    113a:	6041      	str	r1, [r0, #4]
		}

		/* Check if the user has requested that the output buffer be enabled */
		if ((config->direction == SYSTEM_PINMUX_PIN_DIR_OUTPUT) ||
    113c:	7854      	ldrb	r4, [r2, #1]
    113e:	3c01      	subs	r4, #1
    1140:	2c01      	cmp	r4, #1
    1142:	d91c      	bls.n	117e <_system_pinmux_config+0x6e>
		port->DIRCLR.reg = pin_mask;
	}

	/* The Write Configuration register (WRCONFIG) requires the
	 * pins to to grouped into two 16-bit half-words - split them out here */
	uint32_t lower_pin_mask = (pin_mask & 0xFFFF);
    1144:	040d      	lsls	r5, r1, #16
    1146:	0c2d      	lsrs	r5, r5, #16

	/* Configure the lower 16-bits of the port to the desired configuration,
	 * including the pin peripheral multiplexer just in case it is enabled */
	port->WRCONFIG.reg
		= (lower_pin_mask << PORT_WRCONFIG_PINMASK_Pos) |
			pin_cfg | PORT_WRCONFIG_WRPMUX | PORT_WRCONFIG_WRPINCFG;
    1148:	24a0      	movs	r4, #160	; 0xa0
    114a:	05e4      	lsls	r4, r4, #23
    114c:	432c      	orrs	r4, r5
    114e:	431c      	orrs	r4, r3
		= (lower_pin_mask << PORT_WRCONFIG_PINMASK_Pos) |
    1150:	6284      	str	r4, [r0, #40]	; 0x28
	uint32_t upper_pin_mask = (pin_mask >> 16);
    1152:	0c0d      	lsrs	r5, r1, #16

	/* Configure the upper 16-bits of the port to the desired configuration,
	 * including the pin peripheral multiplexer just in case it is enabled */
	port->WRCONFIG.reg
		= (upper_pin_mask << PORT_WRCONFIG_PINMASK_Pos) |
			pin_cfg | PORT_WRCONFIG_WRPMUX | PORT_WRCONFIG_WRPINCFG |
    1154:	24d0      	movs	r4, #208	; 0xd0
    1156:	0624      	lsls	r4, r4, #24
    1158:	432c      	orrs	r4, r5
    115a:	431c      	orrs	r4, r3
		= (upper_pin_mask << PORT_WRCONFIG_PINMASK_Pos) |
    115c:	6284      	str	r4, [r0, #40]	; 0x28
			PORT_WRCONFIG_HWSEL;

	if(!config->powersave) {
    115e:	78d4      	ldrb	r4, [r2, #3]
    1160:	2c00      	cmp	r4, #0
    1162:	d122      	bne.n	11aa <_system_pinmux_config+0x9a>
		/* Set the pull-up state once the port pins are configured if one was
		 * requested and it does not violate the valid set of port
		 * configurations */
		if (pin_cfg & PORT_WRCONFIG_PULLEN) {
    1164:	035b      	lsls	r3, r3, #13
    1166:	d51c      	bpl.n	11a2 <_system_pinmux_config+0x92>
			/* Set the OUT register bits to enable the pull-up if requested,
			 * clear to enable pull-down */
			if (config->input_pull == SYSTEM_PINMUX_PIN_PULL_UP) {
    1168:	7893      	ldrb	r3, [r2, #2]
    116a:	2b01      	cmp	r3, #1
    116c:	d01e      	beq.n	11ac <_system_pinmux_config+0x9c>
				port->OUTSET.reg = pin_mask;
			} else {
				port->OUTCLR.reg = pin_mask;
    116e:	6141      	str	r1, [r0, #20]
    1170:	e017      	b.n	11a2 <_system_pinmux_config+0x92>
	uint32_t pin_cfg = 0;
    1172:	2300      	movs	r3, #0
    1174:	e7d7      	b.n	1126 <_system_pinmux_config+0x16>
				pin_cfg |= PORT_WRCONFIG_PULLEN;
    1176:	24c0      	movs	r4, #192	; 0xc0
    1178:	02e4      	lsls	r4, r4, #11
    117a:	4323      	orrs	r3, r4
    117c:	e7dd      	b.n	113a <_system_pinmux_config+0x2a>
			pin_cfg &= ~PORT_WRCONFIG_PULLEN;
    117e:	4c0d      	ldr	r4, [pc, #52]	; (11b4 <_system_pinmux_config+0xa4>)
    1180:	4023      	ands	r3, r4
    1182:	e7df      	b.n	1144 <_system_pinmux_config+0x34>
		port->DIRCLR.reg = pin_mask;
    1184:	6041      	str	r1, [r0, #4]
	uint32_t lower_pin_mask = (pin_mask & 0xFFFF);
    1186:	040c      	lsls	r4, r1, #16
    1188:	0c24      	lsrs	r4, r4, #16
			pin_cfg | PORT_WRCONFIG_WRPMUX | PORT_WRCONFIG_WRPINCFG;
    118a:	23a0      	movs	r3, #160	; 0xa0
    118c:	05db      	lsls	r3, r3, #23
    118e:	4323      	orrs	r3, r4
		= (lower_pin_mask << PORT_WRCONFIG_PINMASK_Pos) |
    1190:	6283      	str	r3, [r0, #40]	; 0x28
	uint32_t upper_pin_mask = (pin_mask >> 16);
    1192:	0c0c      	lsrs	r4, r1, #16
			pin_cfg | PORT_WRCONFIG_WRPMUX | PORT_WRCONFIG_WRPINCFG |
    1194:	23d0      	movs	r3, #208	; 0xd0
    1196:	061b      	lsls	r3, r3, #24
    1198:	4323      	orrs	r3, r4
		= (upper_pin_mask << PORT_WRCONFIG_PINMASK_Pos) |
    119a:	6283      	str	r3, [r0, #40]	; 0x28
	if(!config->powersave) {
    119c:	78d3      	ldrb	r3, [r2, #3]
    119e:	2b00      	cmp	r3, #0
    11a0:	d103      	bne.n	11aa <_system_pinmux_config+0x9a>
			}
		}

		/* Check if the user has requested that the output buffer be enabled */
		if ((config->direction == SYSTEM_PINMUX_PIN_DIR_OUTPUT) ||
    11a2:	7853      	ldrb	r3, [r2, #1]
    11a4:	3b01      	subs	r3, #1
    11a6:	2b01      	cmp	r3, #1
    11a8:	d902      	bls.n	11b0 <_system_pinmux_config+0xa0>
				(config->direction == SYSTEM_PINMUX_PIN_DIR_OUTPUT_WITH_READBACK)) {
			/* Set the port DIR bits to enable the output buffer */
			port->DIRSET.reg = pin_mask;
		}
	}
}
    11aa:	bd30      	pop	{r4, r5, pc}
				port->OUTSET.reg = pin_mask;
    11ac:	6181      	str	r1, [r0, #24]
    11ae:	e7f8      	b.n	11a2 <_system_pinmux_config+0x92>
			port->DIRSET.reg = pin_mask;
    11b0:	6081      	str	r1, [r0, #8]
}
    11b2:	e7fa      	b.n	11aa <_system_pinmux_config+0x9a>
    11b4:	fffbffff 	.word	0xfffbffff

000011b8 <system_pinmux_pin_set_config>:
 * \param[in] config    Configuration settings for the pin
 */
void system_pinmux_pin_set_config(
		const uint8_t gpio_pin,
		const struct system_pinmux_config *const config)
{
    11b8:	b510      	push	{r4, lr}
    11ba:	000a      	movs	r2, r1
	uint8_t group_index = (gpio_pin / 32);

	/* Array of available ports */
	Port *const ports[PORT_INST_NUM] = PORT_INSTS;

	if (port_index < PORT_INST_NUM) {
    11bc:	09c1      	lsrs	r1, r0, #7
		return &(ports[port_index]->Group[group_index]);
	} else {
		Assert(false);
		return NULL;
    11be:	2300      	movs	r3, #0
	if (port_index < PORT_INST_NUM) {
    11c0:	2900      	cmp	r1, #0
    11c2:	d105      	bne.n	11d0 <system_pinmux_pin_set_config+0x18>
		return &(ports[port_index]->Group[group_index]);
    11c4:	0943      	lsrs	r3, r0, #5
    11c6:	01db      	lsls	r3, r3, #7
    11c8:	2182      	movs	r1, #130	; 0x82
    11ca:	05c9      	lsls	r1, r1, #23
    11cc:	468c      	mov	ip, r1
    11ce:	4463      	add	r3, ip
	PortGroup *const port = system_pinmux_get_group_from_gpio_pin(gpio_pin);
	uint32_t pin_mask = (1UL << (gpio_pin % 32));
    11d0:	241f      	movs	r4, #31
    11d2:	4020      	ands	r0, r4
    11d4:	2101      	movs	r1, #1
    11d6:	4081      	lsls	r1, r0

	_system_pinmux_config(port, pin_mask, config);
    11d8:	0018      	movs	r0, r3
    11da:	4b01      	ldr	r3, [pc, #4]	; (11e0 <system_pinmux_pin_set_config+0x28>)
    11dc:	4798      	blx	r3
}
    11de:	bd10      	pop	{r4, pc}
    11e0:	00001111 	.word	0x00001111

000011e4 <_system_dummy_init>:
 */
void _system_dummy_init(void);
void _system_dummy_init(void)
{
	return;
}
    11e4:	4770      	bx	lr
	...

000011e8 <system_init>:
 *  - Board hardware initialization (via the Board module)
 *  - Event system driver initialization (via the EVSYS module)
 *  - External Interrupt driver initialization (via the EXTINT module)
 */
void system_init(void)
{
    11e8:	b510      	push	{r4, lr}
	/* Configure GCLK and clock sources according to conf_clocks.h */
	system_clock_init();
    11ea:	4b05      	ldr	r3, [pc, #20]	; (1200 <system_init+0x18>)
    11ec:	4798      	blx	r3

	/* Initialize board hardware */
	system_board_init();
    11ee:	4b05      	ldr	r3, [pc, #20]	; (1204 <system_init+0x1c>)
    11f0:	4798      	blx	r3

	/* Initialize EVSYS hardware */
	_system_events_init();
    11f2:	4b05      	ldr	r3, [pc, #20]	; (1208 <system_init+0x20>)
    11f4:	4798      	blx	r3

	/* Initialize External hardware */
	_system_extint_init();
    11f6:	4b05      	ldr	r3, [pc, #20]	; (120c <system_init+0x24>)
    11f8:	4798      	blx	r3
	
	/* Initialize DIVAS hardware */
	_system_divas_init();
    11fa:	4b05      	ldr	r3, [pc, #20]	; (1210 <system_init+0x28>)
    11fc:	4798      	blx	r3
}
    11fe:	bd10      	pop	{r4, pc}
    1200:	00000e9d 	.word	0x00000e9d
    1204:	00000dcd 	.word	0x00000dcd
    1208:	000011e5 	.word	0x000011e5
    120c:	00000b59 	.word	0x00000b59
    1210:	000011e5 	.word	0x000011e5

00001214 <Dummy_Handler>:

/**
 * \brief Default interrupt handler for unused IRQs.
 */
void Dummy_Handler(void)
{
    1214:	e7fe      	b.n	1214 <Dummy_Handler>
	...

00001218 <Reset_Handler>:
{
    1218:	b510      	push	{r4, lr}
        if (pSrc != pDest) {
    121a:	4a17      	ldr	r2, [pc, #92]	; (1278 <Reset_Handler+0x60>)
    121c:	4b17      	ldr	r3, [pc, #92]	; (127c <Reset_Handler+0x64>)
    121e:	429a      	cmp	r2, r3
    1220:	d011      	beq.n	1246 <Reset_Handler+0x2e>
                for (; pDest < &_erelocate;) {
    1222:	001a      	movs	r2, r3
    1224:	4b16      	ldr	r3, [pc, #88]	; (1280 <Reset_Handler+0x68>)
    1226:	429a      	cmp	r2, r3
    1228:	d20d      	bcs.n	1246 <Reset_Handler+0x2e>
    122a:	4a16      	ldr	r2, [pc, #88]	; (1284 <Reset_Handler+0x6c>)
    122c:	3303      	adds	r3, #3
    122e:	1a9b      	subs	r3, r3, r2
    1230:	089b      	lsrs	r3, r3, #2
    1232:	3301      	adds	r3, #1
    1234:	009b      	lsls	r3, r3, #2
    1236:	2200      	movs	r2, #0
                        *pDest++ = *pSrc++;
    1238:	4810      	ldr	r0, [pc, #64]	; (127c <Reset_Handler+0x64>)
    123a:	490f      	ldr	r1, [pc, #60]	; (1278 <Reset_Handler+0x60>)
    123c:	588c      	ldr	r4, [r1, r2]
    123e:	5084      	str	r4, [r0, r2]
    1240:	3204      	adds	r2, #4
                for (; pDest < &_erelocate;) {
    1242:	429a      	cmp	r2, r3
    1244:	d1fa      	bne.n	123c <Reset_Handler+0x24>
        for (pDest = &_szero; pDest < &_ezero;) {
    1246:	4a10      	ldr	r2, [pc, #64]	; (1288 <Reset_Handler+0x70>)
    1248:	4b10      	ldr	r3, [pc, #64]	; (128c <Reset_Handler+0x74>)
    124a:	429a      	cmp	r2, r3
    124c:	d20a      	bcs.n	1264 <Reset_Handler+0x4c>
    124e:	43d3      	mvns	r3, r2
    1250:	490e      	ldr	r1, [pc, #56]	; (128c <Reset_Handler+0x74>)
    1252:	185b      	adds	r3, r3, r1
    1254:	2103      	movs	r1, #3
    1256:	438b      	bics	r3, r1
    1258:	3304      	adds	r3, #4
    125a:	189b      	adds	r3, r3, r2
                *pDest++ = 0;
    125c:	2100      	movs	r1, #0
    125e:	c202      	stmia	r2!, {r1}
        for (pDest = &_szero; pDest < &_ezero;) {
    1260:	4293      	cmp	r3, r2
    1262:	d1fc      	bne.n	125e <Reset_Handler+0x46>
        SCB->VTOR = ((uint32_t) pSrc & SCB_VTOR_TBLOFF_Msk);
    1264:	4a0a      	ldr	r2, [pc, #40]	; (1290 <Reset_Handler+0x78>)
    1266:	21ff      	movs	r1, #255	; 0xff
    1268:	4b0a      	ldr	r3, [pc, #40]	; (1294 <Reset_Handler+0x7c>)
    126a:	438b      	bics	r3, r1
    126c:	6093      	str	r3, [r2, #8]
        __libc_init_array();
    126e:	4b0a      	ldr	r3, [pc, #40]	; (1298 <Reset_Handler+0x80>)
    1270:	4798      	blx	r3
        main();
    1272:	4b0a      	ldr	r3, [pc, #40]	; (129c <Reset_Handler+0x84>)
    1274:	4798      	blx	r3
    1276:	e7fe      	b.n	1276 <Reset_Handler+0x5e>
    1278:	000019a4 	.word	0x000019a4
    127c:	20000000 	.word	0x20000000
    1280:	2000000c 	.word	0x2000000c
    1284:	20000004 	.word	0x20000004
    1288:	2000000c 	.word	0x2000000c
    128c:	20000a14 	.word	0x20000a14
    1290:	e000ed00 	.word	0xe000ed00
    1294:	00000000 	.word	0x00000000
    1298:	000017bd 	.word	0x000017bd
    129c:	00001451 	.word	0x00001451

000012a0 <pins_init>:
	delay_ms(40);
	port_pin_set_output_level(PIN_CHARGING, false);								//Sets charging pin to low
	}


void pins_init(){
    12a0:	b5f0      	push	{r4, r5, r6, r7, lr}
    12a2:	46c6      	mov	lr, r8
    12a4:	b500      	push	{lr}
    12a6:	b082      	sub	sp, #8
{
	/* Sanity check arguments */
	Assert(config);

	/* Default configuration values */
	config->direction  = PORT_PIN_DIR_INPUT;
    12a8:	ac01      	add	r4, sp, #4
    12aa:	2300      	movs	r3, #0
    12ac:	7023      	strb	r3, [r4, #0]
	config->input_pull = PORT_PIN_PULL_UP;
    12ae:	2601      	movs	r6, #1
    12b0:	7066      	strb	r6, [r4, #1]
	config->powersave  = false;
    12b2:	70a3      	strb	r3, [r4, #2]
	struct port_config config;
	port_get_config_defaults(&config);
	
	//Input pins
	config.direction= PORT_PIN_DIR_INPUT;
	port_pin_set_config(PIN_FAULT,&config);
    12b4:	0021      	movs	r1, r4
    12b6:	2020      	movs	r0, #32
    12b8:	4d21      	ldr	r5, [pc, #132]	; (1340 <pins_init+0xa0>)
    12ba:	47a8      	blx	r5
	port_pin_set_config(PIN_CAR_STATE,&config);
    12bc:	0021      	movs	r1, r4
    12be:	2023      	movs	r0, #35	; 0x23
    12c0:	47a8      	blx	r5
	port_pin_set_config(PIN_KP_CLOSE,&config);
    12c2:	0021      	movs	r1, r4
    12c4:	202c      	movs	r0, #44	; 0x2c
    12c6:	47a8      	blx	r5
	port_pin_set_config(PIN_VC_CURRENT_DETECT,&config);
    12c8:	0021      	movs	r1, r4
    12ca:	2028      	movs	r0, #40	; 0x28
    12cc:	47a8      	blx	r5
	port_pin_set_config(PIN_PACK_CURRENT_DECTECT,&config);
    12ce:	0021      	movs	r1, r4
    12d0:	2029      	movs	r0, #41	; 0x29
    12d2:	47a8      	blx	r5
	
	//Output pins
	config.direction = PORT_PIN_DIR_OUTPUT;
    12d4:	7026      	strb	r6, [r4, #0]
	port_pin_set_config(PIN_CHARGING,&config);
    12d6:	0021      	movs	r1, r4
    12d8:	201f      	movs	r0, #31
    12da:	47a8      	blx	r5
	port_pin_set_config(PIN_KILLSIGNAL,&config);
    12dc:	0021      	movs	r1, r4
    12de:	2021      	movs	r0, #33	; 0x21
    12e0:	47a8      	blx	r5
	port_pin_set_config(PIN_VC_ON,&config);
    12e2:	0021      	movs	r1, r4
    12e4:	2003      	movs	r0, #3
    12e6:	47a8      	blx	r5
	port_pin_set_config(PIN_AUX_ON,&config);
    12e8:	0021      	movs	r1, r4
    12ea:	2026      	movs	r0, #38	; 0x26
    12ec:	47a8      	blx	r5
	port_pin_set_config(PIN_TEST,&config);
    12ee:	0021      	movs	r1, r4
    12f0:	2009      	movs	r0, #9
    12f2:	47a8      	blx	r5
	port_pin_set_config(PIN_DEBUG,&config);
    12f4:	0021      	movs	r1, r4
    12f6:	2016      	movs	r0, #22
    12f8:	47a8      	blx	r5

	/* Set the pin to high or low atomically based on the requested level */
	if (level) {
		port_base->OUTSET.reg = pin_mask;
	} else {
		port_base->OUTCLR.reg = pin_mask;
    12fa:	2382      	movs	r3, #130	; 0x82
    12fc:	05db      	lsls	r3, r3, #23
    12fe:	4698      	mov	r8, r3
    1300:	4f10      	ldr	r7, [pc, #64]	; (1344 <pins_init+0xa4>)
    1302:	2340      	movs	r3, #64	; 0x40
    1304:	617b      	str	r3, [r7, #20]
	
	//Sets output levels to low
	port_pin_set_output_level(PIN_AUX_ON, false);
	delay_ms(10);
    1306:	200a      	movs	r0, #10
    1308:	4e0f      	ldr	r6, [pc, #60]	; (1348 <pins_init+0xa8>)
    130a:	47b0      	blx	r6
    130c:	2308      	movs	r3, #8
    130e:	4642      	mov	r2, r8
    1310:	6153      	str	r3, [r2, #20]
	port_pin_set_output_level(PIN_VC_ON,false);
	delay_ms(10);
    1312:	200a      	movs	r0, #10
    1314:	47b0      	blx	r6
    1316:	2302      	movs	r3, #2
    1318:	617b      	str	r3, [r7, #20]
	port_pin_set_output_level(PIN_KILLSIGNAL,false);
	delay_ms(10);
    131a:	200a      	movs	r0, #10
    131c:	47b0      	blx	r6
    131e:	2380      	movs	r3, #128	; 0x80
    1320:	015b      	lsls	r3, r3, #5
    1322:	617b      	str	r3, [r7, #20]
	port_pin_set_output_level(PIN_KP_CLOSE,false);
	delay_ms(10);
    1324:	200a      	movs	r0, #10
    1326:	47b0      	blx	r6
    1328:	2380      	movs	r3, #128	; 0x80
    132a:	061b      	lsls	r3, r3, #24
    132c:	4642      	mov	r2, r8
    132e:	6153      	str	r3, [r2, #20]
	port_pin_set_output_level(PIN_CHARGING,false);
	
	//LED control pin
	port_pin_set_config(LED_0_PIN, &config);
    1330:	0021      	movs	r1, r4
    1332:	200f      	movs	r0, #15
    1334:	47a8      	blx	r5
}
    1336:	b002      	add	sp, #8
    1338:	bc04      	pop	{r2}
    133a:	4690      	mov	r8, r2
    133c:	bdf0      	pop	{r4, r5, r6, r7, pc}
    133e:	46c0      	nop			; (mov r8, r8)
    1340:	00000c79 	.word	0x00000c79
    1344:	41000080 	.word	0x41000080
    1348:	0000015d 	.word	0x0000015d

0000134c <configure_adc>:
/* Configures the ADC.												    
	@author Bryan Kalkhoff
	@date May 10 ,2018													*/
/************************************************************************/
void configure_adc(void)
{
    134c:	b570      	push	{r4, r5, r6, lr}
    134e:	b096      	sub	sp, #88	; 0x58
	
	struct adc_config config_adc_pack;									//struck for configuring the ADC for the pack								
	struct adc_config config_adc_aux;									//struck for configuring the ADC for the AUX  
	adc_get_config_defaults(&config_adc_pack);							//configures pack ADC
    1350:	ac0b      	add	r4, sp, #44	; 0x2c
    1352:	0020      	movs	r0, r4
    1354:	4d1c      	ldr	r5, [pc, #112]	; (13c8 <configure_adc+0x7c>)
    1356:	47a8      	blx	r5
	adc_get_config_defaults(&config_adc_aux);							//configures the AUX ADC
    1358:	4668      	mov	r0, sp
    135a:	47a8      	blx	r5
	config_adc_pack.positive_input = PIN_PB09;							//sets the input for the ADC_PACK					would like to make sure this is correct. If someone who knows ADC please confirm this is correct
    135c:	2329      	movs	r3, #41	; 0x29
    135e:	7123      	strb	r3, [r4, #4]
	config_adc_aux.positive_input = PIN_PB08;							//sets the input for the ADC_AUX					would like to make sure this is correct. If someone who knows ADC please confirm this is correct
    1360:	3b01      	subs	r3, #1
    1362:	466a      	mov	r2, sp
    1364:	7113      	strb	r3, [r2, #4]
	adc_init(&adc_aux,ADC0, &config_adc_aux);							//initialize the ADC_AUX
    1366:	4919      	ldr	r1, [pc, #100]	; (13cc <configure_adc+0x80>)
    1368:	4819      	ldr	r0, [pc, #100]	; (13d0 <configure_adc+0x84>)
    136a:	4e1a      	ldr	r6, [pc, #104]	; (13d4 <configure_adc+0x88>)
    136c:	47b0      	blx	r6
	adc_init(&adc_pac, ADC1, &config_adc_pack);							//initialize the ADC_PACK
    136e:	4d1a      	ldr	r5, [pc, #104]	; (13d8 <configure_adc+0x8c>)
    1370:	0022      	movs	r2, r4
    1372:	491a      	ldr	r1, [pc, #104]	; (13dc <configure_adc+0x90>)
    1374:	0028      	movs	r0, r5
    1376:	47b0      	blx	r6
		struct adc_module *const module_inst)
{
	Assert(module_inst);
	Assert(module_inst->hw);

	Adc *const adc_module = module_inst->hw;
    1378:	682a      	ldr	r2, [r5, #0]
    137a:	8c13      	ldrh	r3, [r2, #32]
    137c:	b29b      	uxth	r3, r3

	while (adc_is_syncing(module_inst)) {
    137e:	2b00      	cmp	r3, #0
    1380:	d1fb      	bne.n	137a <configure_adc+0x2e>
		system_interrupt_enable(SYSTEM_INTERRUPT_MODULE_ADC);
#   endif
#endif

	/* Disbale interrupt */
	adc_module->INTENCLR.reg = ADC_INTENCLR_MASK;
    1382:	3307      	adds	r3, #7
    1384:	7113      	strb	r3, [r2, #4]
	/* Clear interrupt flag */
	adc_module->INTFLAG.reg = ADC_INTFLAG_MASK;
    1386:	7193      	strb	r3, [r2, #6]

	adc_module->CTRLA.reg |= ADC_CTRLA_ENABLE;
    1388:	7813      	ldrb	r3, [r2, #0]
    138a:	2102      	movs	r1, #2
    138c:	430b      	orrs	r3, r1
    138e:	7013      	strb	r3, [r2, #0]
	Adc *const adc_module = module_inst->hw;
    1390:	4b11      	ldr	r3, [pc, #68]	; (13d8 <configure_adc+0x8c>)
    1392:	681a      	ldr	r2, [r3, #0]
	if (adc_module->SYNCBUSY.reg) {
    1394:	8c13      	ldrh	r3, [r2, #32]
    1396:	b29b      	uxth	r3, r3

	while (adc_is_syncing(module_inst)) {
    1398:	2b00      	cmp	r3, #0
    139a:	d1fb      	bne.n	1394 <configure_adc+0x48>
	Adc *const adc_module = module_inst->hw;
    139c:	4b0c      	ldr	r3, [pc, #48]	; (13d0 <configure_adc+0x84>)
    139e:	681a      	ldr	r2, [r3, #0]
    13a0:	8c13      	ldrh	r3, [r2, #32]
    13a2:	b29b      	uxth	r3, r3
	while (adc_is_syncing(module_inst)) {
    13a4:	2b00      	cmp	r3, #0
    13a6:	d1fb      	bne.n	13a0 <configure_adc+0x54>
	adc_module->INTENCLR.reg = ADC_INTENCLR_MASK;
    13a8:	3307      	adds	r3, #7
    13aa:	7113      	strb	r3, [r2, #4]
	adc_module->INTFLAG.reg = ADC_INTFLAG_MASK;
    13ac:	7193      	strb	r3, [r2, #6]
	adc_module->CTRLA.reg |= ADC_CTRLA_ENABLE;
    13ae:	7813      	ldrb	r3, [r2, #0]
    13b0:	2102      	movs	r1, #2
    13b2:	430b      	orrs	r3, r1
    13b4:	7013      	strb	r3, [r2, #0]
	Adc *const adc_module = module_inst->hw;
    13b6:	4b06      	ldr	r3, [pc, #24]	; (13d0 <configure_adc+0x84>)
    13b8:	681a      	ldr	r2, [r3, #0]
	if (adc_module->SYNCBUSY.reg) {
    13ba:	8c13      	ldrh	r3, [r2, #32]
    13bc:	b29b      	uxth	r3, r3
	while (adc_is_syncing(module_inst)) {
    13be:	2b00      	cmp	r3, #0
    13c0:	d1fb      	bne.n	13ba <configure_adc+0x6e>
	adc_enable(&adc_pac);												//enables the ADC_PACK
	adc_enable(&adc_aux);												//enables the ADC_AUX
	

}
    13c2:	b016      	add	sp, #88	; 0x58
    13c4:	bd70      	pop	{r4, r5, r6, pc}
    13c6:	46c0      	nop			; (mov r8, r8)
    13c8:	000001ad 	.word	0x000001ad
    13cc:	42004400 	.word	0x42004400
    13d0:	20000a04 	.word	0x20000a04
    13d4:	000001f1 	.word	0x000001f1
    13d8:	20000a0c 	.word	0x20000a0c
    13dc:	42004800 	.word	0x42004800

000013e0 <configure_extint_channel>:

/*
Initialize the external interrupt.
*/
void configure_extint_channel(void)
{
    13e0:	b510      	push	{r4, lr}
    13e2:	b084      	sub	sp, #16
	struct extint_chan_conf config_extint_chan;
	extint_chan_get_config_defaults(&config_extint_chan);
    13e4:	ac01      	add	r4, sp, #4
    13e6:	0020      	movs	r0, r4
    13e8:	4b08      	ldr	r3, [pc, #32]	; (140c <configure_extint_channel+0x2c>)
    13ea:	4798      	blx	r3
	
	//Fault
	config_extint_chan.gpio_pin           = PIN_EXTINT_FAULT;
    13ec:	2320      	movs	r3, #32
    13ee:	9301      	str	r3, [sp, #4]
	config_extint_chan.gpio_pin_mux       = PIN_EXTINT_FAULT_MUX;
    13f0:	2380      	movs	r3, #128	; 0x80
    13f2:	039b      	lsls	r3, r3, #14
    13f4:	6063      	str	r3, [r4, #4]
	config_extint_chan.gpio_pin_pull      = EXTINT_PULL_UP;
    13f6:	2301      	movs	r3, #1
    13f8:	7223      	strb	r3, [r4, #8]
	config_extint_chan.detection_criteria = EXTINT_DETECT_HIGH;							//change to detect high
    13fa:	3303      	adds	r3, #3
    13fc:	72e3      	strb	r3, [r4, #11]
	extint_chan_set_config(PIN_EXTINT_FAULT_LINE, &config_extint_chan);
    13fe:	0021      	movs	r1, r4
    1400:	2008      	movs	r0, #8
    1402:	4b03      	ldr	r3, [pc, #12]	; (1410 <configure_extint_channel+0x30>)
    1404:	4798      	blx	r3
//	config_extint_chan.gpio_pin           = PIN_EXTINT_KPCLOSE;
//	config_extint_chan.gpio_pin_mux       = PIN_EXTINT_KPCLOSE_MUX;
//	config_extint_chan.gpio_pin_pull      = EXTINT_PULL_DOWN;
//	config_extint_chan.detection_criteria = EXTINT_DETECT_FALLING;
//	extint_chan_set_config(PIN_EXTINT_KPCLOSE_LINE, &config_extint_chan);
}
    1406:	b004      	add	sp, #16
    1408:	bd10      	pop	{r4, pc}
    140a:	46c0      	nop			; (mov r8, r8)
    140c:	00000bd9 	.word	0x00000bd9
    1410:	00000bed 	.word	0x00000bed

00001414 <configure_extint_callbacks>:

/*
Initializes callback function when SW0 is pushed.
*/
void configure_extint_callbacks(void)
{
    1414:	b510      	push	{r4, lr}
	//Fault
	extint_register_callback(fault_callback,
    1416:	2200      	movs	r2, #0
    1418:	2108      	movs	r1, #8
    141a:	4804      	ldr	r0, [pc, #16]	; (142c <configure_extint_callbacks+0x18>)
    141c:	4b04      	ldr	r3, [pc, #16]	; (1430 <configure_extint_callbacks+0x1c>)
    141e:	4798      	blx	r3
	PIN_EXTINT_FAULT_LINE,
	EXTINT_CALLBACK_TYPE_DETECT);
	extint_chan_enable_callback(PIN_EXTINT_FAULT_LINE,
    1420:	2100      	movs	r1, #0
    1422:	2008      	movs	r0, #8
    1424:	4b03      	ldr	r3, [pc, #12]	; (1434 <configure_extint_callbacks+0x20>)
    1426:	4798      	blx	r3
//	extint_register_callback(kpclose_callback,
//	PIN_EXTINT_KPCLOSE_LINE,
//	EXTINT_CALLBACK_TYPE_DETECT);
//	extint_chan_enable_callback(PIN_EXTINT_KPCLOSE_LINE,
//	EXTINT_CALLBACK_TYPE_DETECT);
}
    1428:	bd10      	pop	{r4, pc}
    142a:	46c0      	nop			; (mov r8, r8)
    142c:	00001681 	.word	0x00001681
    1430:	00000a79 	.word	0x00000a79
    1434:	00000aa5 	.word	0x00000aa5

00001438 <kill_the_car>:
    1438:	2280      	movs	r2, #128	; 0x80
    143a:	0612      	lsls	r2, r2, #24
    143c:	2382      	movs	r3, #130	; 0x82
    143e:	05db      	lsls	r3, r3, #23
    1440:	615a      	str	r2, [r3, #20]
		port_base->OUTSET.reg = pin_mask;
    1442:	2202      	movs	r2, #2
    1444:	4b01      	ldr	r3, [pc, #4]	; (144c <kill_the_car+0x14>)
    1446:	619a      	str	r2, [r3, #24]
*/
void kill_the_car(void)
{
	port_pin_set_output_level(PIN_CHARGING, false);		//Sets charging pin to low
	port_pin_set_output_level(PIN_KILLSIGNAL, true);	//Kills car and while caps discharge
}
    1448:	4770      	bx	lr
    144a:	46c0      	nop			; (mov r8, r8)
    144c:	41000080 	.word	0x41000080

00001450 <main>:
{
    1450:	b5f0      	push	{r4, r5, r6, r7, lr}
    1452:	46ce      	mov	lr, r9
    1454:	4647      	mov	r7, r8
    1456:	b580      	push	{r7, lr}
    1458:	b087      	sub	sp, #28
	system_init();																//Initialize clock.
    145a:	4b79      	ldr	r3, [pc, #484]	; (1640 <main+0x1f0>)
    145c:	4798      	blx	r3
	delay_init();
    145e:	4b79      	ldr	r3, [pc, #484]	; (1644 <main+0x1f4>)
    1460:	4798      	blx	r3
	pins_init();	
    1462:	4b79      	ldr	r3, [pc, #484]	; (1648 <main+0x1f8>)
    1464:	4798      	blx	r3
	configure_can();
    1466:	4b79      	ldr	r3, [pc, #484]	; (164c <main+0x1fc>)
    1468:	4798      	blx	r3
	config->input_pull = PORT_PIN_PULL_UP;
    146a:	2301      	movs	r3, #1
    146c:	466a      	mov	r2, sp
    146e:	7053      	strb	r3, [r2, #1]
	config->powersave  = false;
    1470:	2200      	movs	r2, #0
    1472:	4669      	mov	r1, sp
    1474:	708a      	strb	r2, [r1, #2]
	config.direction = PORT_PIN_DIR_OUTPUT;
    1476:	700b      	strb	r3, [r1, #0]
	port_pin_set_config(PIN_KP_CLOSE, &config);
    1478:	202c      	movs	r0, #44	; 0x2c
    147a:	4b75      	ldr	r3, [pc, #468]	; (1650 <main+0x200>)
    147c:	4798      	blx	r3
		port_base->OUTCLR.reg = pin_mask;
    147e:	2382      	movs	r3, #130	; 0x82
    1480:	05db      	lsls	r3, r3, #23
    1482:	2280      	movs	r2, #128	; 0x80
    1484:	03d2      	lsls	r2, r2, #15
    1486:	615a      	str	r2, [r3, #20]
		port_base->OUTSET.reg = pin_mask;
    1488:	619a      	str	r2, [r3, #24]
	return (port_base->IN.reg & pin_mask);
    148a:	4972      	ldr	r1, [pc, #456]	; (1654 <main+0x204>)
    148c:	2201      	movs	r2, #1
    148e:	6a0b      	ldr	r3, [r1, #32]
	while(port_pin_get_input_level(PIN_FAULT) == 1){}							//Waits for BPS to finish initializing. 
    1490:	421a      	tst	r2, r3
    1492:	d1fc      	bne.n	148e <main+0x3e>
		port_base->OUTCLR.reg = pin_mask;
    1494:	2582      	movs	r5, #130	; 0x82
    1496:	05ed      	lsls	r5, r5, #23
    1498:	2380      	movs	r3, #128	; 0x80
    149a:	03db      	lsls	r3, r3, #15
    149c:	616b      	str	r3, [r5, #20]
	configure_extint_channel();													//Initialize the external interrupt
    149e:	4b6e      	ldr	r3, [pc, #440]	; (1658 <main+0x208>)
    14a0:	4798      	blx	r3
	configure_extint_callbacks();												//Initializes callback function
    14a2:	4b6e      	ldr	r3, [pc, #440]	; (165c <main+0x20c>)
    14a4:	4798      	blx	r3
	cpu_irq_enable();
    14a6:	2201      	movs	r2, #1
    14a8:	4b6d      	ldr	r3, [pc, #436]	; (1660 <main+0x210>)
    14aa:	701a      	strb	r2, [r3, #0]
    14ac:	f3bf 8f5f 	dmb	sy
    14b0:	b662      	cpsie	i
	configure_adc();															//configures ADC
    14b2:	4b6c      	ldr	r3, [pc, #432]	; (1664 <main+0x214>)
    14b4:	4798      	blx	r3
	configure_can();															
    14b6:	4b65      	ldr	r3, [pc, #404]	; (164c <main+0x1fc>)
    14b8:	4798      	blx	r3
	delay_ms(80);
    14ba:	2050      	movs	r0, #80	; 0x50
    14bc:	4c6a      	ldr	r4, [pc, #424]	; (1668 <main+0x218>)
    14be:	47a0      	blx	r4
		port_base->OUTSET.reg = pin_mask;
    14c0:	4e64      	ldr	r6, [pc, #400]	; (1654 <main+0x204>)
    14c2:	2380      	movs	r3, #128	; 0x80
    14c4:	015b      	lsls	r3, r3, #5
    14c6:	61b3      	str	r3, [r6, #24]
	delay_ms(80);
    14c8:	2050      	movs	r0, #80	; 0x50
    14ca:	47a0      	blx	r4
    14cc:	2380      	movs	r3, #128	; 0x80
    14ce:	061b      	lsls	r3, r3, #24
    14d0:	61ab      	str	r3, [r5, #24]
	delay_ms(80);
    14d2:	2050      	movs	r0, #80	; 0x50
    14d4:	47a0      	blx	r4
    14d6:	2308      	movs	r3, #8
    14d8:	61ab      	str	r3, [r5, #24]
	delay_ms(80);
    14da:	2050      	movs	r0, #80	; 0x50
    14dc:	47a0      	blx	r4
    14de:	2340      	movs	r3, #64	; 0x40
    14e0:	61b3      	str	r3, [r6, #24]
	delay_ms(80);
    14e2:	2050      	movs	r0, #80	; 0x50
    14e4:	47a0      	blx	r4
	preCharge_CAN.length = 5;
    14e6:	2305      	movs	r3, #5
    14e8:	9304      	str	r3, [sp, #16]
	preCharge_CAN.address=ADRESS;
    14ea:	4b60      	ldr	r3, [pc, #384]	; (166c <main+0x21c>)
    14ec:	9303      	str	r3, [sp, #12]
	uint8_t temp_sol =0; 											
    14ee:	2300      	movs	r3, #0
    14f0:	4699      	mov	r9, r3
	return (port_base->IN.reg & pin_mask);
    14f2:	0035      	movs	r5, r6
			delay_ms(40);
    14f4:	4b5c      	ldr	r3, [pc, #368]	; (1668 <main+0x218>)
    14f6:	4698      	mov	r8, r3
    14f8:	e089      	b.n	160e <main+0x1be>
		port_base->OUTSET.reg = pin_mask;
    14fa:	2280      	movs	r2, #128	; 0x80
    14fc:	03d2      	lsls	r2, r2, #15
    14fe:	2382      	movs	r3, #130	; 0x82
    1500:	05db      	lsls	r3, r3, #23
    1502:	619a      	str	r2, [r3, #24]
	can_send_standard_message(&preCharge_CAN);
    1504:	a803      	add	r0, sp, #12
    1506:	4b5a      	ldr	r3, [pc, #360]	; (1670 <main+0x220>)
    1508:	4798      	blx	r3
	kill_the_car();
    150a:	4b5a      	ldr	r3, [pc, #360]	; (1674 <main+0x224>)
    150c:	4798      	blx	r3
		port_base->OUTCLR.reg = pin_mask;
    150e:	4b51      	ldr	r3, [pc, #324]	; (1654 <main+0x204>)
    1510:	2240      	movs	r2, #64	; 0x40
    1512:	615a      	str	r2, [r3, #20]
    1514:	2280      	movs	r2, #128	; 0x80
    1516:	0152      	lsls	r2, r2, #5
    1518:	615a      	str	r2, [r3, #20]
	delay_ms(40);
    151a:	2028      	movs	r0, #40	; 0x28
    151c:	4b52      	ldr	r3, [pc, #328]	; (1668 <main+0x218>)
    151e:	4798      	blx	r3
    1520:	2280      	movs	r2, #128	; 0x80
    1522:	0612      	lsls	r2, r2, #24
    1524:	2382      	movs	r3, #130	; 0x82
    1526:	05db      	lsls	r3, r3, #23
    1528:	615a      	str	r2, [r3, #20]
	}
    152a:	2000      	movs	r0, #0
    152c:	b007      	add	sp, #28
    152e:	bc0c      	pop	{r2, r3}
    1530:	4690      	mov	r8, r2
    1532:	4699      	mov	r9, r3
    1534:	bdf0      	pop	{r4, r5, r6, r7, pc}
    1536:	2301      	movs	r3, #1
    1538:	616b      	str	r3, [r5, #20]
			delay_ms(40);
    153a:	2028      	movs	r0, #40	; 0x28
    153c:	47c0      	blx	r8
			kill_the_car();
    153e:	4b4d      	ldr	r3, [pc, #308]	; (1674 <main+0x224>)
    1540:	4798      	blx	r3
			delay_ms(40);
    1542:	2028      	movs	r0, #40	; 0x28
    1544:	47c0      	blx	r8
    1546:	2380      	movs	r3, #128	; 0x80
    1548:	015b      	lsls	r3, r3, #5
    154a:	616b      	str	r3, [r5, #20]
			delay_ms(40);
    154c:	2028      	movs	r0, #40	; 0x28
    154e:	47c0      	blx	r8
    1550:	e064      	b.n	161c <main+0x1cc>
{
	Assert(module_inst);
	Assert(module_inst->hw);
	Assert(result);

	if (!(adc_get_status(module_inst) & ADC_STATUS_RESULT_READY)) {
    1552:	4211      	tst	r1, r2
    1554:	d10a      	bne.n	156c <main+0x11c>
	uint32_t int_flags = adc_module->INTFLAG.reg;
    1556:	7983      	ldrb	r3, [r0, #6]
    1558:	b2db      	uxtb	r3, r3
	if (int_flags & ADC_INTFLAG_RESRDY) {
    155a:	000a      	movs	r2, r1
    155c:	401a      	ands	r2, r3
	if (int_flags & ADC_INTFLAG_WINMON) {
    155e:	421e      	tst	r6, r3
    1560:	d000      	beq.n	1564 <main+0x114>
		status_flags |= ADC_STATUS_WINDOW;
    1562:	4322      	orrs	r2, r4
	if (int_flags & ADC_INTFLAG_OVERRUN) {
    1564:	421c      	tst	r4, r3
    1566:	d0f4      	beq.n	1552 <main+0x102>
		status_flags |= ADC_STATUS_OVERRUN;
    1568:	4332      	orrs	r2, r6
    156a:	e7f2      	b.n	1552 <main+0x102>
		/* Wait for synchronization */
	}
#endif

	/* Get ADC result */
	*result = adc_module->RESULT.reg;
    156c:	8c84      	ldrh	r4, [r0, #36]	; 0x24
    156e:	b2a4      	uxth	r4, r4
	adc_module->INTFLAG.reg = int_flags;
    1570:	2301      	movs	r3, #1
    1572:	7183      	strb	r3, [r0, #6]
	uint32_t int_flags = adc_module->INTFLAG.reg;
    1574:	7982      	ldrb	r2, [r0, #6]
    1576:	b2d2      	uxtb	r2, r2
	if (int_flags & ADC_INTFLAG_RESRDY) {
    1578:	4013      	ands	r3, r2
	if (int_flags & ADC_INTFLAG_WINMON) {
    157a:	0751      	lsls	r1, r2, #29
    157c:	d501      	bpl.n	1582 <main+0x132>
		status_flags |= ADC_STATUS_WINDOW;
    157e:	2102      	movs	r1, #2
    1580:	430b      	orrs	r3, r1
	if (int_flags & ADC_INTFLAG_OVERRUN) {
    1582:	0792      	lsls	r2, r2, #30
    1584:	d501      	bpl.n	158a <main+0x13a>
		status_flags |= ADC_STATUS_OVERRUN;
    1586:	2204      	movs	r2, #4
    1588:	4313      	orrs	r3, r2

	/* Reset ready flag */
	adc_clear_status(module_inst, ADC_STATUS_RESULT_READY);

	if (adc_get_status(module_inst) & ADC_STATUS_OVERRUN) {
    158a:	075b      	lsls	r3, r3, #29
    158c:	d501      	bpl.n	1592 <main+0x142>
	adc_module->INTFLAG.reg = int_flags;
    158e:	2302      	movs	r3, #2
    1590:	7183      	strb	r3, [r0, #6]
	Adc *const adc_module = module_inst->hw;
    1592:	4b39      	ldr	r3, [pc, #228]	; (1678 <main+0x228>)
    1594:	6818      	ldr	r0, [r3, #0]
	if (int_flags & ADC_INTFLAG_RESRDY) {
    1596:	2101      	movs	r1, #1
	if (int_flags & ADC_INTFLAG_WINMON) {
    1598:	2604      	movs	r6, #4
		status_flags |= ADC_STATUS_WINDOW;
    159a:	2702      	movs	r7, #2
    159c:	e001      	b.n	15a2 <main+0x152>
	if (!(adc_get_status(module_inst) & ADC_STATUS_RESULT_READY)) {
    159e:	4211      	tst	r1, r2
    15a0:	d10a      	bne.n	15b8 <main+0x168>
	uint32_t int_flags = adc_module->INTFLAG.reg;
    15a2:	7983      	ldrb	r3, [r0, #6]
    15a4:	b2db      	uxtb	r3, r3
	if (int_flags & ADC_INTFLAG_RESRDY) {
    15a6:	000a      	movs	r2, r1
    15a8:	401a      	ands	r2, r3
	if (int_flags & ADC_INTFLAG_WINMON) {
    15aa:	421e      	tst	r6, r3
    15ac:	d000      	beq.n	15b0 <main+0x160>
		status_flags |= ADC_STATUS_WINDOW;
    15ae:	433a      	orrs	r2, r7
	if (int_flags & ADC_INTFLAG_OVERRUN) {
    15b0:	421f      	tst	r7, r3
    15b2:	d0f4      	beq.n	159e <main+0x14e>
		status_flags |= ADC_STATUS_OVERRUN;
    15b4:	4332      	orrs	r2, r6
    15b6:	e7f2      	b.n	159e <main+0x14e>
	*result = adc_module->RESULT.reg;
    15b8:	8c83      	ldrh	r3, [r0, #36]	; 0x24
    15ba:	b29b      	uxth	r3, r3
	adc_module->INTFLAG.reg = int_flags;
    15bc:	2201      	movs	r2, #1
    15be:	7182      	strb	r2, [r0, #6]
	uint32_t int_flags = adc_module->INTFLAG.reg;
    15c0:	7981      	ldrb	r1, [r0, #6]
    15c2:	b2c9      	uxtb	r1, r1
	if (int_flags & ADC_INTFLAG_RESRDY) {
    15c4:	400a      	ands	r2, r1
	if (int_flags & ADC_INTFLAG_WINMON) {
    15c6:	074e      	lsls	r6, r1, #29
    15c8:	d501      	bpl.n	15ce <main+0x17e>
		status_flags |= ADC_STATUS_WINDOW;
    15ca:	2602      	movs	r6, #2
    15cc:	4332      	orrs	r2, r6
	if (int_flags & ADC_INTFLAG_OVERRUN) {
    15ce:	0789      	lsls	r1, r1, #30
    15d0:	d501      	bpl.n	15d6 <main+0x186>
		status_flags |= ADC_STATUS_OVERRUN;
    15d2:	2104      	movs	r1, #4
    15d4:	430a      	orrs	r2, r1
	if (adc_get_status(module_inst) & ADC_STATUS_OVERRUN) {
    15d6:	0752      	lsls	r2, r2, #29
    15d8:	d501      	bpl.n	15de <main+0x18e>
	adc_module->INTFLAG.reg = int_flags;
    15da:	2202      	movs	r2, #2
    15dc:	7182      	strb	r2, [r0, #6]
		data[0] = adc_auxPack;										//sets the fist part to aux_pax info
    15de:	aa01      	add	r2, sp, #4
		adc_auxPack = (adc_auxPack/4096) * 5;						//coverts to readable current number
    15e0:	0b21      	lsrs	r1, r4, #12
    15e2:	0088      	lsls	r0, r1, #2
    15e4:	1809      	adds	r1, r1, r0
		data[0] = adc_auxPack;										//sets the fist part to aux_pax info
    15e6:	8011      	strh	r1, [r2, #0]
		adc_packSensor= (adc_packSensor/4096)* 5;					//coverts to readable current number 
    15e8:	0b1b      	lsrs	r3, r3, #12
    15ea:	0099      	lsls	r1, r3, #2
    15ec:	185b      	adds	r3, r3, r1
		data[1] = adc_packSensor;									//set second element to aux_Packsensor
    15ee:	8053      	strh	r3, [r2, #2]
	return (port_base->IN.reg & pin_mask);
    15f0:	6a29      	ldr	r1, [r5, #32]
    15f2:	2301      	movs	r3, #1
    15f4:	400b      	ands	r3, r1
		data[2] =  port_pin_get_input_level(PIN_FAULT);				//gets the state of FAULT
    15f6:	8093      	strh	r3, [r2, #4]
		preCharge_CAN.data= data;									//sets the data in the struct to the array
    15f8:	9205      	str	r2, [sp, #20]
		if(temp_sol==100){
    15fa:	464b      	mov	r3, r9
    15fc:	2b64      	cmp	r3, #100	; 0x64
    15fe:	d013      	beq.n	1628 <main+0x1d8>
			temp_sol++;
    1600:	464e      	mov	r6, r9
    1602:	3601      	adds	r6, #1
    1604:	b2f3      	uxtb	r3, r6
    1606:	4699      	mov	r9, r3
    1608:	6a2b      	ldr	r3, [r5, #32]
		if(port_pin_get_input_level(PIN_FAULT)){
    160a:	07db      	lsls	r3, r3, #31
    160c:	d412      	bmi.n	1634 <main+0x1e4>
    160e:	6a2b      	ldr	r3, [r5, #32]
		if(port_pin_get_input_level(PIN_FAULT)){
    1610:	07db      	lsls	r3, r3, #31
    1612:	d500      	bpl.n	1616 <main+0x1c6>
    1614:	e771      	b.n	14fa <main+0xaa>
    1616:	6a2b      	ldr	r3, [r5, #32]
		if(port_pin_get_input_level(PIN_CAR_STATE) == 1){
    1618:	071b      	lsls	r3, r3, #28
    161a:	d48c      	bmi.n	1536 <main+0xe6>
	Adc *const adc_module = module_inst->hw;
    161c:	4b17      	ldr	r3, [pc, #92]	; (167c <main+0x22c>)
    161e:	6818      	ldr	r0, [r3, #0]
	if (int_flags & ADC_INTFLAG_RESRDY) {
    1620:	2101      	movs	r1, #1
	if (int_flags & ADC_INTFLAG_WINMON) {
    1622:	2604      	movs	r6, #4
		status_flags |= ADC_STATUS_WINDOW;
    1624:	2402      	movs	r4, #2
    1626:	e796      	b.n	1556 <main+0x106>
			can_send_standard_message(&preCharge_CAN);					//sends the can message
    1628:	a803      	add	r0, sp, #12
    162a:	4b11      	ldr	r3, [pc, #68]	; (1670 <main+0x220>)
    162c:	4798      	blx	r3
			temp_sol=0;
    162e:	2300      	movs	r3, #0
    1630:	4699      	mov	r9, r3
    1632:	e7e9      	b.n	1608 <main+0x1b8>
		port_base->OUTSET.reg = pin_mask;
    1634:	2280      	movs	r2, #128	; 0x80
    1636:	03d2      	lsls	r2, r2, #15
    1638:	2382      	movs	r3, #130	; 0x82
    163a:	05db      	lsls	r3, r3, #23
    163c:	619a      	str	r2, [r3, #24]
    163e:	e761      	b.n	1504 <main+0xb4>
    1640:	000011e9 	.word	0x000011e9
    1644:	0000011d 	.word	0x0000011d
    1648:	000012a1 	.word	0x000012a1
    164c:	00000d11 	.word	0x00000d11
    1650:	00000c79 	.word	0x00000c79
    1654:	41000080 	.word	0x41000080
    1658:	000013e1 	.word	0x000013e1
    165c:	00001415 	.word	0x00001415
    1660:	20000008 	.word	0x20000008
    1664:	0000134d 	.word	0x0000134d
    1668:	0000015d 	.word	0x0000015d
    166c:	00002245 	.word	0x00002245
    1670:	00000c9d 	.word	0x00000c9d
    1674:	00001439 	.word	0x00001439
    1678:	20000a0c 	.word	0x20000a0c
    167c:	20000a04 	.word	0x20000a04

00001680 <fault_callback>:
{
    1680:	b510      	push	{r4, lr}
		port_base->OUTCLR.reg = pin_mask;
    1682:	2280      	movs	r2, #128	; 0x80
    1684:	0612      	lsls	r2, r2, #24
    1686:	2382      	movs	r3, #130	; 0x82
    1688:	05db      	lsls	r3, r3, #23
    168a:	615a      	str	r2, [r3, #20]
	eic_module->INTFLAG.reg = eic_mask;
    168c:	2280      	movs	r2, #128	; 0x80
    168e:	0052      	lsls	r2, r2, #1
    1690:	4b02      	ldr	r3, [pc, #8]	; (169c <fault_callback+0x1c>)
    1692:	615a      	str	r2, [r3, #20]
	kill_the_car();
    1694:	4b02      	ldr	r3, [pc, #8]	; (16a0 <fault_callback+0x20>)
    1696:	4798      	blx	r3
}
    1698:	bd10      	pop	{r4, pc}
    169a:	46c0      	nop			; (mov r8, r8)
    169c:	40002800 	.word	0x40002800
    16a0:	00001439 	.word	0x00001439

000016a4 <__udivsi3>:
    16a4:	2200      	movs	r2, #0
    16a6:	0843      	lsrs	r3, r0, #1
    16a8:	428b      	cmp	r3, r1
    16aa:	d374      	bcc.n	1796 <__udivsi3+0xf2>
    16ac:	0903      	lsrs	r3, r0, #4
    16ae:	428b      	cmp	r3, r1
    16b0:	d35f      	bcc.n	1772 <__udivsi3+0xce>
    16b2:	0a03      	lsrs	r3, r0, #8
    16b4:	428b      	cmp	r3, r1
    16b6:	d344      	bcc.n	1742 <__udivsi3+0x9e>
    16b8:	0b03      	lsrs	r3, r0, #12
    16ba:	428b      	cmp	r3, r1
    16bc:	d328      	bcc.n	1710 <__udivsi3+0x6c>
    16be:	0c03      	lsrs	r3, r0, #16
    16c0:	428b      	cmp	r3, r1
    16c2:	d30d      	bcc.n	16e0 <__udivsi3+0x3c>
    16c4:	22ff      	movs	r2, #255	; 0xff
    16c6:	0209      	lsls	r1, r1, #8
    16c8:	ba12      	rev	r2, r2
    16ca:	0c03      	lsrs	r3, r0, #16
    16cc:	428b      	cmp	r3, r1
    16ce:	d302      	bcc.n	16d6 <__udivsi3+0x32>
    16d0:	1212      	asrs	r2, r2, #8
    16d2:	0209      	lsls	r1, r1, #8
    16d4:	d065      	beq.n	17a2 <__udivsi3+0xfe>
    16d6:	0b03      	lsrs	r3, r0, #12
    16d8:	428b      	cmp	r3, r1
    16da:	d319      	bcc.n	1710 <__udivsi3+0x6c>
    16dc:	e000      	b.n	16e0 <__udivsi3+0x3c>
    16de:	0a09      	lsrs	r1, r1, #8
    16e0:	0bc3      	lsrs	r3, r0, #15
    16e2:	428b      	cmp	r3, r1
    16e4:	d301      	bcc.n	16ea <__udivsi3+0x46>
    16e6:	03cb      	lsls	r3, r1, #15
    16e8:	1ac0      	subs	r0, r0, r3
    16ea:	4152      	adcs	r2, r2
    16ec:	0b83      	lsrs	r3, r0, #14
    16ee:	428b      	cmp	r3, r1
    16f0:	d301      	bcc.n	16f6 <__udivsi3+0x52>
    16f2:	038b      	lsls	r3, r1, #14
    16f4:	1ac0      	subs	r0, r0, r3
    16f6:	4152      	adcs	r2, r2
    16f8:	0b43      	lsrs	r3, r0, #13
    16fa:	428b      	cmp	r3, r1
    16fc:	d301      	bcc.n	1702 <__udivsi3+0x5e>
    16fe:	034b      	lsls	r3, r1, #13
    1700:	1ac0      	subs	r0, r0, r3
    1702:	4152      	adcs	r2, r2
    1704:	0b03      	lsrs	r3, r0, #12
    1706:	428b      	cmp	r3, r1
    1708:	d301      	bcc.n	170e <__udivsi3+0x6a>
    170a:	030b      	lsls	r3, r1, #12
    170c:	1ac0      	subs	r0, r0, r3
    170e:	4152      	adcs	r2, r2
    1710:	0ac3      	lsrs	r3, r0, #11
    1712:	428b      	cmp	r3, r1
    1714:	d301      	bcc.n	171a <__udivsi3+0x76>
    1716:	02cb      	lsls	r3, r1, #11
    1718:	1ac0      	subs	r0, r0, r3
    171a:	4152      	adcs	r2, r2
    171c:	0a83      	lsrs	r3, r0, #10
    171e:	428b      	cmp	r3, r1
    1720:	d301      	bcc.n	1726 <__udivsi3+0x82>
    1722:	028b      	lsls	r3, r1, #10
    1724:	1ac0      	subs	r0, r0, r3
    1726:	4152      	adcs	r2, r2
    1728:	0a43      	lsrs	r3, r0, #9
    172a:	428b      	cmp	r3, r1
    172c:	d301      	bcc.n	1732 <__udivsi3+0x8e>
    172e:	024b      	lsls	r3, r1, #9
    1730:	1ac0      	subs	r0, r0, r3
    1732:	4152      	adcs	r2, r2
    1734:	0a03      	lsrs	r3, r0, #8
    1736:	428b      	cmp	r3, r1
    1738:	d301      	bcc.n	173e <__udivsi3+0x9a>
    173a:	020b      	lsls	r3, r1, #8
    173c:	1ac0      	subs	r0, r0, r3
    173e:	4152      	adcs	r2, r2
    1740:	d2cd      	bcs.n	16de <__udivsi3+0x3a>
    1742:	09c3      	lsrs	r3, r0, #7
    1744:	428b      	cmp	r3, r1
    1746:	d301      	bcc.n	174c <__udivsi3+0xa8>
    1748:	01cb      	lsls	r3, r1, #7
    174a:	1ac0      	subs	r0, r0, r3
    174c:	4152      	adcs	r2, r2
    174e:	0983      	lsrs	r3, r0, #6
    1750:	428b      	cmp	r3, r1
    1752:	d301      	bcc.n	1758 <__udivsi3+0xb4>
    1754:	018b      	lsls	r3, r1, #6
    1756:	1ac0      	subs	r0, r0, r3
    1758:	4152      	adcs	r2, r2
    175a:	0943      	lsrs	r3, r0, #5
    175c:	428b      	cmp	r3, r1
    175e:	d301      	bcc.n	1764 <__udivsi3+0xc0>
    1760:	014b      	lsls	r3, r1, #5
    1762:	1ac0      	subs	r0, r0, r3
    1764:	4152      	adcs	r2, r2
    1766:	0903      	lsrs	r3, r0, #4
    1768:	428b      	cmp	r3, r1
    176a:	d301      	bcc.n	1770 <__udivsi3+0xcc>
    176c:	010b      	lsls	r3, r1, #4
    176e:	1ac0      	subs	r0, r0, r3
    1770:	4152      	adcs	r2, r2
    1772:	08c3      	lsrs	r3, r0, #3
    1774:	428b      	cmp	r3, r1
    1776:	d301      	bcc.n	177c <__udivsi3+0xd8>
    1778:	00cb      	lsls	r3, r1, #3
    177a:	1ac0      	subs	r0, r0, r3
    177c:	4152      	adcs	r2, r2
    177e:	0883      	lsrs	r3, r0, #2
    1780:	428b      	cmp	r3, r1
    1782:	d301      	bcc.n	1788 <__udivsi3+0xe4>
    1784:	008b      	lsls	r3, r1, #2
    1786:	1ac0      	subs	r0, r0, r3
    1788:	4152      	adcs	r2, r2
    178a:	0843      	lsrs	r3, r0, #1
    178c:	428b      	cmp	r3, r1
    178e:	d301      	bcc.n	1794 <__udivsi3+0xf0>
    1790:	004b      	lsls	r3, r1, #1
    1792:	1ac0      	subs	r0, r0, r3
    1794:	4152      	adcs	r2, r2
    1796:	1a41      	subs	r1, r0, r1
    1798:	d200      	bcs.n	179c <__udivsi3+0xf8>
    179a:	4601      	mov	r1, r0
    179c:	4152      	adcs	r2, r2
    179e:	4610      	mov	r0, r2
    17a0:	4770      	bx	lr
    17a2:	e7ff      	b.n	17a4 <__udivsi3+0x100>
    17a4:	b501      	push	{r0, lr}
    17a6:	2000      	movs	r0, #0
    17a8:	f000 f806 	bl	17b8 <__aeabi_idiv0>
    17ac:	bd02      	pop	{r1, pc}
    17ae:	46c0      	nop			; (mov r8, r8)

000017b0 <__aeabi_uidivmod>:
    17b0:	2900      	cmp	r1, #0
    17b2:	d0f7      	beq.n	17a4 <__udivsi3+0x100>
    17b4:	e776      	b.n	16a4 <__udivsi3>
    17b6:	4770      	bx	lr

000017b8 <__aeabi_idiv0>:
    17b8:	4770      	bx	lr
    17ba:	46c0      	nop			; (mov r8, r8)

000017bc <__libc_init_array>:
    17bc:	b570      	push	{r4, r5, r6, lr}
    17be:	2600      	movs	r6, #0
    17c0:	4d0c      	ldr	r5, [pc, #48]	; (17f4 <__libc_init_array+0x38>)
    17c2:	4c0d      	ldr	r4, [pc, #52]	; (17f8 <__libc_init_array+0x3c>)
    17c4:	1b64      	subs	r4, r4, r5
    17c6:	10a4      	asrs	r4, r4, #2
    17c8:	42a6      	cmp	r6, r4
    17ca:	d109      	bne.n	17e0 <__libc_init_array+0x24>
    17cc:	2600      	movs	r6, #0
    17ce:	f000 f8d9 	bl	1984 <_init>
    17d2:	4d0a      	ldr	r5, [pc, #40]	; (17fc <__libc_init_array+0x40>)
    17d4:	4c0a      	ldr	r4, [pc, #40]	; (1800 <__libc_init_array+0x44>)
    17d6:	1b64      	subs	r4, r4, r5
    17d8:	10a4      	asrs	r4, r4, #2
    17da:	42a6      	cmp	r6, r4
    17dc:	d105      	bne.n	17ea <__libc_init_array+0x2e>
    17de:	bd70      	pop	{r4, r5, r6, pc}
    17e0:	00b3      	lsls	r3, r6, #2
    17e2:	58eb      	ldr	r3, [r5, r3]
    17e4:	4798      	blx	r3
    17e6:	3601      	adds	r6, #1
    17e8:	e7ee      	b.n	17c8 <__libc_init_array+0xc>
    17ea:	00b3      	lsls	r3, r6, #2
    17ec:	58eb      	ldr	r3, [r5, r3]
    17ee:	4798      	blx	r3
    17f0:	3601      	adds	r6, #1
    17f2:	e7f2      	b.n	17da <__libc_init_array+0x1e>
    17f4:	00001990 	.word	0x00001990
    17f8:	00001990 	.word	0x00001990
    17fc:	00001990 	.word	0x00001990
    1800:	00001994 	.word	0x00001994
    1804:	00000432 	.word	0x00000432
    1808:	00000698 	.word	0x00000698
    180c:	00000698 	.word	0x00000698
    1810:	00000698 	.word	0x00000698
    1814:	00000698 	.word	0x00000698
    1818:	00000698 	.word	0x00000698
    181c:	00000698 	.word	0x00000698
    1820:	00000698 	.word	0x00000698
    1824:	00000698 	.word	0x00000698
    1828:	00000698 	.word	0x00000698
    182c:	00000698 	.word	0x00000698
    1830:	00000698 	.word	0x00000698
    1834:	00000698 	.word	0x00000698
    1838:	00000698 	.word	0x00000698
    183c:	00000698 	.word	0x00000698
    1840:	00000698 	.word	0x00000698
    1844:	0000041a 	.word	0x0000041a
    1848:	00000698 	.word	0x00000698
    184c:	00000698 	.word	0x00000698
    1850:	00000698 	.word	0x00000698
    1854:	00000698 	.word	0x00000698
    1858:	00000698 	.word	0x00000698
    185c:	00000698 	.word	0x00000698
    1860:	00000698 	.word	0x00000698
    1864:	00000698 	.word	0x00000698
    1868:	00000698 	.word	0x00000698
    186c:	00000698 	.word	0x00000698
    1870:	00000698 	.word	0x00000698
    1874:	00000698 	.word	0x00000698
    1878:	00000698 	.word	0x00000698
    187c:	00000698 	.word	0x00000698
    1880:	00000698 	.word	0x00000698
    1884:	0000042a 	.word	0x0000042a
    1888:	00000698 	.word	0x00000698
    188c:	00000698 	.word	0x00000698
    1890:	00000698 	.word	0x00000698
    1894:	00000698 	.word	0x00000698
    1898:	00000698 	.word	0x00000698
    189c:	00000698 	.word	0x00000698
    18a0:	00000698 	.word	0x00000698
    18a4:	00000698 	.word	0x00000698
    18a8:	00000698 	.word	0x00000698
    18ac:	00000698 	.word	0x00000698
    18b0:	00000698 	.word	0x00000698
    18b4:	00000698 	.word	0x00000698
    18b8:	00000698 	.word	0x00000698
    18bc:	00000698 	.word	0x00000698
    18c0:	00000698 	.word	0x00000698
    18c4:	00000422 	.word	0x00000422
    18c8:	00000468 	.word	0x00000468
    18cc:	00000402 	.word	0x00000402
    18d0:	00000412 	.word	0x00000412
    18d4:	0000040a 	.word	0x0000040a
    18d8:	00000002 	.word	0x00000002
    18dc:	00000003 	.word	0x00000003
    18e0:	00000028 	.word	0x00000028
    18e4:	00000029 	.word	0x00000029
    18e8:	00000004 	.word	0x00000004
    18ec:	00000005 	.word	0x00000005
    18f0:	00000006 	.word	0x00000006
    18f4:	00000007 	.word	0x00000007
    18f8:	00000008 	.word	0x00000008
    18fc:	00000009 	.word	0x00000009
    1900:	0000000a 	.word	0x0000000a
    1904:	0000000b 	.word	0x0000000b
    1908:	00000020 	.word	0x00000020
    190c:	00000021 	.word	0x00000021
    1910:	00000022 	.word	0x00000022
    1914:	00000023 	.word	0x00000023
    1918:	00000028 	.word	0x00000028
    191c:	00000029 	.word	0x00000029
    1920:	00000024 	.word	0x00000024
    1924:	00000025 	.word	0x00000025
    1928:	00000026 	.word	0x00000026
    192c:	00000027 	.word	0x00000027
    1930:	00000008 	.word	0x00000008
    1934:	00000009 	.word	0x00000009

00001938 <_adc_apbcmasks>:
    1938:	00020000 00040000                       ........

00001940 <_adc_biascomp_addr>:
    1940:	00806020 00806020                        `.. `..

00001948 <_adc_biascomp_pos>:
    1948:	00000903                                ....

0000194c <_adc_biasrefbuf_addr>:
    194c:	00806020 00806020                        `.. `..

00001954 <_adc_biasrefbuf_pos>:
    1954:	00000600                                ....

00001958 <_adc_extchannel_msb>:
    1958:	0000000b 0000000b                       ........

00001960 <_adc_gclk_ids>:
    1960:	00002221 00000e52 00000e4e 00000e4e     !"..R...N...N...
    1970:	00000e80 00000e80 00000e6a 00000e58     ........j...X...
    1980:	00000e70                                p...

00001984 <_init>:
    1984:	b5f8      	push	{r3, r4, r5, r6, r7, lr}
    1986:	46c0      	nop			; (mov r8, r8)
    1988:	bcf8      	pop	{r3, r4, r5, r6, r7}
    198a:	bc08      	pop	{r3}
    198c:	469e      	mov	lr, r3
    198e:	4770      	bx	lr

00001990 <__init_array_start>:
    1990:	000000e5 	.word	0x000000e5

00001994 <_fini>:
    1994:	b5f8      	push	{r3, r4, r5, r6, r7, lr}
    1996:	46c0      	nop			; (mov r8, r8)
    1998:	bcf8      	pop	{r3, r4, r5, r6, r7}
    199a:	bc08      	pop	{r3}
    199c:	469e      	mov	lr, r3
    199e:	4770      	bx	lr

000019a0 <__fini_array_start>:
    19a0:	000000bd 	.word	0x000000bd
